:1000000045C0000061C000005FC000005DC000008E
:100010005BC0000059C0000057C0000055C0000080
:1000200053C0000051C000004FC000000C94700984
:100030004BC0000049C0000047C0000045C00000A0
:1000400043C0000041C000003FC000003DC00000B0
:100050002FC700000C94180937C0000035C00000FD
:1000600033C0000031C000002FC000002DC00000D0
:1000700049C700000C94400927C0000025C00000BB
:1000800023C0000021C000001FC0000011241FBEBB
:10009000CFEFD0E4DEBFCDBF11E0A0E0B1E0E2E2FF
:1000A000FEE100E00BBF02C007900D92AE37B10732
:1000B000D9F721E0AEE7B1E001C01D92AB3DB20738
:1000C000E1F782D10C940F0F9BCF809100018F5FDD
:1000D00080930001089582E0F5D4811103C00E944D
:1000E0001609F9CF08958D3209F45DC08D3339F1C9
:1000F0008B3209F085C08091840190918501892B14
:1001000071F08091050190910601209101013091DB
:100110000201820F931F9093060180930501809145
:10012000820190918301892B09F46BC080910301B6
:1001300090910401209101013091020131C0809120
:10014000840190918501892BA9F0809105019091FE
:1001500006012091010130910201009729F43093AA
:1001600006012093050106C0820F931F909306019C
:10017000809305018091820190918301892B09F47C
:1001800040C08091030190910401209101013091C0
:100190000201009729F4309304012093030131C038
:1001A000820F931F28C08091840190918501892B33
:1001B00081F08091050190910601009751F0209106
:1001C000010130910201821B930B909306018093F1
:1001D00005018091820190918301892B91F080919A
:1001E000030190910401009761F020910101309189
:1001F0000201821B930B909304018093030101C0C1
:100200006ADF8091840190918501892B99F060E0EB
:1002100086E03AD2809106018F93809105018F93F9
:1002200085E391E09F938F930E94490C0F900F906C
:100230000F900F908091820190918301892B99F00A
:1002400061E086E021D2809104018F9380910301C7
:100250008F9385E391E09F938F930E94490C0F90B9
:100260000F900F900F90089582E01CD4E0918601CA
:100270008E1781F0F0E0EF54FE4F808134DF8091E3
:1002800086018F3119F410928601EECF8F5F809333
:100290008601EACF08950F931F93CF93DF938C01CC
:1002A000EB010E94EE092091840130918501232BFE
:1002B00091F02091800130918101AB01421B530BE1
:1002C0004017510740F02BB134E023272BB970932E
:1002D0008101609380012091820130918301232B61
:1002E00091F020917E0130917F01AB01421B530BB5
:1002F0004C175D0740F028B130E1232728B97093EF
:100300007F0160937E01DF91CF911F910F9108953E
:10031000843049F1803209F056C080918401909177
:100320008501892B59F010928501109284015A9809
:1003300060E080E0A9D189E391E025C081E090E010
:10034000909385018093840160E080E09DD189E4F1
:1003500091E07BD160E086E097D1809106018F9398
:100360008091050125C08091820190918301892BA4
:1003700059F01092830110928201449861E080E06C
:1003800083D185E591E061C181E090E090938301A4
:100390008093820161E080E077D184E691E055D1DD
:1003A00061E086E071D1809104018F938091030117
:1003B0008F9385E391E09F938F930E94490C0F9058
:1003C0000F900F900F900895ABD22AD160E080E09B
:1003D0005BD180E791E039D161E080E055D187E7DA
:1003E00091E033D140E855E260E070E082E070D601
:1003F00040E261EB71E082E059D584E08AB980E1A6
:1004000087B914D731DF8CE24BD3811181DF609142
:1004100003017091040180910501909106013BDF79
:10042000F0CF80E090E0089581E090E06F9364E089
:100430006A95F1F76F910197C9F708950F931F938C
:10044000CF93DF9317B13D982898299AC0E0D0E068
:10045000EBDF2A9AE9DF06B12A98E6DF2A9AE4DF81
:100460002A98249605FF10C09E0140E050E080913C
:100470008B0190918C01A0918D01B0918E01281774
:1004800039074A075B0720F39E0140E050E0809166
:100490008B0190918C01A0918D01B0918E01281754
:1004A00039074A075B0728F082E390E0A0E0B0E05C
:1004B00004C080E395E7A0E0B0E080938B019093C7
:1004C0008C01A0938D01B0938E0117B9DF91CF916C
:1004D0001F910F91089528B190E08F709070880F50
:1004E000991F880F991F237C282B28B92A9A9CDFF3
:1004F0002A989ACFA2E0B0E0E0E8F2E00C949F0ADC
:10050000182F4A83698358D099DFF7B008B129982A
:1005100069814A81662311F0289A01C0289887B121
:100520008C6387B9413021F0812F82958F70D3DFA2
:10053000812F8F70D0DFF7B808B92296E5E00C94D0
:10054000BB0A60E042E0D6CF61E042E0D3CF60E09A
:1005500041E0D0CF3D98459A80E395E7A0E0B0E038
:1005600080938B0190938C01A0938D01B0938E01A9
:10057000209A219A229A8EE190E0F9D683E0E7DF73
:1005800086E090E0F4D683E0E2DF82E090E0EFD610
:1005900083E0DDDF82E090E0EAD682E0D8DF82E02F
:1005A00090E0E5D688E2CDDF88E0CBDF81E0C9DFEF
:1005B00086E0C7DF8CE0C5CF80918F01882321F4CE
:1005C00081E080938F01C6CF089581E0BADF8091EA
:1005D000870190918801009711F1A0E0B0E208C076
:1005E000E0918701F0918801E20FF31FB083AF5FC4
:1005F0002A2F30E08091070190E001976091080177
:1006000070E0869FA001879F500D969F500D11248A
:10061000241735072CF310928A011092890108954E
:10062000D4CF0895EF92FF92CF93DF93E82EE701A6
:100630007E01F92EE70101C087DF89918823E1F768
:10064000DF91CF91FF90EF900895ECCF0895A5E052
:10065000B0E0ECE2F3E075C7182F80E8898380EC06
:100660008A8384E98B8384ED8C83FE01E60FF11D80
:100670008181810F6D8365DF10938A016D816093A5
:1006800089012596E3E079C7E2CF0895A0E0B0E0C4
:10069000EBE4F3E051C7D82E809187019091880157
:1006A000009709F4F2C02D2D2A3009F442C02830F9
:1006B000C9F480918A01815080938A018F3F51F45F
:1006C0008091890181508093890180910801815036
:1006D00080938A01809189018F3F09F0D1C01092E7
:1006E0008901CCC08D2D30DF809189018823B9F03C
:1006F00090E001974091080150E0849F9001859F10
:10070000300D949F300D112480918A01E091870172
:10071000F0918801E20FF31FE80FF11DD082809164
:100720008A018F5F80938A0190910801891709F0EF
:10073000ACC040918901242F30E08091070190E006
:1007400001972817390709F096C0C0E0D0E03FC0F4
:1007500080E06C2F7CDFCC248E010F5F1F4F32C0F6
:10076000EC2CFF2430E0C29FC001C39F900DD29FAC
:10077000900D1124E0918701F0918801EE0DFF1D8D
:10078000E80FF91F8081E0DE809187019091880158
:100790002091080130E0C29FF001C39FF00DD29F6D
:1007A000F00D11248E0D9F1DE80FF91F029FD0013F
:1007B000039FB00D129FB00D1124A80FB91F8C918B
:1007C0008083C39420910801C21650F2E801609121
:1007D0000701862F90E00297C817D9070CF4B8CF0D
:1007E0006230D0F1625080E032DF00E010E230C0D1
:1007F000C02FD0E08091070190E0029750E0849FE5
:100800009001859F300D949F300D1124E091870158
:10081000F0918801EC0FFD1FE20FF31F808194DE41
:100820008091070190E002974091080150E0849F79
:100830009001859F300D949F300D1124E091870128
:10084000F0918801EC0FFD1FE20FF31F10830F5F83
:1008500040910801041760F260910701615080E047
:10086000F6DE10E003C080E26FDE1F5F80910801BA
:100870001817C8F303C04F5F4093890110928A0193
:1008800080918A0160918901E2DE2D2D332727FDB9
:100890003095C901CDB7DEB7E8E06AC6809187011F
:1008A00090918801009709F01BD72091070130E053
:1008B000215030408091080190E0AC01249FC0019C
:1008C000259F900D349F900D112472D6909388012E
:1008D00080938701009719F1A0E0B0E208C0E09191
:1008E0008701F0918801E20FF31FB083AF5F2A2FD9
:1008F00030E08091070190E001976091080170E07D
:10090000869FA001879F500D969F500D112424179C
:1009100035072CF386E493E061E172E070C7089537
:10092000BDCF089587B1837D87B988B18C6288B9BE
:1009300085E090E06F9364E06A95F1F76F9101971D
:10094000C9F7089580919001882321F481E0809374
:100950009001E8CF0895BF92CF92DF92EF92FF927D
:100960000F931F93B82EC6B0DC2CD09437D57B01E3
:100970008C01E8DF80919C01813021F1813038F0D9
:10098000823009F445C0833009F081C063C02B2D4B
:1009900030E04D2D50E0409550952423352321150E
:1009A000310509F474C0CB20C0929701E092980100
:1009B000F092990100939A0110939B0181E080933A
:1009C0009C0165C08091980190919901A0919A0134
:1009D000B0919B01E81AF90A0A0B1B0B8FE0E8168D
:1009E000F1040105110508F452C0409197018D2DC5
:1009F00090E080959095242F30E0822393230097F8
:100A000031F182E080939C01C422C09297013FC0E3
:100A1000409197018D2D842371F093E090939C0178
:100A200080939701E0929801F092990100939A01C6
:100A300010939B012CC050E08B2D90E02D2D30E0C9
:100A400020953095822393234817590701F110927E
:100A50009C011DC08091980190919901A0919A01EB
:100A6000B0919B01E81AF90A0A0B1B0B8FE0E816FC
:100A7000F1040105110558F0809197018D2119F0BD
:100A800010929C0105C092E090939C0101C080E00F
:100A90001F910F91FF90EF90DF90CF90BF9008953E
:100AA0005ACF0895282F30E0F901EE0FFF1F43E0E1
:100AB000220F331F4A95E1F7E20FF31FE75FFE4F66
:100AC00082810895282F30E0F901EE0FFF1F73E0B7
:100AD000220F331F7A95E1F7E20FF31FE75FFE4F16
:100AE0004181282F30E0F901EE0FFF1F53E0220F64
:100AF000331F5A95E1F7E20FF31FE75FFE4F81E0E6
:100B00009381491380E00895282F30E0F901EE0F1A
:100B1000FF1FB3E0220F331FBA95E1F7E20FF31F77
:100B2000E75FFE4F408551854115510509F452C0DC
:100B3000282F30E0F901EE0FFF1F73E0220F331F63
:100B40007A95E1F7E20FF31FE75FFE4F7281282FDE
:100B500030E0F901EE0FFF1FB3E0220F331FBA950B
:100B6000E1F7E20FF31FE75FFE4F9481791790F5ED
:100B7000282F30E0F901EE0FFF1F73E0220F331F23
:100B80007A95E1F7E20FF31FE75FFE4F9281490F7D
:100B9000511DFA016083282F30E0F901EE0FFF1F8D
:100BA00053E0220F331F5A95E1F7E20FF31FE75F7F
:100BB000FE4F92819F5F282F30E0F901EE0FFF1F5B
:100BC000B3E0220F331FBA95E1F7E20FF31FE75F9F
:100BD000FE4F9283282F30E0F901EE0FFF1F73E0E4
:100BE000220F331F7A95E1F7E20FF31FE75FFE4F05
:100BF0004281282F30E0F901EE0FFF1F53E0220F52
:100C0000331F5A95E1F7E20FF31FE75FFE4F948120
:100C1000491701F5282F30E0F901EE0FFF1F93E08F
:100C2000220F331F9A95E1F7E20FF31FE75FFE4FA4
:100C30009581992379F0282F30E0F901EE0FFF1FFD
:100C4000B3E0220F331FBA95E1F7E20FF31FE75F1E
:100C5000FE4F128208950F931F93182F823009F4CC
:100C600074C0882319F4E1ECF0E002C0E9ECF0E094
:100C700080818F778083812F90E0FC01EE0FFF1F32
:100C800003E0880F991F0A95E1F7E80FF91FE75F66
:100C9000FE4F808591850097A1F1212F30E0F90169
:100CA000EE0FFF1FA3E0220F331FAA95E1F7E20F1B
:100CB000F31FE75FFE4F9281212F30E0F901EE0F25
:100CC000FF1F63E0220F331F6A95E1F7E20FF31F66
:100CD000E75FFE4F84819817A0F4112319F4E0EC2C
:100CE000F0E002C0E8ECF0E0808187FF0AC0112349
:100CF00019F4E6ECF0E002C0EEECF0E06081812F48
:100D000003DF212F30E0F901EE0FFF1F43E0220F38
:100D1000331F4A95E1F7E20FF31FE75FFE4F808133
:100D2000882309F057C0112319F4E1ECF0E002C068
:100D3000E9ECF0E08081806880834CC080912201E2
:100D4000882319F010921F0145C0809125019091D0
:100D50002601009709F43EC090911F018091210166
:100D60009817C0F580919D01882399F43CD3809316
:100D70009D0110E00AC034D3E02FF0E03197E11B71
:100D8000F109E256FE4F80831F5F00919D0110170D
:100D900090F3A0919D01AA23E9F080911F01E091B9
:100DA0002501F0912601E80FF11DA150A0939D01AE
:100DB000B0E0A256BE4F8C91808380911F018F5F5F
:100DC00080931F0190911F0180912101981709F0D4
:100DD000BCCFB4CF1F910F910895823051F088237A
:100DE00019F4E1ECF0E002C0E9ECF0E090819F77CB
:100DF0009083A82FB0E0FD01EE0FFF1F53E0AA0F74
:100E0000BB1F5A95E1F7EA0FFB1FE75FFE4F7187A3
:100E10006087682F70E0FB01EE0FFF1F93E0660F05
:100E2000771F9A95E1F7E60FF71FE75FFE4F1282F3
:100E3000682F70E0FB01EE0FFF1FA3E0660F771F26
:100E4000AA95E1F7E60FF71FE75FFE4F4483482FAF
:100E500050E0FA01EE0FFF1F63E0440F551F6A9543
:100E6000E1F7E40FF51FE75FFE4F25838230D9F0ED
:100E7000282F30E0F901EE0FFF1F43E0220F331F50
:100E80004A95E1F7E20FF31FE75FFE4F9081992348
:100E900051F4882319F4E1ECF0E002C0E9ECF0E051
:100EA000808180688083089521E097CFFDCF0895E9
:100EB0001F920F920FB60F920BB60F9211242F9321
:100EC0003F934F935F936F937F938F939F93AF93D2
:100ED000BF93EF93FF936091C60080E015DEFF9112
:100EE000EF91BF91AF919F918F917F916F915F91A2
:100EF0004F913F912F910F900BBE0F900FBE0F900F
:100F00001F9018951F920F920FB60F920BB60F926B
:100F100011242F933F934F935F936F937F938F93FE
:100F20009F93AF93BF93EF93FF936091CE0081E0C7
:100F3000EBDDFF91EF91BF91AF919F918F917F91E9
:100F40006F915F914F913F912F910F900BBE0F903A
:100F50000FBE0F901F901895882319F4E1ECF0E074
:100F600002C0E9ECF0E080818062808308958823EC
:100F700019F4E1ECF0E002C0E9ECF0E080818F7D53
:100F800080830895282F30E0F901EE0FFF1F93E0D2
:100F9000220F331F9A95E1F7E20FF31FE75FFE4F31
:100FA000268137812115310591F1282F30E0F90193
:100FB000EE0FFF1FA3E0220F331FAA95E1F7E20F08
:100FC000F31FE75FFE4F4181282F30E0F901EE0F5C
:100FD000FF1F63E0220F331F6A95E1F7E20FF31F53
:100FE000E75FFE4F9381491790F4282F30E0F90115
:100FF000EE0FFF1F43E0220F331F4A95E1F7E20F88
:10100000F31FE75FFE4F9081992309F4A5CFAFCF7F
:10101000823029F1282F30E0F901EE0FFF1F53E055
:10102000220F331F5A95E1F7E20FF31FE75FFE4FE0
:101030009081992349F4882319F4E1ECF0E002C08F
:10104000E9ECF0E098E908C0882319F4E1ECF0E05D
:1010500002C0E9ECF0E098E1908394DF7894089581
:10106000882319F0813029F402C080E0D1CF81E0DB
:10107000CFCF0895A0E0B0E0EFE3F8E05EC2D82E55
:101080007A018B01EDDF8D2D8230F1F0DD2019F436
:10109000C4ECD0E002C0CCECD0E0C801B70128EF2E
:1010A0003FEF4FEF5FEF03D26050734D8E4C9E4F7A
:1010B000A8019701E4E0220F331F441F551FEA9552
:1010C000D1F704D239832883CDB7DEB7E7E051C228
:1010D000D1CF0895282F30E0F901EE0FFF1F73E004
:1010E000220F331F7A95E1F7E20FF31FE75FFE4F00
:1010F000468157814115510509F465C0282F30E01C
:10110000F901EE0FFF1F93E0220F331F9A95E1F7CD
:10111000E20FF31FE75FFE4F6181282F30E0F901F6
:10112000EE0FFF1FA3E0220F331FAA95E1F7E20F96
:10113000F31FE75FFE4F9381691708F044C08823CF
:1011400019F4E0ECF0E002C0E8ECF0E0908195FFEB
:101150003AC0882319F4A6ECB0E002C0AEECB0E0CF
:10116000282F30E0F901EE0FFF1F63E0220F331F3D
:101170006A95E1F7E20FF31FE75FFE4F9181490F98
:10118000511DFA0190819C93282F30E0F901EE0F58
:10119000FF1F93E0220F331F9A95E1F7E20FF31F31
:1011A000E75FFE4F91819F5F282F30E0F901EE0F3E
:1011B000FF1FA3E0220F331FAA95E1F7E20FF31FF1
:1011C000E75FFE4F9183DECE1F93182F823021F010
:1011D000CEDE812F7FDF1CC08091230190912401FE
:1011E0000097B1F030911E0120912001321780F458
:1011F00006C080911E018F5F80931E01EDCF20916C
:101200001E01820F911DFC018081F1D0882389F796
:101210001F91089580E0D8DF81E0D6DF82E0D4DF3F
:1012200080E019DD81E017DD82E015CDF3CF089570
:101230001F920F920FB60F920BB60F9211242F939D
:101240003F934F935F936F937F938F939F93AF934E
:10125000BF93EF93FF9380E03DDFFF91EF91BF914C
:10126000AF919F918F917F916F915F914F913F913E
:101270002F910F900BBE0F900FBE0F901F901895DF
:101280001F920F920FB60F920BB60F9211242F934D
:101290003F934F935F936F937F938F939F93AF93FE
:1012A000BF93EF93FF9381E015DFFF91EF91BF9123
:1012B000AF919F918F917F916F915F914F913F91EE
:1012C0002F910F900BBE0F900FBE0F901F9018958F
:1012D0006F9364E06A95F1F76F910197C9F70895EC
:1012E0002F928F939F932FB68091A7019091A80181
:1012F00001968093A7019093A80190E08091A901A5
:10130000891F8093A9019091AF019C5F9093AF01D9
:101310008091AE0180519742C0F09093AF018093CD
:10132000AE018091AA019091AB0101968093AA0130
:101330009093AB0190E08091AC01891F8093AC0148
:101340008091AD01891F8093AD012FBE9F918F9138
:101350002F901895CF93DF93EC0104C088EE93E0B3
:10136000B7DF21972097D1F7DF91CF910895F2CF82
:101370000895E0E7F0E080818E7F8083A0EBB0E00D
:101380008C9183608C93A1EBB0E08C91807F8C93E7
:101390008C9182608C93B89A8081816080837894EC
:1013A00008958091B001882321F481E08093B001F9
:1013B000E0CF0895F6DFE0E7F0E080818E7F808364
:1013C0002091AA013091AB014091AC015091AD0147
:1013D000808181608083B901CA010895EBCF0895AF
:1013E0008FEF64E041C083E867E03ED0F9CF1F9300
:1013F000182F982F9095991F9927991F85E8891B79
:1014000065E032D0812F8F7765E02ED01F9108954F
:101410006F9364E06A95F1F76F910197C9F70895AA
:10142000A1E0B0E0E5E1FAE08CC0182F249908C0F3
:101430002C9906C02C9A8EE190E06983E9DF6981DE
:1014400084B1806A84B92698812F837080656C7A14
:10145000862B8CBD81E012FF80E08DBD81E090E0A5
:1014600079DF2196E3E089C00F931F93082F162F91
:101470000CB406FC03C080E064E0D2DF0CB404FCD2
:1014800003C08CB580618CBD0EBD03C00CB404FEDE
:101490000AC00DB407FEFACF112319F0812F90E096
:1014A000B7DF8EB501C080E01F910F910895DB0179
:1014B0008F939F932DD0BF91AF91A29F800D911DCF
:1014C000A39F900DB29F900D11240895A1E21A2EB2
:1014D000AA1BBB1BFD010DC0AA1FBB1FEE1FFF1FD8
:1014E000A217B307E407F50720F0A21BB30BE40B28
:1014F000F50B661F771F881F991F1A9469F760956F
:101500007095809590959B01AC01BD01CF01089528
:1015100040D0A59F900DB49F900DA49F800D911D6C
:10152000112408952F923F924F925F926F927F9273
:101530008F929F92AF92BF92CF92DF92EF92FF92E3
:101540000F931F93CF93DF93CDB7DEB7CA1BDB0B8F
:101550000FB6F894DEBF0FBECDBF09942A88398834
:1015600048885F846E847D848C849B84AA84B9843B
:10157000C884DF80EE80FD800C811B81AA81B98147
:10158000CE0FD11D0FB6F894DEBF0FBECDBFED015B
:101590000895A29FB001B39FC001A39F700D811D4C
:1015A0001124911DB29F700D811D1124911D08956C
:1015B000CF93DF938230910510F482E090E0E091C8
:1015C000D301F091D40120E030E0A0E0B0E030970A
:1015D00039F14081518148175907B8F04817590728
:1015E00071F482819381109729F013969C938E93C6
:1015F00012972CC09093D4018093D30127C021155A
:10160000310531F04217530718F0A901DB0101C081
:10161000EF019A01BD01DF010280F381E02DD7CFF8
:1016200021153105F9F0281B390B2430310580F4E0
:101630008A819B816115710521F0FB01938382836F
:1016400004C09093D4018093D301FE01329644C02C
:10165000FE01E20FF31F81939193225031093983E8
:1016600028833AC02091D1013091D201232B41F43B
:1016700020913101309132013093D2012093D10178
:1016800020912F01309130012115310541F42DB702
:101690003EB74091330150913401241B350BE0914A
:1016A000D101F091D201E217F307A0F42E1B3F0BFA
:1016B0002817390778F0AC014E5F5F4F24173507C4
:1016C00048F04E0F5F1F5093D2014093D101819398
:1016D000919302C0E0E0F0E0CF01DF91CF91089557
:1016E000CF93DF93009709F487C0FC0132971382F0
:1016F0001282C091D301D091D401209781F420812E
:101700003181280F391F8091D1019091D201821728
:10171000930779F5F093D201E093D1016DC0DE011A
:1017200020E030E0AE17BF0750F412964D915C9167
:1017300013979D014115510509F1DA01F3CFB383E8
:10174000A28340815181840F951F8A179B0771F4F2
:101750008D919C911197840F951F029691838083A0
:1017600012968D919C911397938382832115310555
:1017700029F4F093D401E093D3013EC0D90113962C
:10178000FC93EE9312974D915D91A40FB51FEA174C
:10179000FB0779F480819181840F951F0296D9010E
:1017A00011969C938E938281938113969C938E9332
:1017B0001297E0E0F0E08A819B81009719F0FE012A
:1017C000EC01F9CFCE01029628813981820F931F57
:1017D0002091D1013091D2012817390769F430974F
:1017E00029F41092D4011092D30102C01382128204
:1017F000D093D201C093D101DF91CF9108950F937F
:101800001F93CF93DF93EC018B01009731F46115A7
:10181000710519F480E090E037C06EE070E081E07F
:1018200090E036D2FC010097A9F380E8838301158C
:10183000110571F01387028781E883838091D501B8
:101840009091D601892B21F4F093D601E093D50134
:101850002097C9F0D187C08783818260838380917C
:10186000D7019091D801892B71F4F093D801E093BE
:10187000D7018091D9019091DA01892B21F4F0935D
:10188000DA01E093D901CF01DF91CF911F910F9140
:101890000895CF93DF93CDB7DEB7FE013596619102
:1018A0007191AF018091D7019091D80103D0DF9160
:1018B000CF9108952F923F924F925F926F927F92B5
:1018C0008F929F92AF92BF92CF92DF92EF92FF9250
:1018D0000F931F93CF93DF93CDB7DEB72C970FB63F
:1018E000F894DEBF0FBECDBF7C016B018A01FC0105
:1018F00017821682838181FFB0C1CE0101964C010F
:10190000F7019381F60193FD859193FF81916F011A
:10191000882309F49EC1853239F493FD859193FFA4
:1019200081916F01853221F4B70190E0E8D1E8CFD1
:10193000512C312C20E02032A0F48B3269F030F4AD
:10194000803259F0833269F420612CC08D3239F035
:10195000803339F4216026C02260246023C02860CF
:1019600021C027FD27C030ED380F3A3078F426FF2C
:1019700006C0FAE05F9E300D1124532E13C08AE09A
:10198000389E300D1124332E20620CC08E3221F48B
:1019900026FD5FC1206406C08C3611F4206802C0A9
:1019A000883641F4F60193FD859193FF81916F0193
:1019B0008111C1CF982F9F7D9554933028F40C5FEF
:1019C0001F4FFFE3F9830DC0833631F0833771F089
:1019D000833509F057C021C0F801808189830E5FEB
:1019E0001F4F44244394512C540114C03801F2E099
:1019F0006F0E711CF801A080B18026FF03C0652D19
:101A000070E002C06FEF7FEFC5012C876DD12C0114
:101A100083012C852F77222E16C03801F2E06F0E3D
:101A2000711CF801A080B18026FF03C0652D70E015
:101A300002C06FEF7FEFC5012C8744D12C012C85AC
:101A40002068222E830123FC19C0832D90E04816C4
:101A50005906A0F4B70180E290E051D13A94F5CF55
:101A6000F50127FC859127FE81915F01B70190E088
:101A700046D131103A94F1E04F1A51084114510403
:101A800079F7DEC0843611F0893631F5F80127FF89
:101A900007C060817181828193810C5F1F4F08C0F4
:101AA00060817181882777FD8095982F0E5F1F4F89
:101AB0002F76B22E97FF09C090958095709561950D
:101AC0007F4F8F4F9F4F2068B22E2AE030E0A40155
:101AD00048D1A82EA81843C0853729F42F7EB22EEE
:101AE0002AE030E025C0F22FF97FBF2E8F36C1F0FB
:101AF00018F4883579F0ADC0803719F0883721F0B7
:101B0000A8C02F2F2061B22EB4FE0DC08B2D846093
:101B1000B82E09C024FF0AC09F2F9660B92E06C0B8
:101B200028E030E005C020E130E002C020E132E0F2
:101B3000F801B7FE07C060817181828193810C5FDB
:101B40001F4F06C06081718180E090E00E5F1F4FE3
:101B5000A40107D1A82EA818FB2DFF77BF2EB6FE33
:101B60000BC02B2D2E7FA51450F4B4FE0AC0B2FC7E
:101B700008C02B2D2E7E05C07A2C2B2D03C07A2C6D
:101B800001C0752C24FF0DC0FE01EA0DF11D8081FE
:101B9000803311F4297E09C022FF06C07394739428
:101BA00004C0822F867809F0739423FD12C020FFB1
:101BB00006C05A2C731418F4530C5718732C731452
:101BC00060F4B70180E290E02C8799D073942C8563
:101BD000F6CF731410F4371801C0312C24FF11C054
:101BE000B70180E390E02C878AD02C8522FF16C0B5
:101BF00021FF03C088E590E002C088E790E0B701CC
:101C00000CC0822F867851F021FD02C080E201C015
:101C10008BE227FD8DE2B70190E071D0A51430F47E
:101C2000B70180E390E06BD05A94F8CFAA94F40106
:101C3000EA0DF11D8081B70190E061D0A110F6CFCF
:101C4000332009F45DCEB70180E290E058D03A9499
:101C5000F7CFF7018681978102C08FEF9FEF2C9617
:101C60000FB6F894DEBF0FBECDBFDF91CF911F91AD
:101C70000F91FF90EF90DF90CF90BF90AF909F902B
:101C80008F907F906F905F904F903F902F9008952E
:101C90000F931F93CF93DF93869F8001879F100D33
:101CA000969F100D1124C80183DCEC01009721F0F0
:101CB000A80160E070E011D0CE01DF91CF911F91BB
:101CC0000F910895FC010590615070400110D8F704
:101CD000809590958E0F9F1F0895DC0101C06D9334
:101CE00041505040E0F70895FC0161507040019070
:101CF0000110D8F7809590958E0F9F1F08950F9330
:101D00001F93CF93DF93182F092FEB018B8181FD58
:101D100003C08FEF9FEF20C082FF10C04E815F8114
:101D20002C813D81421753077CF4E881F9819F01A2
:101D30002F5F3F4F39832883108306C0E885F985DC
:101D4000812F0995892B29F72E813F812F5F3F4FE6
:101D50003F832E83812F902FDF91CF911F910F9181
:101D60000895FA01AA27283051F1203181F1E89431
:101D70006F936E7F6E5F7F4F8F4F9F4FAF4FB1E07E
:101D80003ED0B4E03CD0670F781F891F9A1FA11D79
:101D9000680F791F8A1F911DA11D6A0F711D811D7A
:101DA000911DA11D20D009F468943F912AE0269F3F
:101DB00011243019305D3193DEF6CF010895462F9E
:101DC0004770405D4193B3E00FD0C9F7F6CF462F7F
:101DD0004F70405D4A3318F0495D31FD40524193E8
:101DE00002D0A9F7EACFB4E0A695979587957795A5
:101DF0006795BA95C9F700976105710508959B012C
:101E0000AC010A2E06945795479537952795BA95B4
:101E1000C9F7620F731F841F951FA01D0895F894C2
:021E2000FFCFF2
:101E2200016400E803D00702100000000000000077
:101E3200000000000000000000000000000100009F
:101E420000000000000000FFFFFFFFFFFFFFFF0098
:101E520000DB012000253864006C6564313A2020E3
:101E62002020202020202020004C4544313A2020F0
:101E720020202020006C6564323A2020202020207F
:101E8200202020004C4544323A20202020202000EF
:0E1E92006C6564313A20006C6564323A2000C1
:00000001FF
