:1000000045C0000061C000005FC000005DC000008E
:10001000B6C60000B4C60000B2C60000B0C60000FC
:1000200053C0000051C000004FC00000CFC5000009
:100030004BC0000049C0000047C0000045C00000A0
:1000400043C0000041C000003FC000003DC00000B0
:100050003BC0000039C0000037C0000035C00000C0
:1000600033C0000031C000002FC000002DC00000D0
:100070002BC0000029C0000027C0000025C00000E0
:1000800023C0000021C000001FC0000011241FBEBB
:10009000CFEFD0E4DEBFCDBF11E0A0E0B1E0E8E5F6
:1000A000F8E100E00BBF02C007900D92A033B1074A
:1000B000D9F721E0A0E3B1E001C01D92AE36B2074E
:1000C000E1F7F0D00C942A0C9BCF809100018F5F58
:1000D000809300010895CF93DF93883021F180321F
:1000E00021F0843009F0DBC0A9C0809132019091E9
:1000F00033012091010130910201820F931F9093EF
:100100003301809332012091030130910401409129
:10011000300150913101249FB001259F700D349F13
:10012000700D1124B3C08091030190910401181641
:1001300019061CF48FEF9FEF02C081E090E09093CE
:10014000040180930301C0913201D09133011C1648
:100150001D060CF05BC0809132019091330118169E
:10016000190634F52091010130910201821B930B95
:100170009093330180933201209103013091040167
:100180004091300150913101249FB001259F700DA5
:10019000349F700D1124AC01429FC001439F900D0C
:1001A000529F900D112448D484EF91E056D5D3CFBF
:1001B00080913201909133018C179D070CF06FC034
:1001C0002091010130910201280F391F3093330132
:1001D00020933201809103019091040140913001FC
:1001E00050913101849FB001859F700D949F700DD7
:1001F0001124AC01249FC001259F900D349F900DC8
:1002000011241AD484EF91E028D5D2CF8091030134
:10021000909104012091300130913101829FB00111
:10022000839F700D929F700D11249C01C29FC0018D
:10023000C39F900DD29F900D112430C08091320148
:10024000909133012091010130910201821B930BA7
:1002500097FD05C0909333018093320104C0109242
:100260003301109232018091030190910401209199
:10027000300130913101829FB001839F700D929FB8
:10028000700D11242091320130913301AC01429F55
:10029000C001439F900D529F900D1124CDD3DF914B
:1002A000CF910895ABD225E144E16EE18FE14CD6C8
:1002B00060E070E080E090E0BFD3CDE0D1E00BE102
:1002C00011E060E080E04ED148D69F938F93DF939A
:1002D000CF93FAD78EE291E026D14BD50F900F90B5
:1002E0000F900F90892B31F061E080E03BD183E1EA
:1002F00091E019D18CE260D4882359F0ECDE809132
:10030000320190913301892B21F484E690E0A5D449
:1003100031D661E080E026D1809133018F938091C6
:1003200032018F931F930F93CFD761E08AE01AD1E8
:1003300080910301909104010F900F900F900F9006
:1003400097FF03C086E291E004C0892B19F08BE28D
:1003500091E0E9D082E390E080D4B3CF80E090E0F8
:10036000089581E090E06F9364E06A95F1F76F91F2
:100370000197C9F708950F931F93CF93DF9317B198
:100380003D982898299AC0E0D0E0EBDF2A9AE9DF6F
:1003900006B12A98E6DF2A9AE4DF2A98249605FF18
:1003A00010C09E0140E050E08091380190913901E9
:1003B000A0913A01B0913B01281739074A075B0722
:1003C00020F39E0140E050E0809138019091390186
:1003D000A0913A01B0913B01281739074A075B0702
:1003E00028F082E390E0A0E0B0E004C080E395E76D
:1003F000A0E0B0E08093380190933901A0933A01D6
:10040000B0933B0117B9DF91CF911F910F910895E0
:1004100028B190E08F709070880F991F880F991FF6
:10042000237C282B28B92A9A9CDF2A989ACFA2E00D
:10043000B0E0ECE1F2E0ADC5182F4A83698357D0F4
:100440009ADFF7B008B1299869814A81662311F0D3
:10045000289A01C0289887B18C6387B9413021F070
:10046000812F82958F70D4DF812F8F70D1DFF7B805
:1004700008B92296E5E0A9C560E042E0D8CF61E086
:1004800042E0D5CF60E041E0D2CF3D98459A80E38D
:1004900095E7A0E0B0E08093380190933901A093F4
:1004A0003A01B0933B01209A219A229A8EE190E082
:1004B000D4D383E0E7DF86E090E0CFD383E0E2DFD0
:1004C00082E090E0CAD383E0DDDF82E090E0C5D334
:1004D00082E0D8DF82E090E0C0D388E2CDDF88E020
:1004E000CBDF81E0C9DF86E0C7DF8CE0C5CF80913C
:1004F0003C01882321F481E080933C01C6CF08951C
:10050000EF92FF92CF93DF93E82EE7017E01F92E61
:10051000E70101C0B4DF89918823E1F7DF91CF9132
:10052000FF90EF900895ECCF0895A5E0B0E0EAE9E0
:10053000F2E031C5182F80E8898380EC8A8384E952
:100540008B8384ED8C83FE01E60FF11D8181810F89
:100550006D8392DF109337016D816093360125968C
:10056000E3E035C5E2CF0895A0E0B0E0E9EBF2E0CA
:100570000DC5D82E8091340190913501009709F472
:10058000F2C02D2D2A3009F442C02830C9F48091E0
:1005900037018150809337018F3F51F480913601AC
:1005A00081508093360180910601815080933701FC
:1005B000809136018F3F09F0D1C010923601CCC036
:1005C0008D2D5DDF809136018823B9F090E0019791
:1005D0004091060150E0849F9001859F300D949FCB
:1005E000300D112480913701E0913401F0913501F3
:1005F000E20FF31FE80FF11DD082809137018F5F6A
:100600008093370190910601891709F0ACC04091A1
:100610003601242F30E08091050190E001972817E2
:10062000390709F096C0C0E0D0E03FC080E06C2FF1
:100630007CDFCC248E010F5F1F4F32C0EC2CFF24D7
:1006400030E0C29FC001C39F900DD29F900D112436
:10065000E0913401F0913501EE0DFF1DE80FF91F17
:1006600080810DDF80913401909135012091060148
:1006700030E0C29FF001C39FF00DD29FF00D112416
:100680008E0D9F1DE80FF91F029FD001039FB00D33
:10069000129FB00D1124A80FB91F8C918083C394B1
:1006A00020910601C21650F2E80160910501862FE3
:1006B00090E00297C817D9070CF4B8CF6230D0F198
:1006C000625080E032DF00E010E230C0C02FD0E0A6
:1006D0008091050190E0029750E0849F9001859FF2
:1006E000300D949F300D1124E0913401F0913501CB
:1006F000EC0FFD1FE20FF31F8081C1DE8091050129
:1007000090E002974091060150E0849F9001859F00
:10071000300D949F300D1124E0913401F09135019A
:10072000EC0FFD1FE20FF31F10830F5F40910601D6
:10073000041760F260910501615080E0F6DE10E080
:1007400003C080E29CDE1F5F809106011817C8F38A
:1007500003C04F5F409336011092370180913701FB
:1007600060913601E2DE2D2D332727FD3095C9013A
:10077000CDB7DEB7E8E026C4809134019091350111
:10078000009709F0C8D42091050130E02150304095
:100790008091060190E0AC01249FC001259F900D3F
:1007A000349F900D11241FD4909335018093340110
:1007B000009719F1A0E0B0E208C0E0913401F09197
:1007C0003501E20FF31FB083AF5F2A2F30E0809135
:1007D000050190E001976091060170E0869FA001FD
:1007E000879F500D969F500D1124241735072CF329
:1007F00084EB92E06EEA71E01DC50895BDCF0895C7
:10080000FC011182108213821282158214821682D8
:10081000683068F489E290E0918380838BE290E015
:10082000938382838AE290E09583848323C060313E
:1008300080F483E290E09183808385E290E093836B
:10084000828384E290E09583848370E068507040F6
:1008500011C06831C0F486E290E09183808388E221
:1008600090E09383828387E290E09583848370E0B5
:100870006051704081E090E002C0880F991F6A9536
:10088000E2F7868308956032C0F480E290E09183BD
:10089000808382E290E09383828381E290E095837B
:1008A00084832FE130E0261B310981E090E002C013
:1008B000880F991F2A95E2F786830895FC01A48189
:1008C000B5818681662321F09C91982B9C93089595
:1008D0009C91809589238C930895FC016F3F31F49E
:1008E000A281B3818C91968189270CC0A281B381AA
:1008F0008681662321F09C91982B9C9308959C916E
:10090000809589238C930895A7E0B0E0E9E8F4E0AE
:1009100040C3282FF62E8E010F5F1F4FC801622F94
:100920006FDFC8016F2DD9DFC80161E0C7DF2796EF
:10093000E5E04BC383E08093B00082E08093B10098
:10094000E4EBF0E0108280818093B30087E160E007
:10095000DBDF86E160E0D8DF87E060E0D5DF86E0BE
:1009600060E0D2CF80913D01882321F481E0809323
:100970003D01E0CF0895CF93DF93EC01F3DFD7FF84
:1009800005C0D095C195DF4F91E001C090E0CF3F09
:10099000D10519F014F0CFEFD0E0C093B300209749
:1009A00031F48091B0008F778093B0000DC08091BA
:1009B000B00080688093B000992319F087E161E06E
:1009C00002C087E160E0A0DFDF91CF910895CF936F
:1009D000DF93EC01C7DFD7FF05C0D095C195DF4F8E
:1009E00091E001C090E0CF3FD10519F014F0CFEFB6
:1009F000D0E0C093B400209731F48091B0008F7D97
:100A00008093B0000DC08091B00080628093B000F0
:100A1000992319F086E161E002C086E160E074DFAD
:100A2000DF91CF910895CF93DF93EB01A4DFCE0147
:100A3000CEDFDF91CF910895F6CF089587B1837D02
:100A400087B988B18C6288B985E090E06F9364E0E3
:100A50006A95F1F76F910197C9F7089580913E016A
:100A6000882321F481E080933E01E8CF0895BF926E
:100A7000CF92DF92EF92FF920F931F93B82EC6B0E2
:100A8000DC2CD09421D17B018C01E8DF80914A01DC
:100A9000813021F1813038F0823009F445C0833053
:100AA00009F081C063C02B2D30E04D2D50E0409502
:100AB0005095242335232115310509F474C0CB202A
:100AC000C0924501E0924601F0924701009348012F
:100AD0001093490181E080934A0165C080914601ED
:100AE00090914701A0914801B0914901E81AF90A93
:100AF0000A0B1B0B8FE0E816F1040105110508F441
:100B000052C0409145018D2D90E080959095242F05
:100B100030E082239323009731F182E080934A01F1
:100B2000C422C09245013FC0409145018D2D8423D0
:100B300071F093E090934A0180934501E092460161
:100B4000F092470100934801109349012CC050E0F6
:100B50008B2D90E02D2D30E020953095822393232E
:100B60004817590701F110924A011DC080914601B2
:100B700090914701A0914801B0914901E81AF90A02
:100B80000A0B1B0B8FE0E816F1040105110558F064
:100B9000809145018D2119F010924A0105C092E023
:100BA00090934A0101C080E01F910F91FF90EF9058
:100BB000DF90CF90BF9008955ACF08956F9364E06F
:100BC0006A95F1F76F910197C9F708952F928F9366
:100BD0009F932FB680914C0190914D010196809387
:100BE0004C0190934D0190E080914E01891F8093BC
:100BF0004E01909154019C5F909354018091530158
:100C000080519742C0F0909354018093530180919A
:100C10004F0190915001019680934F0190935001A4
:100C200090E080915101891F809351018091520180
:100C3000891F809352012FBE9F918F912F901895FD
:100C4000CF93DF93EC0104C088EE93E0B7DF2197E8
:100C50002097D1F7DF91CF910895F2CF0895E0E783
:100C6000F0E080818E7F8083A0EBB0E08C91836088
:100C70008C93A1EBB0E08C91807F8C938C918260FF
:100C80008C93B89A80818160808378940895809154
:100C90005501882321F481E080935501E0CF089528
:100CA000F6DFE0E7F0E080818E7F808320914F01C6
:100CB00030915001409151015091520180818160E9
:100CC0008083B901CA010895EBCF0895A7E0B0E091
:100CD000EBE6F6E061C1682FCE01019691DD8981D6
:100CE0009A818032910531F480916B009F81892B2C
:100CF00080936B0089819A818332910531F48091D0
:100D00006C009F81892B80936C0089819A81863247
:100D1000910531F480916D009F81892B80936D0046
:100D200089819A818932910531F4809173009F8184
:100D3000892B80937300ED81FE8190818F81809556
:100D4000892380838FEF809368002796E2E040C17B
:100D5000A7E0B0E0EDEAF6E01FC1682FCE010196F2
:100D60004FDDE981FA8190818F8189232796E2E026
:100D70002FC1809157011092570190E008951F9262
:100D80000F920FB60F920BB60F921124FF920F9392
:100D90001F932F933F934F935F936F937F938F9303
:100DA0009F93AF93BF93EF93FF9380915C01D0DF4C
:100DB000F82E80915E01CCDF182F80915D01C8DF95
:100DC000082F80915F01C4DF409161016091600153
:100DD0005091630190916201F41651F020915A01F3
:100DE00030915B012F5F3F4F30935B0120935A019D
:100DF000061751F020915A0130915B01215030408B
:100E000030935B0120935A01151751F0209158013E
:100E1000309159012F5F3F4F309359012093580172
:100E2000891751F0209158013091590121503040DB
:100E30003093590120935801EF2DF0E0772767FD9B
:100E40007095E617F70759F0602F70E0552747FDBA
:100E500050956417750719F021E020935701412F31
:100E600050E0292F332727FD30954217530769F0AB
:100E7000482F50E020916301332727FD309542171A
:100E8000530719F091E090935601F092600100939E
:100E900061011093620180936301FF91EF91BF9113
:100EA000AF919F918F917F916F915F914F913F9102
:100EB0002F911F910F91FF900F900BBE0F900FBEBF
:100EC0000F901F901895A3E0B0E0E8E6F7E064C04B
:100ED00080935C0160935D0140935E0120935F010C
:100EE000F8942B834A836983F1DE6981862FEEDED5
:100EF0004A81842FEBDE2B81822FE8DE10925B018A
:100F000010925A01109259011092580110925701F3
:100F10001092560180915C011BDF809360018091EB
:100F20005D0116DF8093610180915E0111DF809386
:100F3000620180915F010CDF809363018FEF8BBBB7
:100F400078942396E2E044C0BECF0895F89480914F
:100F50005A0190915B0178940895F8CF0895F89420
:100F600080915A0190915B0110925B0110925A019D
:100F700078940895F4CF08952F923F924F925F9204
:100F80006F927F928F929F92AF92BF92CF92DF9299
:100F9000EF92FF920F931F93CF93DF93CDB7DEB7FE
:100FA000CA1BDB0B0FB6F894DEBF0FBECDBF099492
:100FB0002A88398848885F846E847D848C849B84E9
:100FC000AA84B984C884DF80EE80FD800C811B81F7
:100FD000AA81B981CE0FD11D0FB6F894DEBF0FBE26
:100FE000CDBFED010895CF93DF938230910510F4CA
:100FF00082E090E0E0916601F091670120E030E04E
:10100000A0E0B0E0309739F140815181481759078D
:10101000B8F04817590771F482819381109729F02D
:1010200013969C938E9312972CC090936701809394
:10103000660127C02115310531F04217530718F01A
:10104000A901DB0101C0EF019A01BD01DF010280AE
:10105000F381E02DD7CF21153105F9F0281B390B8D
:101060002430310580F48A819B816115710521F05E
:10107000FB019383828304C0909367018093660190
:10108000FE01329644C0FE01E20FF31F819391935B
:1010900022503109398328833AC02091640130916C
:1010A0006501232B41F42091090130910A0130930D
:1010B00065012093640120910701309108012115F9
:1010C000310541F42DB73EB740910B0150910C0111
:1010D000241B350BE0916401F0916501E217F307E1
:1010E000A0F42E1B3F0B2817390778F0AC014E5F98
:1010F0005F4F2417350748F04E0F5F1F509365016F
:10110000409364018193919302C0E0E0F0E0CF014D
:10111000DF91CF910895CF93DF93009709F487C0B3
:10112000FC01329713821282C0916601D09167014F
:10113000209781F420813181280F391F809164012B
:10114000909165018217930779F5F0936501E0931B
:1011500064016DC0DE0120E030E0AE17BF0750F43F
:1011600012964D915C9113979D014115510509F11E
:10117000DA01F3CFB383A28340815181840F951F9D
:101180008A179B0771F48D919C911197840F951F7D
:1011900002969183808312968D919C9113979383ED
:1011A00082832115310529F4F0936701E0936601EC
:1011B0003EC0D9011396FC93EE9312974D915D9129
:1011C000A40FB51FEA17FB0779F480819181840F82
:1011D000951F0296D90111969C938E9382819381DB
:1011E00013969C938E931297E0E0F0E08A819B81A6
:1011F000009719F0FE01EC01F9CFCE01029628818B
:101200003981820F931F2091640130916501281765
:10121000390769F4309729F410926701109266013A
:1012200002C013821282D0936501C0936401DF91E2
:10123000CF9108950F931F93CF93DF93EC018B0110
:10124000009731F46115710519F480E090E037C022
:101250006EE070E081E090E036D2FC010097A9F3E7
:1012600080E883830115110571F01387028781E8F7
:1012700083838091680190916901892B21F4F09317
:101280006901E09368012097C9F0D187C087838105
:101290008260838380916A0190916B01892B71F444
:1012A000F0936B01E0936A0180916C0190916D0164
:1012B000892B21F4F0936D01E0936C01CF01DF9154
:1012C000CF911F910F910895CF93DF93CDB7DEB7E4
:1012D000FE01359661917191AF0180916A01909103
:1012E0006B0103D0DF91CF9108952F923F924F92DF
:1012F0005F926F927F928F929F92AF92BF92CF92A6
:10130000DF92EF92FF920F931F93CF93DF93CDB7AE
:10131000DEB72C970FB6F894DEBF0FBECDBF7C01B1
:101320006B018A01FC0117821682838181FFB0C1A3
:10133000CE0101964C01F7019381F60193FD859151
:1013400093FF81916F01882309F49EC1853239F49E
:1013500093FD859193FF81916F01853221F4B7014F
:1013600090E0E8D1E8CF512C312C20E02032A0F4DD
:101370008B3269F030F4803259F0833269F42061A5
:101380002CC08D3239F0803339F4216026C02260C0
:10139000246023C0286021C027FD27C030ED380F0E
:1013A0003A3078F426FF06C0FAE05F9E300D112433
:1013B000532E13C08AE0389E300D1124332E206244
:1013C0000CC08E3221F426FD5FC1206406C08C362D
:1013D00011F4206802C0883641F4F60193FD85912E
:1013E00093FF81916F018111C1CF982F9F7D9554FB
:1013F000933028F40C5F1F4FFFE3F9830DC0833651
:1014000031F0833771F0833509F057C021C0F801FE
:10141000808189830E5F1F4F44244394512C5401D3
:1014200014C03801F2E06F0E711CF801A080B18089
:1014300026FF03C0652D70E002C06FEF7FEFC5018E
:101440002C876DD12C0183012C852F77222E16C07D
:101450003801F2E06F0E711CF801A080B18026FF08
:1014600003C0652D70E002C06FEF7FEFC5012C87D0
:1014700044D12C012C852068222E830123FC19C025
:10148000832D90E048165906A0F4B70180E290E061
:1014900051D13A94F5CFF50127FC859127FE819132
:1014A0005F01B70190E046D131103A94F1E04F1A54
:1014B00051084114510479F7DEC0843611F08936A1
:1014C00031F5F80127FF07C0608171818281938126
:1014D0000C5F1F4F08C060817181882777FD809560
:1014E000982F0E5F1F4F2F76B22E97FF09C0909551
:1014F0008095709561957F4F8F4F9F4F2068B22EDA
:101500002AE030E0A40148D1A82EA81843C08537AE
:1015100029F42F7EB22E2AE030E025C0F22FF97F89
:10152000BF2E8F36C1F018F4883579F0ADC0803702
:1015300019F0883721F0A8C02F2F2061B22EB4FEF9
:101540000DC08B2D8460B82E09C024FF0AC09F2FC8
:101550009660B92E06C028E030E005C020E130E0FA
:1015600002C020E132E0F801B7FE07C0608171815E
:10157000828193810C5F1F4F06C06081718180E082
:1015800090E00E5F1F4FA40107D1A82EA818FB2DD5
:10159000FF77BF2EB6FE0BC02B2D2E7FA51450F467
:1015A000B4FE0AC0B2FC08C02B2D2E7E05C07A2CDA
:1015B0002B2D03C07A2C01C0752C24FF0DC0FE0119
:1015C000EA0DF11D8081803311F4297E09C022FFCC
:1015D00006C07394739404C0822F867809F07394C4
:1015E00023FD12C020FF06C05A2C731418F4530CAC
:1015F0005718732C731460F4B70180E290E02C87C5
:1016000099D073942C85F6CF731410F4371801C059
:10161000312C24FF11C0B70180E390E02C878AD0E1
:101620002C8522FF16C021FF03C088E590E002C090
:1016300088E790E0B7010CC0822F867851F021FD39
:1016400002C080E201C08BE227FD8DE2B70190E08D
:1016500071D0A51430F4B70180E390E06BD05A94B8
:10166000F8CFAA94F401EA0DF11D8081B70190E052
:1016700061D0A110F6CF332009F45DCEB70180E22E
:1016800090E058D03A94F7CFF7018681978102C055
:101690008FEF9FEF2C960FB6F894DEBF0FBECDBF35
:1016A000DF91CF911F910F91FF90EF90DF90CF903E
:1016B000BF90AF909F908F907F906F905F904F9072
:1016C0003F902F9008950F931F93CF93DF93869FA2
:1016D0008001879F100D969F100D1124C80183DC97
:1016E000EC01009721F0A80160E070E011D0CE017C
:1016F000DF91CF911F910F910895FC0105906150EA
:1017000070400110D8F7809590958E0F9F1F089517
:10171000DC0101C06D9341505040E0F70895FC0199
:101720006150704001900110D8F7809590958E0F10
:101730009F1F08950F931F93CF93DF93182F092FA7
:10174000EB018B8181FD03C08FEF9FEF20C082FFF3
:1017500010C04E815F812C813D81421753077CF47C
:10176000E881F9819F012F5F3F4F398328831083E0
:1017700006C0E885F985812F0995892B29F72E81E7
:101780003F812F5F3F4F3F832E83812F902FDF912B
:10179000CF911F910F910895FA01AA27283051F196
:1017A000203181F1E8946F936E7F6E5F7F4F8F4F92
:1017B0009F4FAF4FB1E03ED0B4E03CD0670F781FF1
:1017C000891F9A1FA11D680F791F8A1F911DA11DD6
:1017D0006A0F711D811D911DA11D20D009F468940F
:1017E0003F912AE0269F11243019305D3193DEF6B7
:1017F000CF010895462F4770405D4193B3E00FD06D
:10180000C9F7F6CF462F4F70405D4A3318F0495D57
:1018100031FD4052419302D0A9F7EACFB4E0A6953A
:101820009795879577956795BA95C9F7009761055C
:10183000710508959B01AC010A2E069457954795B2
:1018400037952795BA95C9F7620F731F841F951FA7
:08185000A01D0895F894FFCFDC
:10185800010A000100021000006E012000252D3150
:101868003064004572726F72203100535045454410
:101878003A252D3364004241434B0046574420002B
:00000001FF
