:1000000045C0000060C000005EC000005CC0000091
:100010005AC0000058C0000056C0000054C0000084
:1000200052C0000050C000004EC00000EFC20000EF
:100030004AC0000048C0000046C0000044C00000A4
:1000400042C0000040C000003EC000003CC00000B4
:100050003AC0000038C0000036C0000034C00000C4
:1000600032C0000030C000002EC000002CC00000D4
:100070002AC0000028C0000026C0000024C00000E4
:1000800022C0000020C000001EC0000011241FBEBE
:10009000CFEFD0E4DEBFCDBF11E0A0E0B1E0EEE7EE
:1000A000F7E000E00BBF02C007900D92AA33B10742
:1000B000D9F721E0AAE3B1E001C01D92AB35B20748
:1000C000E1F759D05AC39CCF883058F491E001C071
:1000D000990F8A95EAF7892FAAE2B0E0EBE2F0E007
:1000E00031C0803160F498EF980F81E001C0880F33
:1000F0009A95EAF7A4E2B0E0E5E2F0E023C08831A7
:1001000060F490EF980F81E001C0880F9A95EAF7AC
:10011000A7E2B0E0E8E2F0E015C0803270F42FE131
:1001200030E0281B310981E001C0880F2A95EAF7E9
:10013000A1E2B0E0E2E2F0E005C080E0A0E0B0E0E3
:10014000E0E0F0E06F3F19F49081982709C0662342
:1001500019F09081982B04C02081982F90959223BC
:1001600090839C91982B9C930895809100018F5FC0
:10017000809300010895A0E0B0E0E0ECF0E0D0C290
:1001800047D100E010E0C0E0D0E0E12CF12CC12C20
:10019000D12C61E080E0C114D10461F06DD189E01F
:1001A00091E04BD1CD2B51F460E081E08DDFC1E0D7
:1001B000D0E009C061D184E191E03FD161E081E00C
:1001C00083DFC0E0D0E060E080E0E114F10461F0A2
:1001D00053D18FE191E031D1012B51F461E084E101
:1001E00073DF01E010E009C047D18CE291E025D136
:1001F00060E084E169DF00E010E08CE2FDD1843052
:1002000019F0803221F0C5CF81E0C826C2CF81E04D
:10021000EF2809F080E0E82EF12CBBCF81E090E0E0
:100220006F9364E06A95F1F76F910197C9F70895AC
:100230000F931F93CF93DF9317B13D982898299A76
:10024000C0E0D0E0EBDF2A9AE9DF06B12A98E6DFCA
:100250002A9AE4DF2A98249605FF10C09E0140E008
:1002600050E080913E0190913F01A0914001B091FA
:100270004101281739074A075B0720F39E0140E038
:1002800050E080913E0190913F01A0914001B091DA
:100290004101281739074A075B0728F082E390E0FD
:1002A000A0E0B0E004C080E395E7A0E0B0E0809378
:1002B0003E0190933F01A0934001B093410117B9D3
:1002C000DF91CF911F910F91089528B190E08F7029
:1002D0009070880F991F880F991F237C282B28B9AD
:1002E0002A9A9CDF2A989ACFA2E0B0E0E9E7F1E0F1
:1002F0001AC2182F4A83698357D09ADFF7B008B122
:10030000299869814A81662311F0289A01C02898AA
:1003100087B18C6387B9413021F0812F82958F702E
:10032000D4DF812F8F70D1DFF7B808B92296E5E0CE
:1003300016C260E042E0D8CF61E042E0D5CF60E095
:1003400041E0D2CF3D98459A80E395E7A0E0B0E048
:1003500080933E0190933F01A0934001B0934101EF
:10036000209A219A229A8EE190E097D183E0E7DFEC
:1003700086E090E092D183E0E2DF82E090E08DD1F0
:1003800083E0DDDF82E090E088D182E0D8DF82E0A8
:1003900090E083D188E2CDDF88E0CBDF81E0C9DF68
:1003A00086E0C7DF8CE0C5CF80914201882321F42D
:1003B00081E080934201C6CF089581E0BADF809149
:1003C0003A0190913B01009711F1A0E0B0E208C022
:1003D000E0913A01F0913B01E20FF31FB083AF5F70
:1003E0002A2F30E08091010190E001976091020195
:1003F00070E0869FA001879F500D969F500D11249D
:10040000241735072CF310923D0110923C010895FA
:10041000D4CF0895EF92FF92CF93DF93E82EE701B8
:100420007E01F92EE70101C087DF89918823E1F77A
:10043000DF91CF91FF90EF900895ECCF0895A5E064
:10044000B0E0E4E2F2E071C1182F80E8898380EC2B
:100450008A8384E98B8384ED8C83FE01E60FF11D92
:100460008181810F6D8365DF10933D016D81609304
:100470003C012596E3E075C1E2CF089587B1837D05
:1004800087B988B18C6288B985E090E06F9364E0A9
:100490006A95F1F76F910197C9F70895809143012B
:1004A000882321F481E080934301E8CF0895BF922F
:1004B000CF92DF92EF92FF920F931F93B82EC6B0A8
:1004C000DC2CD09421D17B018C01E8DF80914F019D
:1004D000813021F1813038F0823009F445C0833019
:1004E00009F081C063C02B2D30E04D2D50E04095C8
:1004F0005095242335232115310509F474C0CB20F0
:10050000C0924A01E0924B01F0924C0100934D01E0
:1005100010934E0181E080934F0165C080914B01A3
:1005200090914C01A0914D01B0914E01E81AF90A49
:100530000A0B1B0B8FE0E816F1040105110508F406
:1005400052C040914A018D2D90E080959095242FC6
:1005500030E082239323009731F182E080934F01B2
:10056000C422C0924A013FC040914A018D2D84238C
:1005700071F093E090934F0180934A01E0924B0118
:10058000F0924C0100934D0110934E012CC050E0AD
:100590008B2D90E02D2D30E02095309582239323F4
:1005A0004817590701F110924F011DC080914B016E
:1005B00090914C01A0914D01B0914E01E81AF90AB9
:1005C0000A0B1B0B8FE0E816F1040105110558F02A
:1005D00080914A018D2119F010924F0105C092E0DF
:1005E00090934F0101C080E01F910F91FF90EF9019
:1005F000DF90CF90BF9008955ACF08956F9364E035
:100600006A95F1F76F910197C9F708952F928F932B
:100610009F932FB680915101909152010196809342
:1006200051019093520190E080915301891F809372
:100630005301909159019C5F909359018091580109
:1006400080519742C0F09093590180935801809156
:100650005401909155010196809354019093550156
:1006600090E080915601891F809356018091570137
:10067000891F809357012FBE9F918F912F901895BE
:10068000CF93DF93EC0104C088EE93E0B7DF2197AE
:100690002097D1F7DF91CF910895F2CF0895E0E749
:1006A000F0E080818E7F8083A0EBB0E08C9183604E
:1006B0008C93A1EBB0E08C91807F8C938C918260C5
:1006C0008C93B89A8081816080837894089580911A
:1006D0005A01882321F481E080935A01E0CF0895E4
:1006E000F6DFE0E7F0E080818E7F80832091540187
:1006F00030915501409156015091570180818160A0
:100700008083B901CA010895EBCF08952F923F92DB
:100710004F925F926F927F928F929F92AF92BF9211
:10072000CF92DF92EF92FF920F931F93CF93DF93BD
:10073000CDB7DEB7CA1BDB0B0FB6F894DEBF0FBE1A
:10074000CDBF09942A88398848885F846E847D8467
:100750008C849B84AA84B984C884DF80EE80FD8069
:100760000C811B81AA81B981CE0FD11D0FB6F894DF
:0E077000DEBF0FBECDBFED010895F894FFCFA0
:10077E0001021000005B012000526564202D3E2016
:10078E004F4E2000526564202D3E204F46460047B6
:10079E007265656E202D3E204F4E200047726565B6
:0A07AE006E202D3E204F464600004D
:00000001FF
