:1000000045C0000060C000005EC000005CC0000091
:100010005AC0000058C0000056C0000054C0000084
:1000200052C0000050C000004EC0000078C1000067
:100030004AC0000048C0000046C0000044C00000A4
:1000400042C0000040C000003EC000003CC00000B4
:100050003AC0000038C0000036C0000034C00000C4
:1000600032C0000030C000002EC000002CC00000D4
:100070002AC0000028C0000026C0000024C00000E4
:1000800022C0000020C000001EC0000011241FBEBE
:10009000CFEFD0E4DEBFCDBF11E0A0E0B1E0E2E2FF
:1000A000F4E000E00BBF02C007900D92AA30B10748
:1000B000D9F721E0AAE0B1E001C01D92AE31B2074C
:1000C000E1F702D0ACC19CCF559A5D9A84E690E0EE
:1000D0006DD15D9810928000109281001092850081
:1000E0001092840080EA96E89093870080938600BF
:1000F00080918600909187009695879590938900CE
:100100008093880080918000826880938000809135
:1001100081008D6180938100F8D0FECF81E090E076
:100120006F9364E06A95F1F76F910197C9F70895AD
:100130000F931F93CF93DF9317B13D982898299A77
:10014000C0E0D0E0EBDF2A9AE9DF06B12A98E6DFCB
:100150002A9AE4DF2A98249605FF10C09E0140E009
:1001600050E080910E0190910F01A0911001B0918B
:100170001101281739074A075B0720F39E0140E069
:1001800050E080910E0190910F01A0911001B0916B
:100190001101281739074A075B0728F082E390E02E
:1001A000A0E0B0E004C080E395E7A0E0B0E0809379
:1001B0000E0190930F01A0931001B093110117B994
:1001C000DF91CF911F910F91089528B190E08F702A
:1001D0009070880F991F880F991F237C282B28B9AE
:1001E0002A9A9CDF2A989ACFA2E0B0E0E9EFF0E0EB
:1001F000ECC0182F4A83698354D09ADFF7B008B156
:10020000299869814A81662311F0289A01C02898AB
:1002100087B18C6387B9413021F0812F82958F702F
:10022000D4DF812F8F70D1DFF7B808B92296E5E0CF
:10023000E8C060E042E0D8CF60E041E0D5CF3D9833
:10024000459A80E395E7A0E0B0E080930E0190939B
:100250000F01A0931001B0931101209A219A229AC4
:100260008EE190E0A3D083E0E7DF86E090E09ED0CF
:1002700083E0E2DF82E090E099D083E0DDDF82E09E
:1002800090E094D082E0D8DF82E090E08FD088E2E6
:10029000D0DF88E0CEDF81E0CCDF86E0CADF8CE013
:1002A000C8CF80911201882321F481E0809312014C
:1002B000C6CF089581E0BDDF80910A0190910B01C6
:1002C000009711F1A0E0B0E208C0E0910A01F091BE
:1002D0000B01E20FF31FB083AF5F2A2F30E0809154
:1002E000010190E001976091020170E0869FA001FA
:1002F000879F500D969F500D1124241735072CF31E
:1003000010920D0110920C010895D4CF08956F93AF
:1003100064E06A95F1F76F910197C9F708952F92FC
:100320008F939F932FB680911401909115010196A0
:10033000809314019093150190E080911601891F1C
:100340008093160190911C019C5F90931C018091F9
:100350001B0180519742C0F090931C0180931B01B8
:100360008091170190911801019680931701909345
:10037000180190E080911901891F809319018091E3
:100380001A01891F80931A012FBE9F918F912F9080
:100390001895CF93DF93EC0104C088EE93E0B7DFAC
:1003A00021972097D1F7DF91CF910895F2CF08954B
:1003B0002F923F924F925F926F927F928F929F9275
:1003C000AF92BF92CF92DF92EF92FF920F931F9363
:1003D000CF93DF93CDB7DEB7CA1BDB0B0FB6F89414
:1003E000DEBF0FBECDBF09942A88398848885F8454
:1003F0006E847D848C849B84AA84B984C884DF80C5
:10040000EE80FD800C811B81AA81B981CE0FD11DA8
:100410000FB6F894DEBF0FBECDBFED010895F8947E
:02042000FFCF0C
:0A04220001021000001E012000007E
:00000001FF
