:10000000C6C00000E1C0000039C10000DDC0000032
:10001000DBC00000D9C00000D7C00000D5C0000080
:10002000D3C00000D1C00000CFC00000CDC0000090
:10003000CBC00000C9C00000C7C000008AC10000DA
:1000400074C10000C1C00000BFC00000BDC00000FE
:10005000BBC00000B9C00000B7C00000B5C00000C0
:10006000B3C00000B1C00000AFC00000ADC00000D0
:10007000ABC00000A9C00000A7C00000A5C00000E0
:10008000A3C00000A1C000009FC000006E616E0010
:10009000696E660000407A10F35A00A0724E18098B
:1000A0000010A5D4E80000E87648170000E40B54DF
:1000B000020000CA9A3B000000E1F50500008096AE
:1000C0009800000040420F000000A08601000000E0
:1000D000102700000000E80300000000640000009A
:1000E00000000A00000000000100000000002C7663
:1000F000D888DC674F0823DFC1DFAE59E1B1B7967E
:10010000E5E3E453C63AE651997696E8E6C28426DA
:10011000EB898C9B62ED407C6FFCEFBC9C9F40F2B6
:10012000BAA56FA5F490055A2AF75C936B6CF96732
:100130006DC11BFCE0E40D47FEF520E6B500D0EDF7
:10014000902E0300943577050080841E080000205F
:100150004E0A000000C80C333333330F986E1283FD
:100160001141EF8D2114893BE65516CFFEE6DB18D1
:10017000D1844B381BF77C1D901DA4BBE424203296
:1001800084725E228100C9F124ECA1E53D2711248F
:100190001FBECFEFD0E4DEBFCDBF11E0A0E0B1E0E5
:1001A000EEEFFEE000E00BBF02C007900D92A6311B
:1001B000B107D9F721E0A6E1B1E001C01D92A43555
:1001C000B207E1F7D0D099C61BCF5A98529AF8944B
:1001D0006150710908F427C0FC010190008007D02C
:1001E000029005D001900190019001D01AC007D073
:1001F00006D005D004D003D002D001D000C05A9A56
:10020000001C000000000000000008F05A980000E8
:1002100000000000000000000000000008F45A98F0
:100220000895CF01D5CF789489EF90E00197F1F749
:1002300000C00000089580E091E00895F89414BC97
:1002400015BC82E884BD82E085BD80936E0010926B
:10025000800080938100109285001092840081E0DC
:1002600080936F00E9988CE080936900E19AE99AA5
:100270001092170110921601789408951F920F9210
:100280000FB60F9211240BB60F922F933F934F93FB
:100290005F936F937F938F939F93AF93BF93CF930E
:1002A000DF93EF93FF9381E090E090931B018093A5
:1002B0001A012FB7F8948091840090918500909353
:1002C00017018093160110928500109284002FBFB1
:1002D000789416BCC0911601D0911701BE018827F1
:1002E00077FD8095982F05D420E030E44CE956E462
:1002F000FAD387FD05C0CE016FEF70E059D467BD1A
:10030000FF91EF91DF91CF91BF91AF919F918F912D
:100310007F916F915F914F913F912F910F900BBE05
:100320000F900FBE0F901F9018951F920F920FB64F
:100330000F9211248F939F9381E090E090931D0181
:1003400080931C019F918F910F900FBE0F901F9073
:1003500018951F920F920FB60F9211240F900FBE97
:100360000F901F9018952FEF30E080911A01909117
:100370001B01892B21F010921B0110921A01809110
:100380001C0190911D01892B81F3CEE1D1E0809178
:10039000180190911901FC01EE0FFF1FE80FF91FE2
:1003A000E050FF4F80819181A28189939993A99315
:1003B00081E0C435D80759F780911801909119014F
:1003C0000196B901F5D39093190180931801109209
:1003D0001D0110921C01C9CF2F923F924F925F9244
:1003E0006F927F928F929F92AF92BF92CF92DF9245
:1003F000EF92FF920F931F93CF93DF93CDB7DEB7AA
:1004000063970FB6F894DEBF0FBECDBF7C011B0112
:100410006A01FC0117821682838181FF49C3BE01F4
:100420006F5F7F4F4B01F7019381F10193FD859140
:1004300093FF81911F01882309F436C3853239F473
:1004400093FD859193FF81911F01853231F4B701AE
:1004500090E0C3D456016501E6CF10E0512C20E0B6
:100460002032A0F48B3269F030F4803259F08332BC
:1004700069F420612CC08D3239F0803339F4216069
:1004800026C02260246023C0286021C027FD27C029
:1004900030ED380F3A3078F426FF06C0FAE01F9F9F
:1004A000300D1124132F13C06AE0569E300D112415
:1004B000532E20620CC08E3221F426FDF5C220643A
:1004C00006C08C3611F4206802C0883641F4F10170
:1004D00093FD859193FF81911F018111C1CF9BEB0A
:1004E000980F933018F42061805E06C09BE9980F46
:1004F000933008F09AC12F7E26FF16E02F73722EDC
:10050000853621F4F22FF0647F2E08C0863621F460
:10051000622F6068762E02C01111115077FE07C05D
:100520001C3348F444244394410E27E00BC0183098
:1005300030F4212F06C027E04CE3442E03C027E00F
:1005400017E0412C560174E0A70EB11CF601608142
:10055000718182819381042DA40151D36C010981A1
:1005600000FF02C003FF06C071FC07C072FC08C098
:10057000612C08C03DE2632E05C02BE2622E02C052
:1005800090E2692E802F8C7081F1662011F084E05A
:1005900001C083E0851510F0512C0AC0581A73FC75
:1005A00007C0B70180E290E018D45A94D1F7F4CF95
:1005B000662021F0B701862D90E00FD403FD03C023
:1005C00000E910E002C00CE810E0F72DF0717F2E7A
:1005D000F8018491882309F45EC271108052B7013A
:1005E00090E0FBD30F5F1F4FF3CF77FE0FC04C0C93
:1005F00004FF04C08A81813309F44A94141474F509
:10060000F8E0F41578F588E0482E2CC076FC2AC076
:10061000812F90E08C159D059CF06CEFC6166FEF56
:10062000D60674F0772D7068772E0AC0E2E0F0E00D
:10063000EC0FFD1FE10FF11D8081803319F4115083
:100640001111F4CF77FE0EC044244394410E812F44
:1006500090E0C816D9062CF41C1904C04424439415
:1006600001C010E077FE07C01C141D043CF4960185
:100670002F5F3F4F05C025E030E002C021E030E0B1
:10068000662011F02F5F3F4F112331F0412F50E0D2
:100690004F5F5F4F240F351F452D50E0241735075E
:1006A00014F4521A01C0512C872D897041F4552041
:1006B00031F0B70180E290E090D35A94F8CF6620F1
:1006C00021F0B701862D90E088D373FC08C0552037
:1006D00031F0B70180E390E080D35A94F8CF77FEF1
:1006E0005DC09C2D8D2DD7FE02C090E080E0692E6C
:1006F000782E40E050E0C601841991099D878C87CF
:10070000960126193709280D391D812F90E0EE2713
:10071000FF27E81BF90BFF87EE87FFEF6F167F06B9
:1007200061F4B7018EE290E02B8B3A8B488B598BAA
:1007300054D3598948893A892B89C614D70454F06F
:100740006C857D85661577052CF4F901E40FF51F9E
:10075000818101C080E371E0671A71084F5F5F4FCC
:10076000EE85FF856E167F0664F0B70190E02B8B57
:100770003A8B488B598B31D32B893A8948895989CF
:10078000CCCF6C147D0439F49A81963318F49533E8
:1007900011F404FF81E3B70190E045C08A81813301
:1007A00009F00F7EB70190E018D3111105C074FE57
:1007B00016C085E490E015C0B7018EE290E00DD33D
:1007C00082E066246394680EF401E80FF11D8081D5
:1007D000B70190E002D3115051F3862DF2CF85E698
:1007E00090E0B701FAD2D7FC05C0C114D10439F4A6
:1007F00004FF05C0D194C194D1088DE201C08BE201
:10080000B70190E0EAD280E36AE0C616D1042CF08A
:100810008F5FFAE0CF1AD108F7CFB70190E0DDD2B1
:10082000B701C601C096D9D236C1833631F08337BD
:1008300079F0833509F054C020C0560172E0A70E4C
:10084000B11CF6018081898301E010E0640113C0CE
:100850005601F2E0AF0EB11CF601C080D18026FF38
:1008600003C0612F70E002C06FEF7FEFC6012B8BDA
:10087000A9D28C012B892F7714C05601F2E0AF0E5C
:10088000B11CF601C080D18026FF03C0612F70E04B
:1008900002C06FEF7FEFC6012B8B89D28C012B89B1
:1008A0002068722E23FD18C0852D90E008171907C7
:1008B00098F4B70180E290E090D25A94F5CFF60117
:1008C00077FC859177FE81916F01B70190E085D229
:1008D00051105A94015011090115110581F7DBC01F
:1008E000843611F0893649F5560127FF09C0F4E036
:1008F000AF0EB11CF60160817181828193810AC0C3
:10090000F2E0AF0EB11CF60160817181882777FD9E
:100910008095982F022F0F7697FF08C090958095AD
:10092000709561957F4F8F4F9F4F00682AE030E0B0
:10093000A40185D2C82EC8183DC0022F853721F4E6
:100940000F7E2AE030E01DC0097F8F3691F018F449
:10095000883559F0A9C0803719F0883711F0A4C044
:10096000006104FF09C0046007C024FF08C00660DE
:1009700006C028E030E005C020E130E002C020E100
:1009800032E0560107FF09C0F4E0AF0EB11CF601DA
:10099000608171818281938108C0F2E0AF0EB11C49
:1009A000F6016081718180E090E0A40148D2C82EF8
:1009B000C8180F7706FF0BC0202F2E7FC11650F4EA
:1009C00004FF0AC002FD08C0202F2E7E05C0DC2CCB
:1009D000202F03C0DC2C01C0D12E24FF0DC0FE014E
:1009E000EC0DF11D8081803311F4297E09C022FFB6
:1009F00006C0D394D39404C0822F867809F0D39490
:100A000023FD12C020FF06C01C2DD51418F4150DAF
:100A10001D19D52CD51460F4B70180E290E02B8B22
:100A2000DCD1D3942B89F6CFD51410F45D1801C016
:100A3000512C24FF11C0B70180E390E02B8BCDD166
:100A40002B8922FF16C021FF03C088E590E002C079
:100A500088E790E0B7010CC0822F867851F021FD25
:100A600002C080E201C08BE227FD8DE2B70190E079
:100A7000B4D1C11630F4B70180E390E0AED111508B
:100A8000F8CFCA94F401EC0DF11D8081B70190E01C
:100A9000A4D1C110F6CF552009F4DDCCB70180E216
:100AA00090E09BD15A94F7CFF7018681978102C0DD
:100AB0008FEF9FEF63960FB6F894DEBF0FBECDBFEA
:100AC000DF91CF911F910F91FF90EF90DF90CF902A
:100AD000BF90AF909F908F907F906F905F904F905E
:100AE0003F902F90089540D008F481E00895E89455
:100AF00009C097FB3EF490958095709561957F4F66
:100B00008F4F9F4F9923A9F0F92F96E9BB27939513
:100B1000F695879577956795B795F111F8CFFAF423
:100B2000BB0F11F460FF1BC06F5F7F4F8F4F9F4F54
:100B300016C0882311F096E911C0772321F09EE8B2
:100B4000872F762F05C0662371F096E8862F70E018
:100B500060E02AF09A95660F771F881FDAF7880FF2
:100B60009695879597F90895990F0008550FAA0B48
:100B7000E0E8FEEF16161706E807F907C0F01216B0
:100B80001306E407F50798F0621B730B840B950BB3
:100B900039F40A2661F0232B242B252B21F4089508
:100BA0000A2609F4A140A6958FEF811D811D0895A5
:100BB00097FB072E16F4009406D077FD08D00BD0D3
:100BC00007FC05D03EF4909581959F4F0895709550
:100BD00061957F4F0895AA1BBB1B51E107C0AA1F57
:100BE000BB1FA617B70710F0A61BB70B881F991FCE
:100BF0005A95A9F780959095BC01CD0108952830AC
:100C000008F027E03327DA01990F311D87FD916045
:100C100000966105710539F432602E5F3D9330E333
:100C20002A95E1F708959F3F30F0803871056105FE
:100C300009F03C5F3C5F3D93913008F08068911D66
:100C4000DF93CF931F930F93FF92EF92192F987F0B
:100C50009695E92F96959695E90FFF27E251FF4F5C
:100C600099273327EE24FF24A701E7010590089474
:100C7000079428F4360FE71EF81E491F511D660F12
:100C8000771F881F991F0694A1F70590079428F4F1
:100C9000E70EF81E491F561FC11D770F881F991FA9
:100CA000661F0694A1F70590079428F4F80E491FD3
:100CB000561FC71FD11D880F991F661F771F0694E7
:100CC000A1F70590079420F4490F561FC71FD81F9E
:100CD000990F661F771F881F0694A9F784911095B6
:100CE000177041F0D695C79557954795F794E794B7
:100CF0001A95C1F7E4E9F0E06894159015913591E3
:100D00006591959105907FE27395E118F10A430B87
:100D1000560BC90BD009C0F7E10CF11E431F561F3B
:100D2000C91FD01D7EF4703311F48A95E6CFE89484
:100D3000015030F0080F0AF40027021708F4202FA2
:100D40002395022F7A3328F079E37D932A95E9F7EA
:100D500010C07D932A9589F60694979567953795E7
:100D600017951794E118F10A430B560BC90BD009DC
:100D700098F023957E9173957A3308F070E37C9315
:100D80002013B8F77E9170617D9330F0839571E305
:100D90007D9370E32A95E1F71124EF90FF900F9176
:100DA0001F91CF91DF91992787FD90950895FC01C0
:100DB0000590615070400110D8F7809590958E0F86
:100DC0009F1F0895FC016150704001900110D8F7F9
:100DD000809590958E0F9F1F08950F931F93CF932B
:100DE000DF93182F092FEB018B8181FD03C08FEF5B
:100DF0009FEF20C082FF10C04E815F812C813D811A
:100E0000421753077CF4E881F9819F012F5F3F4F20
:100E100039832883108306C0E885F985812F0995D9
:100E2000892B29F72E813F812F5F3F4F3F832E83F0
:100E3000812F902FDF91CF911F910F910895FA018B
:100E4000AA27283051F1203181F1E8946F936E7F09
:100E50006E5F7F4F8F4F9F4FAF4FB1E03ED0B4E0FA
:100E60003CD0670F781F891F9A1FA11D680F791F3B
:100E70008A1F911DA11D6A0F711D811D911DA11D4C
:100E800020D009F468943F912AE0269F112430195C
:100E9000305D3193DEF6CF010895462F4770405DF7
:100EA0004193B3E00FD0C9F7F6CF462F4F70405DA6
:100EB0004A3318F0495D31FD4052419302D0A9F701
:100EC000EACFB4E0A6959795879577956795BA95FB
:100ED000C9F700976105710508959B01AC010A2EC1
:100EE00006945795479537952795BA95C9F7620F98
:0E0EF000731F841F951FA01D0895F894FFCF57
:100EFE00FF0000FF8900FFFF0000FF000000FFFF62
:060F0E0000FFA200FF003D
:00000001FF
