:10000000C6C00000E2C0000043C10000DEC0000026
:10001000DCC00000DAC00000D8C00000D6C000007C
:10002000D4C00000D2C00000D0C000003DC4000019
:10003000CCC00000CAC00000C8C000007CC10000E5
:1000400066C10000C2C00000C0C00000BEC0000009
:10005000BCC00000BAC00000B8C00000B6C00000BC
:10006000B4C00000B2C00000B0C00000AEC00000CC
:10007000ACC00000AAC00000A8C00000A6C00000DC
:10008000A4C00000A2C00000A0C000006E616E000D
:10009000696E660000407A10F35A00A0724E18098B
:1000A0000010A5D4E80000E87648170000E40B54DF
:1000B000020000CA9A3B000000E1F50500008096AE
:1000C0009800000040420F000000A08601000000E0
:1000D000102700000000E80300000000640000009A
:1000E00000000A00000000000100000000002C7663
:1000F000D888DC674F0823DFC1DFAE59E1B1B7967E
:10010000E5E3E453C63AE651997696E8E6C28426DA
:10011000EB898C9B62ED407C6FFCEFBC9C9F40F2B6
:10012000BAA56FA5F490055A2AF75C936B6CF96732
:100130006DC11BFCE0E40D47FEF520E6B500D0EDF7
:10014000902E0300943577050080841E080000205F
:100150004E0A000000C80C333333330F986E1283FD
:100160001141EF8D2114893BE65516CFFEE6DB18D1
:10017000D1844B381BF77C1D901DA4BBE424203296
:1001800084725E228100C9F124ECA1E53D2711248F
:100190001FBECFEFD0E4DEBFCDBF11E0A0E0B1E0E5
:1001A000E8E2F7E100E00BBF02C007900D92AE312C
:1001B000B107D9F721E0AEE1B1E001C01D92AA3745
:1001C000B207E1F7C2D00C94920B1ACF80911501BF
:1001D0008F5F8093150108955A98529AF894615050
:1001E000710908F427C0FC010190008007D002903B
:1001F00005D001900190019001D01AC007D006D01F
:1002000005D004D003D002D001D000C05A9A001CFF
:10021000000000000000000008F05A9800000000F4
:100220000000000000000000000008F45A98089543
:10023000CF01D5CF789489EF90E00197F1F700C016
:100240000000089580E091E00895F89453985B9A37
:1002500014BC15BC82E884BD82E085BD80936E002D
:10026000109280008093810010928500109284008B
:1002700081E080936F00E998E9E6F0E080818C608E
:100280008083E99A10921F0110921E0178940895BC
:100290001F920F920FB60F9211240BB60F922F934D
:1002A0005F936F937F938F939F93AF93BF93EF93DE
:1002B000FF9381E090E090932301809322012FB778
:1002C000F894E4E8F0E08081918190931F0180939D
:1002D0001E01118210822FBF789416BC80911E01DE
:1002E00090911F016FEF70E0AFD667BDFF91EF9166
:1002F000BF91AF919F918F917F916F915F912F915E
:100300000F900BBE0F900FBE0F901F9018951F926D
:100310000F920FB60F9211248F939F9381E090E07C
:1003200090932501809324019F918F910F900FBE90
:100330000F901F9018951F920F920FB60F921124D5
:100340000F900FBE0F901F901895A2E0B0E0EAEA60
:10035000F1E099C69FD28FEF90E060E070E074D634
:100360008B011A821982EE24EA94FE2C80912201DC
:1003700090912301892B21F01092230110922201E8
:100380008091240190912501892B81F38091200196
:1003900090912101B80158D6892B59F489819A810D
:1003A00001969A83898389819A8197FD02C0FA8296
:1003B000E9822AE331E089819A81FC01EE0FFF1F77
:1003C000E80FF91FE050FF4F80819181A281F90170
:1003D00081939193A1939F01F1E020373F0759F753
:1003E00062E170E08AE391E0F7DE80912001909174
:1003F0002101019690932101809320018091200199
:10040000909121018F3F910539F034F01092210134
:10041000109220011A821982109225011092240153
:10042000A5CF80E090E0089581E090E06F9364E0D4
:100430006A95F1F76F910197C9F708950F931F938C
:10044000CF93DF9317B13D982898299AC0E0D0E068
:10045000EBDF2A9AE9DF06B12A98E6DF2A9AE4DF81
:100460002A98249605FF10C09E0140E050E080913C
:100470002A0190912B01A0912C01B0912D012817F8
:1004800039074A075B0720F39E0140E050E0809166
:100490002A0190912B01A0912C01B0912D012817D8
:1004A00039074A075B0728F082E390E0A0E0B0E05C
:1004B00004C080E395E7A0E0B0E080932A01909328
:1004C0002B01A0932C01B0932D0117B9DF91CF918F
:1004D0001F910F91089528B190E08F709070880F50
:1004E000991F880F991F237C282B28B92A9A9CDFF3
:1004F0002A989ACFA2E0B0E0EFE7F2E0C5C5182F46
:100500004A83698357D09ADFF7B008B12998698187
:100510004A81662311F0289A01C0289887B18C631C
:1005200087B9413021F0812F82958F70D4DF812FE0
:100530008F70D1DFF7B808B92296E5E0C1C560E059
:1005400042E0D8CF61E042E0D5CF60E041E0D2CFD9
:100550003D98459A80E395E7A0E0B0E080932A01BA
:1005600090932B01A0932C01B0932D01209A219AF6
:10057000229A8EE190E0DFD183E0E7DF86E090E031
:10058000DAD183E0E2DF82E090E0D5D183E0DDDF05
:1005900082E090E0D0D182E0D8DF82E090E0CBD161
:1005A00088E2CDDF88E0CBDF81E0C9DF86E0C7DF0E
:1005B0008CE0C5CF80912E01882321F481E08093C7
:1005C0002E01C6CF0895A5E0B0E0E8EEF2E05EC5EA
:1005D000182F80E8898380EC8A8384E98B8384EDFB
:1005E0008C83FE01E60FF11D8181810F6D83A7DFF2
:1005F000109329016D81609328012596E3E062C57F
:10060000A0E0B0E0E5E0F3E03CC5D82E8091260103
:1006100090912701009709F4F2C02D2D2A3009F49A
:1006200042C02830C9F4809129018150809329016A
:100630008F3F51F48091280181508093280180914F
:100640001701815080932901809128018F3F09F083
:10065000D1C010922801CCC08D2D74DF809128016B
:100660008823B9F090E001974091170150E0849FF2
:100670009001859F300D949F300D112480912901A8
:10068000E0912601F0912701E20FF31FE80FF11D21
:10069000D082809129018F5F809329019091170169
:1006A000891709F0ACC040912801242F30E08091D7
:1006B000160190E001972817390709F096C0C0E0AD
:1006C000D0E03FC080E06C2F7EDFCC248E010F5F36
:1006D0001F4F32C0EC2CFF2430E0C29FC001C39FEB
:1006E000900DD29F900D1124E0912601F0912701E9
:1006F000EE0DFF1DE80FF91F808124DF8091260198
:10070000909127012091170130E0C29FF001C39F13
:10071000F00DD29FF00D11248E0D9F1DE80FF91FD3
:10072000029FD001039FB00D129FB00D1124A80F9E
:10073000B91F8C918083C39420911701C21650F287
:10074000E80160911601862F90E00297C817D9073B
:100750000CF4B8CF6230D0F1625080E034DF00E0BA
:1007600010E230C0C02FD0E08091160190E00297D7
:1007700050E0849F9001859F300D949F300D11248F
:10078000E0912601F0912701EC0FFD1FE20FF31F0E
:100790008081D8DE8091160190E002974091170188
:1007A00050E0849F9001859F300D949F300D11245F
:1007B000E0912601F0912701EC0FFD1FE20FF31FDE
:1007C00010830F5F40911701041760F260911601CA
:1007D000615080E0F8DE10E003C080E2B3DE1F5F0E
:1007E000809117011817C8F303C04F5F4093280189
:1007F000109229018091290160912801E4DE2D2DBC
:10080000332727FD3095C901CDB7DEB7E8E055C4E1
:100810008091260190912701009709F00BD5209136
:10082000160130E0215030408091170190E0AC017A
:10083000249FC001259F900D349F900D112462D4F8
:100840009093270180932601009719F1A0E0B0E270
:1008500008C0E0912601F0912701E20FF31FB08359
:10086000AF5F2A2F30E08091160190E001976091F0
:10087000170170E0869FA001879F500D969F500D35
:100880001124241735072CF380E093E061E172E036
:100890004EC60895BDCF08956F9364E06A95F1F751
:1008A0006F910197C9F708952F928F939F932FB659
:1008B00080913001909131010196809330019093A5
:1008C000310190E080913201891F80933201909133
:1008D00038019C5F90933801809137018051974295
:1008E000C0F090933801809337018091330190914B
:1008F00034010196809333019093340190E080910C
:100900003501891F8093350180913601891F8093BD
:1009100036012FBE9F918F912F901895CF93DF9323
:10092000EC0104C088EE93E0B7DF21972097D1F760
:10093000DF91CF910895F2CF08952F923F924F9279
:100940005F926F927F928F929F92AF92BF92CF925F
:10095000DF92EF92FF920F931F93CF93DF93CDB768
:10096000DEB763970FB6F894DEBF0FBECDBF7C0134
:100970001B016A01FC0117821682838181FF49C332
:10098000BE016F5F7F4F4B01F7019381F10193FD32
:10099000859193FF81911F01882309F436C3853225
:1009A00039F493FD859193FF81911F01853231F4D4
:1009B000B70190E006D656016501E6CF10E0512C54
:1009C00020E02032A0F48B3269F030F4803259F00C
:1009D000833269F420612CC08D3239F0803339F4D0
:1009E000216026C02260246023C0286021C027FD2A
:1009F00027C030ED380F3A3078F426FF06C0FAE011
:100A00001F9F300D1124132F13C06AE0569E300D26
:100A10001124532E20620CC08E3221F426FDF5C223
:100A2000206406C08C3611F4206802C0883641F478
:100A3000F10193FD859193FF81911F018111C1CF38
:100A40009BEB980F933018F42061805E06C09BE901
:100A5000980F933008F09AC12F7E26FF16E02F736F
:100A6000722E853621F4F22FF0647F2E08C0863670
:100A700021F4622F6068762E02C01111115077FEAA
:100A800007C01C3348F444244394410E27E00BC0B4
:100A9000183030F4212F06C027E04CE3442E03C069
:100AA00027E017E0412C560174E0A70EB11CF601B7
:100AB0006081718182819381042DA4014AD46C01EB
:100AC000098100FF02C003FF06C071FC07C072FC71
:100AD00008C0612C08C03DE2632E05C02BE2622EE7
:100AE00002C090E2692E802F8C7081F1662011F097
:100AF00084E001C083E0851510F0512C0AC0581A1B
:100B000073FC07C0B70180E290E05BD55A94D1F73F
:100B1000F4CF662021F0B701862D90E052D503FD79
:100B200003C000E910E002C00CE810E0F72DF071FE
:100B30007F2EF8018491882309F45EC271108052DF
:100B4000B70190E03ED50F5F1F4FF3CF77FE0FC088
:100B50004C0C04FF04C08A81813309F44A941414B4
:100B600074F5F8E0F41578F588E0482E2CC076FC92
:100B70002AC0812F90E08C159D059CF06CEFC61665
:100B80006FEFD60674F0772D7068772E0AC0E2E01A
:100B9000F0E0EC0FFD1FE10FF11D8081803319F4AF
:100BA00011501111F4CF77FE0EC044244394410E2E
:100BB000812F90E0C816D9062CF41C1904C04424D7
:100BC000439401C010E077FE07C01C141D043CF4E0
:100BD00096012F5F3F4F05C025E030E002C021E0C5
:100BE00030E0662011F02F5F3F4F112331F0412F8D
:100BF00050E04F5F5F4F240F351F452D50E0241705
:100C0000350714F4521A01C0512C872D897041F414
:100C1000552031F0B70180E290E0D3D45A94F8CF58
:100C2000662021F0B701862D90E0CBD473FC08C07C
:100C3000552031F0B70180E390E0C3D45A94F8CF47
:100C400077FE5DC09C2D8D2DD7FE02C090E080E028
:100C5000692E782E40E050E0C601841991099D87E5
:100C60008C87960126193709280D391D812F90E0B0
:100C7000EE27FF27E81BF90BFF87EE87FFEF6F16C4
:100C80007F0661F4B7018EE290E02B8B3A8B488BA4
:100C9000598B97D4598948893A892B89C614D70426
:100CA00054F06C857D85661577052CF4F901E40F09
:100CB000F51F818101C080E371E0671A71084F5F01
:100CC0005F4FEE85FF856E167F0664F0B70190E0FA
:100CD0002B8B3A8B488B598B74D42B893A89488952
:100CE0005989CCCF6C147D0439F49A81963318F469
:100CF000953311F404FF81E3B70190E045C08A8188
:100D0000813309F00F7EB70190E05BD4111105C06B
:100D100074FE16C085E490E015C0B7018EE290E045
:100D200050D482E066246394680EF401E80FF11D4C
:100D30008081B70190E045D4115051F3862DF2CF58
:100D400085E690E0B7013DD4D7FC05C0C114D104BD
:100D500039F404FF05C0D194C194D1088DE201C0DB
:100D60008BE2B70190E02DD480E36AE0C616D1048F
:100D70002CF08F5FFAE0CF1AD108F7CFB70190E0DF
:100D800020D4B701C601C0961CD436C1833631F0D9
:100D9000833779F0833509F054C020C0560172E0E2
:100DA000A70EB11CF6018081898301E010E0640187
:100DB00013C05601F2E0AF0EB11CF601C080D18025
:100DC00026FF03C0612F70E002C06FEF7FEFC60106
:100DD0002B8BA2D38C012B892F7714C05601F2E004
:100DE000AF0EB11CF601C080D18026FF03C0612F79
:100DF00070E002C06FEF7FEFC6012B8B82D38C01B6
:100E00002B892068722E23FD18C0852D90E00817CD
:100E1000190798F4B70180E290E0D3D35A94F5CF44
:100E2000F60177FC859177FE81916F01B70190E023
:100E3000C8D351105A94015011090115110581F7B9
:100E4000DBC0843611F0893649F5560127FF09C009
:100E5000F4E0AF0EB11CF601608171818281938153
:100E60000AC0F2E0AF0EB11CF601608171818827E3
:100E700077FD8095982F022F0F7697FF08C09095E9
:100E80008095709561957F4F8F4F9F4F00682AE046
:100E900030E0A401C8D3C82EC8183DC0022F853742
:100EA00021F40F7E2AE030E01DC0097F8F3691F0DB
:100EB00018F4883559F0A9C0803719F0883711F037
:100EC000A4C0006104FF09C0046007C024FF08C07B
:100ED000066006C028E030E005C020E130E002C036
:100EE00020E132E0560107FF09C0F4E0AF0EB11C6B
:100EF000F601608171818281938108C0F2E0AF0EBA
:100F0000B11CF6016081718180E090E0A4018BD377
:100F1000C82EC8180F7706FF0BC0202F2E7FC116D2
:100F200050F404FF0AC002FD08C0202F2E7E05C029
:100F3000DC2C202F03C0DC2C01C0D12E24FF0DC0DF
:100F4000FE01EC0DF11D8081803311F4297E09C072
:100F500022FF06C0D394D39404C0822F867809F070
:100F6000D39423FD12C020FF06C01C2DD51418F405
:100F7000150D1D19D52CD51460F4B70180E290E051
:100F80002B8B1FD3D3942B89F6CFD51410F45D1877
:100F900001C0512C24FF11C0B70180E390E02B8BDE
:100FA00010D32B8922FF16C021FF03C088E590E0F3
:100FB00002C088E790E0B7010CC0822F867851F01C
:100FC00021FD02C080E201C08BE227FD8DE2B70166
:100FD00090E0F7D2C11630F4B70180E390E0F1D28F
:100FE0001150F8CFCA94F401EC0DF11D8081B701C6
:100FF00090E0E7D2C110F6CF552009F4DDCCB7015F
:1010000080E290E0DED25A94F7CFF7018681978193
:1010100002C08FEF9FEF63960FB6F894DEBF0FBE4E
:10102000CDBFDF91CF911F910F91FF90EF90DF9097
:10103000CF90BF90AF909F908F907F906F905F9078
:101040004F903F902F90089597FB072E16F4009431
:1010500006D077FD08D042D007FC05D03EF490952D
:1010600081959F4F0895709561957F4F08952F92B8
:101070003F924F925F926F927F928F929F92AF9228
:10108000BF92CF92DF92EF92FF920F931F93CF9375
:10109000DF93CDB7DEB7CA1BDB0B0FB6F894DEBF0C
:1010A0000FBECDBF09942A88398848885F846E8432
:1010B0007D848C849B84AA84B984C884DF80EE807C
:1010C000FD800C811B81AA81B981CE0FD11D0FB685
:1010D000F894DEBF0FBECDBFED010895AA1BBB1B68
:1010E00051E107C0AA1FBB1FA617B70710F0A61B28
:1010F000B70B881F991F5A95A9F780959095BC0149
:10110000CD010895CF93DF938230910510F482E0F2
:1011100090E0E0917201F091730120E030E0A0E0F6
:10112000B0E0309739F14081518148175907B8F044
:101130004817590771F482819381109729F013960B
:101140009C938E9312972CC090937301809372019D
:1011500027C02115310531F04217530718F0A901B6
:10116000DB0101C0EF019A01BD01DF010280F381C3
:10117000E02DD7CF21153105F9F0281B390B24308C
:10118000310580F48A819B816115710521F0FB0195
:101190009383828304C09093730180937201FE0154
:1011A000329644C0FE01E20FF31F819391932250C7
:1011B0003109398328833AC020917001309171013F
:1011C000232B41F420911A0130911B0130937101BE
:1011D00020937001209118013091190121153105DA
:1011E00041F42DB73EB740911C0150911D01241BC5
:1011F000350BE0917001F0917101E217F307A0F453
:101200002E1B3F0B2817390778F0AC014E5F5F4F5C
:101210002417350748F04E0F5F1F5093710140931C
:1012200070018193919302C0E0E0F0E0CF01DF9183
:10123000CF910895CF93DF93009709F487C0FC0105
:10124000329713821282C0917201D091730120975C
:1012500081F420813181280F391F80917001909194
:1012600071018217930779F5F0937101E093700192
:101270006DC0DE0120E030E0AE17BF0750F41296DB
:101280004D915C9113979D014115510509F1DA01CA
:10129000F3CFB383A28340815181840F951F8A17B6
:1012A0009B0771F48D919C911197840F951F029665
:1012B0009183808312968D919C911397938382835F
:1012C0002115310529F4F0937301E09372013EC0BA
:1012D000D9011396FC93EE9312974D915D91A40F53
:1012E000B51FEA17FB0779F480819181840F951F60
:1012F0000296D90111969C938E93828193811396C5
:101300009C938E931297E0E0F0E08A819B81009796
:1013100019F0FE01EC01F9CFCE0102962881398146
:10132000820F931F209170013091710128173907A6
:1013300069F4309729F4109273011092720102C07F
:1013400013821282D0937101C0937001DF91CF910B
:101350000895283008F027E03327DA01990F311D6E
:1013600087FD916000966105710539F432602E5F4A
:101370003D9330E32A95E1F708959F3F30F08038A0
:101380007105610509F03C5F3C5F3D93913008F0C9
:101390008068911DDF93CF931F930F93FF92EF927D
:1013A000192F987F9695E92F96959695E90FFF2727
:1013B000E251FF4F99273327EE24FF24A701E701CD
:1013C00005900894079428F4360FE71EF81E491F6D
:1013D000511D660F771F881F991F0694A1F705906E
:1013E000079428F4E70EF81E491F561FC11D770FFA
:1013F000881F991F661F0694A1F70590079428F48B
:10140000F80E491F561FC71FD11D880F991F661F51
:10141000771F0694A1F70590079420F4490F561FF3
:10142000C71FD81F990F661F771F881F0694A9F73B
:1014300084911095177041F0D695C79557954795AB
:10144000F794E7941A95C1F7E4E9F0E068941590F1
:10145000159135916591959105907FE27395E1180D
:10146000F10A430B560BC90BD009C0F7E10CF11E72
:10147000431F561FC91FD01D7EF4703311F48A9587
:10148000E6CFE894015030F0080F0AF40027021765
:1014900008F4202F2395022F7A3328F079E37D93E7
:1014A0002A95E9F710C07D932A9589F606949795B9
:1014B0006795379517951794E118F10A430B560B6A
:1014C000C90BD00998F023957E9173957A3308F073
:1014D00070E37C932013B8F77E9170617D9330F0B8
:1014E000839571E37D9370E32A95E1F71124EF90E2
:1014F000FF900F911F91CF91DF91992787FD9095D4
:101500000895FC010590615070400110D8F7809556
:1015100090958E0F9F1F0895FC01615070400190BF
:101520000110D8F7809590958E0F9F1F08950F9307
:101530001F93CF93DF93EC018B01009731F461157A
:10154000710519F480E090E037C06EE070E081E052
:1015500090E0C7D0FC010097A9F380E883830115D0
:10156000110571F01387028781E8838380917401EC
:1015700090917501892B21F4F0937501E09374012A
:101580002097C9F0D187C08783818260838380914F
:10159000760190917701892B71F4F0937701E093B4
:1015A00076018091780190917901892B21F4F09353
:1015B0007901E0937801CF01DF91CF911F910F91D5
:1015C00008950F931F93CF93DF93182F092FEB01EB
:1015D0008B8181FD03C08FEF9FEF20C082FF10C081
:1015E0004E815F812C813D81421753077CF4E88155
:1015F000F9819F012F5F3F4F39832883108306C0F5
:10160000E885F985812F0995892B29F72E813F815E
:101610002F5F3F4F3F832E83812F902FDF91CF91FC
:101620001F910F910895FA01AA27283051F1203116
:1016300081F1E8946F936E7F6E5F7F4F8F4F9F4F66
:10164000AF4FB1E03ED0B4E03CD0670F781F891FA8
:101650009A1FA11D680F791F8A1F911DA11D6A0F76
:10166000711D811D911DA11D20D009F468943F9129
:101670002AE0269F11243019305D3193DEF6CF0128
:101680000895462F4770405D4193B3E00FD0C9F7EE
:10169000F6CF462F4F70405D4A3318F0495D31FD5B
:1016A0004052419302D0A9F7EACFB4E0A6959795AE
:1016B000879577956795BA95C9F700976105710584
:1016C00008959B01AC010A2E0694579547953795CE
:1016D0002795BA95C9F7620F731F841F951FA01D28
:1016E00008950F931F93CF93DF93869F8001879F69
:1016F000100D969F100D1124C80104DDEC01009718
:1017000021F0A80160E070E006D0CE01DF91CF911A
:101710001F910F910895DC0101C06D93415050401D
:08172000E0F70895F894FFCFF3
:10172800FF0000FF8900FFFF0000FF000000FFFF2F
:0E17380000FFA200FF01021000007A01200055
:00000001FF
