:1000000045C0000060C000005EC000005CC0000091
:100010005AC0000058C0000056C0000054C0000084
:1000200052C0000050C000004EC0000086C1000059
:100030004AC0000048C0000046C0000044C00000A4
:1000400049C0000040C000003EC000003CC00000AD
:100050003AC0000038C0000036C0000034C00000C4
:1000600032C0000030C000002EC000002CC00000D4
:100070002AC0000028C0000026C0000024C00000E4
:1000800022C0000020C000001EC0000011241FBEBE
:10009000CFEFD0E4DEBFCDBF11E0A0E0B1E0EEE3F2
:1000A000F4E000E00BBF02C007900D92A431B1074D
:1000B000D9F721E0A4E1B1E001C01D92A832B20756
:1000C000E1F732D0BAC19CCF809100018F5F80935D
:1000D000000108951F920F920FB60F9211240BB6D4
:1000E0000F922F933F934F935F936F937F938F93D1
:1000F0009F93AF93BF93EF93FF935A9889E091E05A
:1001000012D1FF91EF91BF91AF919F918F917F910C
:100110006F915F914F913F912F910F900BBE0F9078
:100120000FBE0F901F90189594E09AB98BB1892754
:100130008BB95A9814BC15BC16BC88EE93E090930A
:1001400089008093880084B5826884BD85B583600A
:1001500085BD80916E00826080936E0078945A9A7B
:10016000FECF81E090E06F9364E06A95F1F76F91C4
:100170000197C9F708950F931F93CF93DF9317B19A
:100180003D982898299AC0E0D0E0EBDF2A9AE9DF71
:1001900006B12A98E6DF2A9AE4DF2A98249605FF1A
:1001A00010C09E0140E050E080911801909119012B
:1001B000A0911A01B0911B01281739074A075B0764
:1001C00020F39E0140E050E08091180190911901C8
:1001D000A0911A01B0911B01281739074A075B0744
:1001E00028F082E390E0A0E0B0E004C080E395E76F
:1001F000A0E0B0E08093180190931901A0931A0138
:10020000B0931B0117B9DF91CF911F910F91089502
:1002100028B190E08F709070880F991F880F991FF8
:10022000237C282B28B92A9A9CDF2A989ACFA2E00F
:10023000B0E0ECE1F1E0D7C0182F4A83698357D0D2
:100240009ADFF7B008B1299869814A81662311F0D5
:10025000289A01C0289887B18C6387B9413021F072
:10026000812F82958F70D4DF812F8F70D1DFF7B807
:1002700008B92296E5E0D3C060E042E0D8CF61E063
:1002800042E0D5CF60E041E0D2CF3D98459A80E38F
:1002900095E7A0E0B0E08093180190931901A09336
:1002A0001A01B0931B01209A219A229A8EE190E0C4
:1002B0008BD083E0E7DF86E090E086D083E0E2DF6A
:1002C00082E090E081D083E0DDDF82E090E07CD0CE
:1002D00082E0D8DF82E090E077D088E2CDDF88E06E
:1002E000CBDF81E0C9DF86E0C7DF8CE0C5CF80913E
:1002F0001C01882321F481E080931C01C6CF08955E
:10030000EF92FF92CF93DF93E82EE7017E01F92E63
:10031000E70101C0B4DF89918823E1F7DF91CF9134
:10032000FF90EF900895ECCF08956F9364E06A9585
:10033000F1F76F910197C9F708952F928F939F93CB
:100340002FB680911E0190911F01019680931E018E
:1003500090931F0190E080912001891F80932001DC
:10036000909126019C5F90932601809125018051F8
:100370009742C0F09093260180932501809121013E
:10038000909122010196809321019093220190E0A7
:1003900080912301891F8093230180912401891F6B
:1003A000809324012FBE9F918F912F901895CF930A
:1003B000DF93EC0104C088EE93E0B7DF219720972C
:1003C000D1F7DF91CF910895F2CF08952F923F9208
:1003D0004F925F926F927F928F929F92AF92BF9255
:1003E000CF92DF92EF92FF920F931F93CF93DF9301
:1003F000CDB7DEB7CA1BDB0B0FB6F894DEBF0FBE5E
:10040000CDBF09942A88398848885F846E847D84AA
:100410008C849B84AA84B984C884DF80EE80FD80AC
:100420000C811B81AA81B981CE0FD11D0FB6F89422
:0E043000DEBF0FBECDBFED010895F894FFCFE3
:10043E00010210000028012000494E544552525529
:04044E0050542100E5
:00000001FF
