:100000004BC0000067C0000065C0000063C0000076
:1000100061C000005FC000005DC000005BC0000068
:1000200059C0000057C0000055C000000C94F50CEA
:1000300051C000005BC100004DC000004BC000007B
:1000400050C0000047C0000045C0000043C0000091
:100050000C94A90A0C949D0C3DC000003BC000000C
:1000600039C0000037C0000035C0000033C00000B8
:100070000C94D30A0C94C50C2DC000002BC00000BA
:1000800081C0000027C0000025C000006364696EC5
:100090006F70737578585B0011241FBECFEFD0E4EA
:1000A000DEBFCDBF12E0A0E0B1E0EEE2FDE200E095
:1000B0000BBF02C007900D92A838B107D9F723E013
:1000C000A8E8B2E001C01D92A831B207E1F7B3D5AC
:1000D0000C94951695CF809100018F5F809300015D
:1000E00008951F920F920FB60F9211240BB60F9224
:1000F0002F933F934F935F936F937F938F939F9330
:10010000AF93BF93EF93FF93609196027091970224
:1001100080919802909199026F5F7F4F8F4F9F4F10
:10012000609396027093970280939802909399023D
:10013000209113013091140140E050E00E94120E12
:10014000672B682B692B59F480E090E0AAD21092BB
:100150009602109297021092980210929902FF91C3
:10016000EF91BF91AF919F918F917F916F915F912F
:100170004F913F912F910F900BBE0F900FBE0F909C
:100180001F9018951F920F920FB60F9211240BB665
:100190000F922F933F934F935F936F937F938F9320
:1001A0009F93AF93BF93EF93FF93CF93DF9300D0D1
:1001B000CDB7DEB77894E3E3F0E01092C20210927C
:1001C000C3021092C4021092C5021092C60210928D
:1001D000C7021092C8021092C9022091C202309147
:1001E000C3024091C4025091C5026091C602709151
:1001F000C7028091C8029091C9022A343840410553
:100200005105610571058105910509F058F51A82BE
:10021000198289819A8101969A8389832091C202E9
:100220003091C3024091C4025091C5026091C60250
:100230007091C7028091C8029091C902A1E00E940A
:10024000910E2093C2023093C3024093C402509394
:10025000C5026093C6027093C7028093C802909350
:10026000C902BBCF3197309709F0A7CF80919E028A
:1002700090919F02A091A002B091A1020196A11DB0
:10028000B11D80939E0290939F02A093A002B09311
:10029000A102409111015091120160E070E08417B9
:1002A0009507A607B70759F482E090E0FAD11092BB
:1002B0009E0210929F021092A0021092A1020F9033
:1002C0000F90DF91CF91FF91EF91BF91AF919F91EF
:1002D0008F917F916F915F914F913F912F910F90EF
:1002E0000BBE0F900FBE0F901F9018951F920F928C
:1002F0000FB60F9211240BB60F922F933F934F938B
:100300005F936F937F938F939F93AF93BF93EF937D
:10031000FF9381E090E0C5D1FF91EF91BF91AF9144
:100320009F918F917F916F915F914F913F912F910D
:100330000F900BBE0F900FBE0F901F90189581303D
:10034000910599F08230910551F1892B99F54091F1
:1003500005015091060188EE93E0489F9001499F66
:10036000300D589F300D112427C080910F019091BE
:10037000100124E6289FB001299F700D112488EEFA
:1003800093E00E94EB0D8091010190910201689F22
:100390009001699F300D789F300D11240DC0809120
:1003A0000301909104014AE0489F9001499F300D5C
:1003B000112402C021E030E0442737FD4095542F3E
:1003C00060910701709108018091090190910A01E3
:1003D0000E94340EC90101970895CF93DF9314BC96
:1003E00015BC16BC84B5826884BD85B5846085BDA6
:1003F000EEE6F0E08081826080838DE487BD10921C
:100400009602109297021092980210929902C0E9F7
:10041000D0E01882A1E9B0E01C92E2E9F0E010829D
:1004200010929500109294008881806488838C914A
:100430008B608C9380818083E1E7F0E08081826033
:10044000808382E090E07BDF909399008093980016
:1004500010929E0210929F021092A0021092A1028E
:10046000C0E8D0E01882A1E8B0E01C92E2E8F0E039
:1004700010821092850010928400888183648883A2
:100480008C918D618C9380818083EFE6F0E0808198
:100490008260808381E090E052DF909389008093B6
:1004A000880081E090E090938B0080938A00109206
:1004B0009A0210929B0210929C0210929D02DF9170
:1004C000CF91089580910B018F5F80930B01089568
:1004D000A4E0B0E0EEE6F2E00C946A0EB2D460E084
:1004E00080E0E3D484E491E0C1D43C985598089826
:1004F00044985D9810983C9A559A089A449A5D9A47
:10050000109AE4E6F0E01092C2021092C302109238
:10051000C4021092C5021092C6021092C702109235
:10052000C8021092C9022091C2023091C3024091C8
:10053000C4025091C5026091C6027091C7028091B9
:10054000C8029091C9022A3438404105510561051D
:1005500071058105910509F058F51C821B828B817C
:100560009C8101969C838B832091C2023091C302AF
:100570004091C4025091C5026091C6027091C702B9
:100580008091C8029091C902A1E00E94910E20932F
:10059000C2023093C3024093C4025093C5026093D9
:1005A000C6027093C7028093C8029093C902BBCF62
:1005B0003197309709F0A7CF44985D981098109222
:1005C0009002109291021092920210929302109255
:1005D0008C0210928D0210928E0210928F02109255
:1005E00088021092890210928A0210928B02109255
:1005F000C2021092C3021092C4021092C50210925D
:10060000C6021092C7021092C8021092C90220912D
:10061000C2023091C3024091C4025091C502609160
:10062000C6027091C7028091C8029091C9022A3413
:10063000384041055105610571058105910509F0B5
:1006400058F51A82198289819A8101969A83898341
:100650002091C2023091C3024091C4025091C50260
:100660006091C6027091C7028091C8029091C90240
:10067000A1E00E94910E2093C2023093C3024093E6
:10068000C4025093C5026093C6027093C702809360
:10069000C8029093C902BBCFD4D32496E2E00C9455
:1006A000860E81309105D1F182309105F9F0892BC8
:1006B00009F047C088B190E1892788B980919002FC
:1006C00090919102A0919202B09193020196A11D86
:1006D000B11D8093900290939102A0939202B093E7
:1006E00093021092950210929402089582B191E0C3
:1006F000892782B980918C0290918D02A0918E02FF
:10070000B0918F020196A11DB11D80938C02909330
:100710008D02A0938E02B0938F020895809188027B
:1007200090918902A0918A02B0918B020196A11D3D
:10073000B11D8093880290938902A0938A02B0939E
:100740008B0208950F931F93CF93DF938C01EB01DE
:1007500077FF05C08EE491E00E943E104EC0CB01B1
:1007600064E670E00E94FF0DC81BD90B011511054E
:1007700019F00330110549F4209711F43C9805C095
:100780003C9AD0931401C0931301C80102970297B9
:1007900090F4209711F408982DC0089ACE0164E6D1
:1007A00070E00E94FF0D709312016093110182E0CE
:1007B00090E077DF1FC001301105F9F4209711F4A4
:1007C00055981BC0559ACE01C13A2FE0D20714F0BC
:1007D00080EA9FE064E670E00E94FF0D70931001D4
:1007E00060930F0181E090E0AADD909389008093EF
:1007F000880003C00330110509F3DF91CF911F91E9
:100800000F910895CF92DF92EF92FF920F931F9373
:100810000E94730D0091CA021091CB022091CC026C
:100820003091CD026B017C01C01AD10AE20AF30AB1
:10083000009113011091140120E030E0C016D106A0
:10084000E206F30674F021E030E030939502209345
:1008500094026093CA027093CB028093CC0290936F
:10086000CD021F910F91FF90EF90DF90CF900895F0
:10087000809115018F5F80931501089582E073D4F4
:10088000811103C00E94670CF9CF0895A1E0B0E088
:10089000ECE4F4E00C94680E8C01462F60E080E0FC
:1008A000498303D34981B80182E00E949B0CE6DFB3
:1008B0002196E4E00C94840E40E855E260E070E09C
:1008C00082E057D740E26EEC72E082E040D668E109
:1008D00070E089E691E0DADF6BE170E082E891E0B8
:1008E000D5CFA4E2B0E0E7E7F4E00C94680E1AA2DA
:1008F00019A29E012F5D3F4F3F932F932D5F3F4FD6
:100900003F932F93215031093F932F932EE931E0EC
:100910003F932F939F938F930E9499108AA18F9357
:1009200089A18F932CA1822F992787FD90959F9362
:100930002F932BA1822F992787FD90959F932F931B
:1009400087EA91E09F938F938E010F5F1F4F1F9354
:100950000F930E946B10BC01C80198DF2CA18FE996
:10096000820F0FB6F894DEBF0FBECDBF8A3110F4F0
:1009700080E201C080E0281B2CA32734A9F02CF4CE
:10098000213451F483E090E011C0223551F0293533
:1009900019F482E090E00AC067E170E089EB91E031
:1009A000B6C080E090E002C081E090E03BA13A3523
:1009B00009F46FC02CF4303581F0343551F0A3C008
:1009C000343739F03A3709F464C0303709F09BC046
:1009D00004C069A17AA1B6DE9BC02734E9F134F5E1
:1009E000213409F051C080918D028F9380918C0247
:1009F0008F93809189028F93809188028F93809149
:100A000091028F93809190028F9381E092E09F9367
:100A10008F931F930F930E946B10BC01C80136DFA8
:100A20000FB6F894DEBF0FBECDBF72C0223559F0AD
:100A3000293551F580918D028F9380918C028F938F
:100A400081EF91E011C0809191028F93809190028B
:100A50008F9381ED91E008C0809189028F938091FE
:100A600088028F9381EE91E09F938F931F930F9352
:100A70000E946B10BC01C80109DF0F900F900F900E
:100A80000F900F900F9044C06BE170E08AE192E00C
:100A90003EC0273409F19CF4213481F510928C0278
:100AA00010928D0210928E0210928F021092880284
:100AB0001092890210928A0210928B0216C022357F
:100AC000A1F02935D9F410928C0210928D02109267
:100AD0008E0210928F021CC010928802109289021E
:100AE00010928A0210928B0213C010929002109200
:100AF000910210929202109293020AC06BE170E090
:100B000086E392E004C06BE170E082E592E0BEDE35
:100B10006BE170E082E891E0B9DEA496E4E00C9429
:100B2000840EA0E4B0E0E7E9F5E00C94660E19A2AB
:100B30001AA21BA21CA2FE01B5968CE1DF011D9238
:100B40008A95E9F782E0FFD21091A2028117E1F0C5
:100B5000612F70E062537D4F41E050E0CE0101967D
:100B60000E94D30F8091A3029091A40201969093CA
:100B7000A4028093A3021F3119F41092A202E2CFC3
:100B80001F5F1093A202DECF8091A3029091A40276
:100B9000009709F44BC0019729F41092A402109217
:100BA000A30244C08E010F5F1F4FF8010190002087
:100BB000E9F7329780818A3009F4108261E080E0A1
:100BC00074D11F930F938091A4028F938091A302FD
:100BD0008F938EE692E09F938F930E942D101F9328
:100BE0000F938091A4028F938091A3028F938AE741
:100BF00092E09F938F937E01B1E2EB0EF11CFF9286
:100C0000EF920E946B10BC01C70140DEC80169DE93
:100C100080E2F80111928A95E9F71092A4021092ED
:100C2000A3020FB6F894DEBF0FBECDBFC05CDF4F8E
:100C3000E6E00C94820E85D24BDCCFDB3DDE01D1A9
:100C4000789445D66EDFFDCF80E090E0089581E096
:100C500090E06F9364E06A95F1F76F910197C9F79F
:100C600008950F931F93CF93DF9317B13D98289862
:100C7000299AC0E0D0E0EBDF2A9AE9DF06B12A9892
:100C8000E6DF2A9AE4DF2A98249605FF10C09E0129
:100C900040E050E08091A9029091AA02A091AB029D
:100CA000B091AC02281739074A075B0720F39E0171
:100CB00040E050E08091A9029091AA02A091AB027D
:100CC000B091AC02281739074A075B0728F082E386
:100CD00090E0A0E0B0E004C080E395E7A0E0B0E0E1
:100CE0008093A9029093AA02A093AB02B093AC02A6
:100CF00017B9DF91CF911F910F91089528B190E01E
:100D00008F709070880F991F880F991F237C282B54
:100D100028B92A9A9CDF2A989ACFA2E0B0E0E2E9AB
:100D2000F6E0D5C7182F4A83698357D09ADFF7B00A
:100D300008B1299869814A81662311F0289A01C077
:100D4000289887B18C6387B9413021F0812F829533
:100D50008F70D4DF812F8F70D1DFF7B808B922965A
:100D6000E5E0D1C760E042E0D8CF61E042E0D5CF16
:100D700060E041E0D2CF3D98459A80E395E7A0E05E
:100D8000B0E08093A9029093AA02A093AB02B09323
:100D9000AC02209A219A229A8EE190E06DD683E0EF
:100DA000E7DF86E090E068D683E0E2DF82E090E073
:100DB00063D683E0DDDF82E090E05ED682E0D8DFBC
:100DC00082E090E059D688E2CDDF88E0CBDF81E099
:100DD000C9DF86E0C7DF8CE0C5CF8091AD028823F4
:100DE00021F481E08093AD02C6CF089581E0BADF9F
:100DF0008091A5029091A602009711F1A0E0B0E2C7
:100E000008C0E091A502F091A602E20FF31FB083A3
:100E1000AF5F2A2F30E08091160190E0019760913A
:100E2000170170E0869FA001879F500D969F500D7F
:100E30001124241735072CF31092A8021092A70250
:100E40000895D4CF0895EF92FF92CF93DF93E82EC9
:100E5000E7017E01F92EE70101C087DF8991882330
:100E6000E1F7DF91CF91FF90EF900895ECCF0895D7
:100E7000A5E0B0E0EDE3F7E02CC7182F80E8898308
:100E800080EC8A8384E98B8384ED8C83FE01E60FFA
:100E9000F11D8181810F6D8365DF1093A8026D8143
:100EA0006093A7022596E3E030C7E2CF0895A0E063
:100EB000B0E0ECE5F7E008C7D82E8091A50290914C
:100EC000A602009709F4F2C02D2D2A3009F442C081
:100ED0002830C9F48091A80281508093A8028F3FE6
:100EE00051F48091A70281508093A702809117014D
:100EF00081508093A8028091A7028F3F09F0D1C052
:100F00001092A702CCC08D2D30DF8091A7028823DC
:100F1000B9F090E001974091170150E0849F900153
:100F2000859F300D949F300D11248091A802E0918F
:100F3000A502F091A602E20FF31FE80FF11DD08287
:100F40008091A8028F5F8093A80290911701891762
:100F500009F0ACC04091A702242F30E08091160127
:100F600090E001972817390709F096C0C0E0D0E05B
:100F70003FC080E06C2F7CDFCC248E010F5F1F4FC1
:100F800032C0EC2CFF2430E0C29FC001C39F900D03
:100F9000D29F900D1124E091A502F091A602EE0DD2
:100FA000FF1DE80FF91F8081E0DE8091A50290917E
:100FB000A6022091170130E0C29FF001C39FF00DFF
:100FC000D29FF00D11248E0D9F1DE80FF91F029F77
:100FD000D001039FB00D129FB00D1124A80FB91FAF
:100FE0008C918083C39420911701C21650F2E801BE
:100FF00060911601862F90E00297C817D9070CF46C
:10100000B8CF6230D0F1625080E032DF00E010E211
:1010100030C0C02FD0E08091160190E0029750E0E0
:10102000849F9001859F300D949F300D1124E09195
:10103000A502F091A602EC0FFD1FE20FF31F8081C5
:1010400094DE8091160190E002974091170150E0E4
:10105000849F9001859F300D949F300D1124E09165
:10106000A502F091A602EC0FFD1FE20FF31F108303
:101070000F5F40911701041760F2609116016150F3
:1010800080E0F6DE10E003C080E26FDE1F5F80913B
:1010900017011817C8F303C04F5F4093A7021092BF
:1010A000A8028091A8026091A702E2DE2D2D3327CD
:1010B00027FD3095C901CDB7DEB7E8E021C68091A4
:1010C000A5029091A602009709F0DED620911601A4
:1010D00030E0215030408091170190E0AC01249F16
:1010E000C001259F900D349F900D112435D690930B
:1010F000A6028093A502009719F1A0E0B0E208C013
:10110000E091A502F091A602E20FF31FB083AF5F5A
:101110002A2F30E08091160190E00197609117012D
:1011200070E0869FA001879F500D969F500D11245F
:10113000241735072CF387E597E064E276E043C790
:101140000895BDCF0895282F30E0F901EE0FFF1F5D
:1011500043E0220F331F4A95E1F7E20FF31FE85EE9
:10116000FE4F82810895282F30E0F901EE0FFF1F16
:1011700073E0220F331F7A95E1F7E20FF31FE85E69
:10118000FE4F4181282F30E0F901EE0FFF1F53E0A1
:10119000220F331F5A95E1F7E20FF31FE85EFE4F6F
:1011A00081E09381491380E00895282F30E0F90110
:1011B000EE0FFF1FB3E0220F331FBA95E1F7E20FE6
:1011C000F31FE85EFE4F408551854115510509F436
:1011D00052C0282F30E0F901EE0FFF1F73E0220FFD
:1011E000331F7A95E1F7E20FF31FE85EFE4F72813D
:1011F000282F30E0F901EE0FFF1FB3E0220F331F5D
:10120000BA95E1F7E20FF31FE85EFE4F948179177C
:1012100090F5282F30E0F901EE0FFF1F73E0220F49
:10122000331F7A95E1F7E20FF31FE85EFE4F9281DC
:10123000490F511DFA016083282F30E0F901EE0FAC
:10124000FF1F53E0220F331F5A95E1F7E20FF31F00
:10125000E85EFE4F92819F5F282F30E0F901EE0F8C
:10126000FF1FB3E0220F331FBA95E1F7E20FF31F20
:10127000E85EFE4F9283282F30E0F901EE0FFF1F4A
:1012800073E0220F331F7A95E1F7E20FF31FE85E58
:10129000FE4F4281282F30E0F901EE0FFF1F53E08F
:1012A000220F331F5A95E1F7E20FF31FE85EFE4F5E
:1012B0009481491701F5282F30E0F901EE0FFF1F47
:1012C00093E0220F331F9A95E1F7E20FF31FE85ED8
:1012D000FE4F9581992379F0282F30E0F901EE0F28
:1012E000FF1FB3E0220F331FBA95E1F7E20FF31FA0
:1012F000E85EFE4F128208950F931F93182F8230DD
:1013000009F474C0882319F4E1ECF0E002C0E9ECC0
:10131000F0E080818F778083812F90E0FC01EE0FD9
:10132000FF1F03E0880F991F0A95E1F7E80FF91FE7
:10133000E85EFE4F808591850097A1F1212F30E076
:10134000F901EE0FFF1FA3E0220F331FAA95E1F76B
:10135000E20FF31FE85EFE4F9281212F30E0F9018A
:10136000EE0FFF1F63E0220F331F6A95E1F7E20FD4
:10137000F31FE85EFE4F84819817A0F4112319F43F
:10138000E0ECF0E002C0E8ECF0E0808187FF0AC00A
:10139000112319F4E6ECF0E002C0EEECF0E060811D
:1013A000812F03DF212F30E0F901EE0FFF1F43E013
:1013B000220F331F4A95E1F7E20FF31FE85EFE4F5D
:1013C0008081882309F057C0112319F4E1ECF0E083
:1013D00002C0E9ECF0E08081806880834CC080919D
:1013E0003101882319F010922E0145C080913401FB
:1013F00090913501009709F43EC090912E018091A3
:1014000030019817C0F58091AE02882399F470D30B
:101410008093AE0210E00AC068D3E02FF0E031976D
:10142000E11BF109E155FD4F80831F5F0091AE0282
:10143000101790F3A091AE02AA23E9F080912E013B
:10144000E0913401F0913501E80FF11DA150A09316
:10145000AE02B0E0A155BD4F8C91808380912E01EA
:101460008F5F80932E0190912E018091300198170B
:1014700009F0BCCFB4CF1F910F910895823051F085
:10148000882319F4E1ECF0E002C0E9ECF0E090818F
:101490009F779083A82FB0E0FD01EE0FFF1F53E070
:1014A000AA0FBB1F5A95E1F7EA0FFB1FE85EFE4F3C
:1014B00071876087682F70E0FB01EE0FFF1F93E0DC
:1014C000660F771F9A95E1F7E60FF71FE85EFE4F6C
:1014D0001282682F70E0FB01EE0FFF1FA3E0660F82
:1014E000771FAA95E1F7E60FF71FE85EFE4F4483EA
:1014F000482F50E0FA01EE0FFF1F63E0440F551F25
:101500006A95E1F7E40FF51FE85EFE4F2583823010
:10151000D9F0282F30E0F901EE0FFF1F43E0220F32
:10152000331F4A95E1F7E20FF31FE85EFE4F90810B
:10153000992351F4882319F4E1ECF0E002C0E9ECBE
:10154000F0E0808180688083089521E097CFFDCF0F
:1015500008951F920F920FB60F920BB60F9211249F
:101560002F933F934F935F936F937F938F939F93AB
:10157000AF93BF93EF93FF936091C60080E015DEB9
:10158000FF91EF91BF91AF919F918F917F916F915B
:101590005F914F913F912F910F900BBE0F900FBE17
:1015A0000F901F9018951F920F920FB60F920BB6C7
:1015B0000F9211242F933F934F935F936F937F93D9
:1015C0008F939F93AF93BF93EF93FF936091CE0060
:1015D00081E0EBDDFF91EF91BF91AF919F918F91F2
:1015E0007F916F915F914F913F912F910F900BBE23
:1015F0000F900FBE0F901F901895882319F4E1ECFF
:10160000F0E002C0E9ECF0E0808180628083089520
:10161000882319F4E1ECF0E002C0E9ECF0E080810D
:101620008F7D80830895282F30E0F901EE0FFF1F92
:1016300093E0220F331F9A95E1F7E20FF31FE85E64
:10164000FE4F268137812115310591F1282F30E099
:10165000F901EE0FFF1FA3E0220F331FAA95E1F758
:10166000E20FF31FE85EFE4F4181282F30E0F901C1
:10167000EE0FFF1F63E0220F331F6A95E1F7E20FC1
:10168000F31FE85EFE4F9381491790F4282F30E056
:10169000F901EE0FFF1F43E0220F331F4A95E1F7D8
:1016A000E20FF31FE85EFE4F9081992309F4A5CF66
:1016B000AFCF823029F1282F30E0F901EE0FFF1F64
:1016C00053E0220F331F5A95E1F7E20FF31FE85E54
:1016D000FE4F9081992349F4882319F4E1ECF0E05E
:1016E00002C0E9ECF0E098E908C0882319F4E1ECC5
:1016F000F0E002C0E9ECF0E098E1908394DF7894A8
:101700000895882319F0813029F402C080E0D1CFF8
:1017100081E0CFCF0895A0E0B0E0E0E9FBE0D5C2E2
:10172000D82E7A018B01EDDF8D2D8230F1F0DD2096
:1017300019F4C4ECD0E002C0CCECD0E0C801B70191
:1017400028EF3FEF4FEF5FEF37D26050734D8E4C75
:101750009E4FA8019701E4E0220F331F441F551F3D
:10176000EA95D1F75FD239832883CDB7DEB7E7E0BA
:10177000C8C2D1CF0895282F30E0F901EE0FFF1F26
:1017800073E0220F331F7A95E1F7E20FF31FE85E53
:10179000FE4F468157814115510509F465C0282F38
:1017A00030E0F901EE0FFF1F93E0220F331F9A95EF
:1017B000E1F7E20FF31FE85EFE4F6181282F30E072
:1017C000F901EE0FFF1FA3E0220F331FAA95E1F7E7
:1017D000E20FF31FE85EFE4F9381691708F044C0E3
:1017E000882319F4E0ECF0E002C0E8ECF0E090812E
:1017F00095FF3AC0882319F4A6ECB0E002C0AEEC25
:10180000B0E0282F30E0F901EE0FFF1F63E0220F58
:10181000331F6A95E1F7E20FF31FE85EFE4F9181F7
:10182000490F511DFA0190819C93282F30E0F90156
:10183000EE0FFF1F93E0220F331F9A95E1F7E20F9F
:10184000F31FE85EFE4F91819F5F282F30E0F90182
:10185000EE0FFF1FA3E0220F331FAA95E1F7E20F5F
:10186000F31FE85EFE4F9183DECE1F93182F823068
:1018700021F0CEDE812F7FDF1CC08091320190915C
:1018800033010097B1F030912D0120912F013217D3
:1018900080F406C080912D018F5F80932D01EDCFE4
:1018A00020912D01820F911DFC01808125D188237B
:1018B00089F71F91089580E0D8DF81E0D6DF82E0CC
:1018C000D4DF80E019DD81E017DD82E015CDF3CFB4
:1018D0000895282F30E0F901EE0FFF1F93E0220F4B
:1018E000331F9A95E1F7E20FF31FE85EFE4F77830F
:1018F0006683282F30E0F901EE0FFF1FA3E0220FCF
:10190000331FAA95E1F7E20FF31FE85EFE4F118245
:10191000282F30E0F901EE0FFF1F63E0220F331F85
:101920006A95E1F7E20FF31FE85EFE4F43838230D2
:1019300009F079CE0895CDCF08951F920F920FB67A
:101940000F920BB60F9211242F933F934F935F93F7
:101950006F937F938F939F93AF93BF93EF93FF9377
:1019600080E009DFFF91EF91BF91AF919F918F913F
:101970007F916F915F914F913F912F910F900BBE8F
:101980000F900FBE0F901F9018951F920F920FB6D9
:101990000F920BB60F9211242F933F934F935F93A7
:1019A0006F937F938F939F93AF93BF93EF93FF9327
:1019B00081E0E1DEFF91EF91BF91AF919F918F9117
:1019C0007F916F915F914F913F912F910F900BBE3F
:1019D0000F900FBE0F901F9018956F9364E06A955B
:1019E000F1F76F910197C9F708952F928F939F9305
:1019F0002FB68091B8029091B90201968093B802F7
:101A00009093B90290E08091BA02891F8093BA0244
:101A10009091C0029C5F9093C0028091BF02805160
:101A20009742C0F09093C0028093BF028091BB02A6
:101A30009091BC0201968093BB029093BC0290E00F
:101A40008091BD02891F8093BD028091BE02891FD3
:101A50008093BE022FBE9F918F912F901895CF93A8
:101A6000DF93EC0104C088EE93E0B7DF2197209765
:101A7000D1F7DF91CF910895F2CF0895E0E7F0E03C
:101A800080818E7F8083A0EBB0E08C9183608C930B
:101A9000A1EBB0E08C91807F8C938C9182608C93D1
:101AA000B89A808181608083789408958091C10282
:101AB000882321F481E08093C102E0CF0895F6DF0E
:101AC000E0E7F0E080818E7F80832091BB0230913F
:101AD000BC024091BD025091BE0280818160808332
:101AE000B901CA010895EBCF08958FEF64E041C0BA
:101AF00083E867E03ED0F9CF1F93182F982F909579
:101B0000991F9927991F85E8891B65E032D0812F9D
:101B10008F7765E02ED01F9108956F9364E06A95EA
:101B2000F1F76F910197C9F70895A1E0B0E0EAE9F4
:101B3000FDE0CFC0182F249908C02C9906C02C9A1C
:101B40008EE190E06983E9DF698184B1806A84B9BC
:101B50002698812F837080656C7A862B8CBD81E0FE
:101B600012FF80E08DBD81E090E079DF2196E3E017
:101B7000CCC00F931F93082F162F0CB406FC03C084
:101B800080E064E0D2DF0CB404FC03C08CB580615B
:101B90008CBD0EBD03C00CB404FE0AC00DB407FE1C
:101BA000FACF112319F0812F90E0B7DF8EB501C075
:101BB00080E01F910F910895DB018F939F9370D068
:101BC000BF91AF91A29F800D911DA39F900DB29FD9
:101BD000900D11240895AA1BBB1B51E107C0AA1F39
:101BE000BB1FA617B70710F0A61BB70B881F991FBE
:101BF0005A95A9F780959095BC01CD01089597FB62
:101C0000072E16F4009406D077FD08D0E4DF07FC19
:101C100005D03EF4909581959F4F089570956195FC
:101C20007F4F0895A1E21A2EAA1BBB1BFD010DC018
:101C3000AA1FBB1FEE1FFF1FA217B307E407F5077C
:101C400020F0A21BB30BE40BF50B661F771F881F58
:101C5000991F1A9469F760957095809590959B01EE
:101C6000AC01BD01CF010895052E97FB16F4009439
:101C70000FD057FD05D0D6DF07FC02D046F408C0D0
:101C800050954095309521953F4F4F4F5F4F0895A8
:101C900090958095709561957F4F8F4F9F4F0895D8
:101CA0004CD0A59F900DB49F900DA49F800D911DC9
:101CB000112408952F923F924F925F926F927F92DC
:101CC0008F929F92AF92BF92CF92DF92EF92FF924C
:101CD0000F931F93CF93DF93CDB7DEB7CA1BDB0BF8
:101CE0000FB6F894DEBF0FBECDBF09942A8839889D
:101CF00048885F846E847D848C849B84AA84B984A4
:101D0000C884DF80EE80FD800C811B81AA81B981AF
:101D1000CE0FD11D0FB6F894DEBF0FBECDBFED01C3
:101D200008950024A7FD00942A0F301D401D501D6A
:101D3000601D701D801D901D0895A29FB001B39F6E
:101D4000C001A39F700D811D1124911DB29F700DC4
:101D5000811D1124911D0895CF93DF938230910549
:101D600010F482E090E0E0911003F091110320E084
:101D700030E0A0E0B0E0309739F140815181481760
:101D80005907B8F04817590771F482819381109769
:101D900029F013969C938E9312972CC09093110365
:101DA0008093100327C02115310531F042175307E6
:101DB00018F0A901DB0101C0EF019A01BD01DF01AB
:101DC0000280F381E02DD7CF21153105F9F0281BD2
:101DD000390B2430310580F48A819B8161157105AE
:101DE00021F0FB019383828304C0909311038093BD
:101DF0001003FE01329644C0FE01E20FF31F8193EF
:101E0000919322503109398328833AC020910E03DF
:101E100030910F03232B41F4209140013091410177
:101E200030930F0320930E0320913E0130913F0128
:101E30002115310541F42DB73EB740914201509133
:101E40004301241B350BE0910E03F0910F03E217C1
:101E5000F307A0F42E1B3F0B2817390778F0AC01CD
:101E60004E5F5F4F2417350748F04E0F5F1F5093AA
:101E70000F0340930E038193919302C0E0E0F0E0E2
:101E8000CF01DF91CF910895CF93DF93009709F4AD
:101E900087C0FC01329713821282C0911003D09147
:101EA0001103209781F420813181280F391F8091FF
:101EB0000E0390910F038217930779F5F0930F03A8
:101EC000E0930E036DC0DE0120E030E0AE17BF07E7
:101ED00050F412964D915C9113979D014115510557
:101EE00009F1DA01F3CFB383A28340815181840FDA
:101EF000951F8A179B0771F48D919C911197840F00
:101F0000951F02969183808312968D919C911397D1
:101F1000938382832115310529F4F0931103E09313
:101F200010033EC0D9011396FC93EE9312974D9186
:101F30005D91A40FB51FEA17FB0779F480819181A9
:101F4000840F951F0296D90111969C938E938281DE
:101F5000938113969C938E931297E0E0F0E08A8130
:101F60009B81009719F0FE01EC01F9CFCE0102969A
:101F700028813981820F931F20910E0330910F0326
:101F80002817390769F4309729F410921103109239
:101F9000100302C013821282D0930F03C0930E036A
:101FA000DF91CF910895FB01DC010D900020E9F74E
:101FB00011974150504028F0019000200D92C9F730
:101FC00008951C9208950F931F93CF93DF93EC0114
:101FD0008B01009731F46115710519F480E090E0F0
:101FE00037C06EE070E081E090E06BD5FC010097B7
:101FF000A9F380E883830115110571F01387028727
:1020000081E883838091120390911303892B21F43B
:10201000F0931303E09312032097C9F0D187C08790
:102020008381826083838091140390911503892BAF
:1020300071F4F0931503E0931403809116039091CB
:102040001703892B21F4F0931703E0931603CF01B4
:10205000DF91CF911F910F910895CF93DF93CDB76B
:10206000DEB7FE01359661917191AF018091140345
:10207000909115037FD0DF91CF9108950F931F9317
:10208000CF93DF93E0911403F0911503238121FF97
:102090001BC0EC0100E010E0899160911403709185
:1020A0001503DB011896ED91FC911997882331F007
:1020B0000995892B89F30FEF1FEFEECF8AE0099581
:1020C000892B11F4C80102C08FEF9FEFDF91CF91F0
:1020D0001F910F9108950F931F93CF93DF93CDB767
:1020E000DEB72E970FB6F894DEBF0FBECDBF0D89B9
:1020F0001E8986E08C831A8309838FEF9FE79E8376
:102100008D83AE01475E5F4F6F89788DCE0101965A
:1021100031D0EF81F885E00FF11F10822E960FB6B7
:10212000F894DEBF0FBECDBFDF91CF911F910F910D
:102130000895CF93DF93CDB7DEB72E970FB6F894FF
:10214000DEBF0FBECDBF85E08C838B899C899A83CF
:102150008983AE01495E5F4F6D897E89CE0101960C
:1021600087D32E960FB6F894DEBF0FBECDBFDF919A
:10217000CF9108952F923F924F925F926F927F92EC
:102180008F929F92AF92BF92CF92DF92EF92FF9287
:102190000F931F93CF93DF93CDB7DEB72C970FB676
:1021A000F894DEBF0FBECDBF7C016B018A01FC013C
:1021B00017821682838181FFB0C1CE0101964C0146
:1021C000F7019381F60193FD859193FF81916F0152
:1021D000882309F49EC1853239F493FD859193FFDC
:1021E00081916F01853221F4B70190E0F2D4E8CFFC
:1021F000512C312C20E02032A0F48B3269F030F4E5
:10220000803259F0833269F420612CC08D3239F06C
:10221000803339F4216026C02260246023C0286006
:1022200021C027FD27C030ED380F3A3078F426FF63
:1022300006C0FAE05F9E300D1124532E13C08AE0D1
:10224000389E300D1124332E20620CC08E3221F4C2
:1022500026FD5FC1206406C08C3611F4206802C0E0
:10226000883641F4F60193FD859193FF81916F01CA
:102270008111C1CF982F9F7D9554933028F40C5F26
:102280001F4FFFE3F9830DC0833631F0833771F0C0
:10229000833509F057C021C0F801808189830E5F22
:1022A0001F4F44244394512C540114C03801F2E0D0
:1022B0006F0E711CF801A080B18026FF03C0652D50
:1022C00070E002C06FEF7FEFC5012C8739D42C017D
:1022D00083012C852F77222E16C03801F2E06F0E75
:1022E000711CF801A080B18026FF03C0652D70E04D
:1022F00002C06FEF7FEFC5012C8710D42C012C8515
:102300002068222E830123FC19C0832D90E04816FB
:102310005906A0F4B70180E290E05BD43A94F5CF7F
:10232000F50127FC859127FE81915F01B70190E0BF
:1023300050D431103A94F1E04F1A5108411451042D
:1023400079F7DEC0843611F0893631F5F80127FFC0
:1023500007C060817181828193810C5F1F4F08C02B
:1023600060817181882777FD8095982F0E5F1F4FC0
:102370002F76B22E97FF09C0909580957095619544
:102380007F4F8F4F9F4F2068B22E2AE030E0A4018C
:102390006BD4A82EA81843C0853729F42F7EB22EFF
:1023A0002AE030E025C0F22FF97FBF2E8F36C1F032
:1023B00018F4883579F0ADC0803719F0883721F0EE
:1023C000A8C02F2F2061B22EB4FE0DC08B2D8460CB
:1023D000B82E09C024FF0AC09F2F9660B92E06C0F0
:1023E00028E030E005C020E130E002C020E132E02A
:1023F000F801B7FE07C060817181828193810C5F13
:102400001F4F06C06081718180E090E00E5F1F4F1A
:10241000A4012AD4A82EA818FB2DFF77BF2EB6FE44
:102420000BC02B2D2E7FA51450F4B4FE0AC0B2FCB5
:1024300008C02B2D2E7E05C07A2C2B2D03C07A2CA4
:1024400001C0752C24FF0DC0FE01EA0DF11D808135
:10245000803311F4297E09C022FF06C0739473945F
:1024600004C0822F867809F0739423FD12C020FFE8
:1024700006C05A2C731418F4530C5718732C731489
:1024800060F4B70180E290E02C87A3D373942C858D
:10249000F6CF731410F4371801C0312C24FF11C08B
:1024A000B70180E390E02C8794D32C8522FF16C0DF
:1024B00021FF03C088E590E002C088E790E0B70103
:1024C0000CC0822F867851F021FD02C080E201C04D
:1024D0008BE227FD8DE2B70190E07BD3A51430F4A9
:1024E000B70180E390E075D35A94F8CFAA94F40131
:1024F000EA0DF11D8081B70190E06BD3A110F6CFFA
:10250000332009F45DCEB70180E290E062D33A94C3
:10251000F7CFF7018681978102C08FEF9FEF2C964E
:102520000FB6F894DEBF0FBECDBFDF91CF911F91E4
:102530000F91FF90EF90DF90CF90BF90AF909F9062
:102540008F907F906F905F904F903F902F90089565
:1025500020FD09C0FC0123FD05C022FF02C07383DA
:10256000628351834083089544FD10C046FD10C02E
:10257000DB01FC01AA0FBB1FEE1FFF1F1094D1F758
:102580006A0F7B1F8E1F9F1F31E003C033E001C025
:1025900034E0660F771F881F991F3150D1F7620F03
:1025A000711D811D911D08950F931F93CF93DF938C
:1025B0008C01C801D0D2EC0197FD06C09CD2892BBA
:1025C000C1F7B801CE0137D3CE01DF91CF911F9172
:1025D0000F9108958F929F92AF92CF92DF92EF92D8
:1025E000FF920F931F93CF93DF93EC01A62E4A0126
:1025F000022FB1D2AC0155274B32510521F04D329B
:10260000510549F40068AA9411F480E060C0CE013D
:10261000A2D297FDFACF102F1D7F302F3073F1F427
:102620008033E1F4FF24FA94FA0C09F43DC0CE01A2
:1026300092D297FD39C0382F3F7D383549F4126466
:10264000AA94AA9489F1CE0186D297FF07C02CC024
:1026500006FF02C0126001C01261AF2CC12CD12C48
:10266000760120ED280F283078F014FF03C0BE015A
:10267000E2D217C02A3040F016FFF9CF2F7D3FEE8F
:10268000320F3630A0F72750412FC701B6016CDF5B
:102690006B017C011260AA9451F0CE015CD297FFCD
:1026A000E0CF11FD04C0B1CFC12CD12C760117FFB2
:1026B00008C0F094E094D094C094C11CD11CE11CDB
:1026C000F11C212FB701A601C40142DF81E0DF9197
:1026D000CF911F910F91FF90EF90DF90CF90AF902F
:1026E0009F908F9008957F928F929F92AF92BF920A
:1026F000CF92DF92EF92FF920F931F93CF93DF93CE
:10270000CDB7DEB7A1970FB6F894DEBF0FBECDBF31
:102710005C017A018E010F5F1F4F680180E2D801D2
:102720001D928A95E9F7F501738040E050E0812C15
:10273000B0E0912C81E090E0F90173FCA59173FE6B
:10274000A1918F017A2F9F01A11103C080E090E039
:102750007BC0AE3519F44115510559F1E92DF0E072
:10276000E417F5073CF4AD3569F1AD3219F4BB233C
:1027700019F103C0B11101C08A2EE72FE695E69545
:10278000E69586010E0F111DF801A72FA7708C0189
:1027900002C0000F111FAA95E2F7D801B081BA2B31
:1027A000B083781559F0781510F47F5FE6CF71503B
:1027B000E4CF9924939403C0B1E001C0B0E04F5F2F
:1027C0005F4FBACFBB2319F08E8180628E83911048
:1027D00003C09924939415C0F601CE0181962081FF
:1027E00020952193E817F907D1F7F3CFE114F1040D
:1027F00029F0D7018C93F70131967F016150F1F0F8
:10280000912CC50169A3A7D169A197FD15C0282FF7
:10281000269526952695F601E20FF11D208130E0E0
:10282000AC014770552702C0359527954A95E2F7C8
:1028300020FDDCCFB501FFD1911088CFE114F10468
:1028400011F0D7011C92C801A1960FB6F894DEBF13
:102850000FBECDBFDF91CF911F910F91FF90EF90F1
:10286000DF90CF90BF90AF909F908F907F90089512
:102870004F925F927F928F929F92AF92BF92CF9230
:10288000DF92EF92FF920F931F93CF93DF931F92EC
:10289000CDB7DEB78C012B017A01FC0117821682BD
:1028A000A12CF801D380F201D3FC8591D3FE819154
:1028B000382F2F01882309F4EEC090E039831BD113
:1028C0003981892B19F0C8016FDEEBCF353241F425
:1028D000F201D3FC3591D3FE31912F01353259F4F9
:1028E000C801398338D1398197FDD3C03817C9F26F
:1028F000B801A1D1D0C03A3241F4D3FC3591D3FE16
:1029000031912F01BB24B39401C0B12C712C20ED67
:10291000230F2A3088F4FB2DF260BF2E672D70E064
:1029200080E090E040E220DE762EF201D3FC35918B
:10293000D3FE31912F01EBCFB1FE03C0711003C064
:10294000AAC077247A94383619F03C3661F014C066
:10295000F201D3FC3591D3FE31912F01383661F469
:10296000FB2DF860BF2E8B2D8460B82EF201D3FCB6
:102970003591D3FE31912F01332309F48CC0632F9D
:1029800070E08CE890E03983BED03981892B09F45E
:1029900082C0B0FC07C0F701C080D180C701029699
:1029A0007C0102C0C12CD12C3E3649F4F80146818D
:1029B000578160E070E02B2DC601CADD72CF33363F
:1029C00099F4B1FC02C077247394C801C4D097FD78
:1029D00060C0C114D10429F0F6018083C6010196BC
:1029E0006C017A9491F751C03B3551F49201A601E4
:1029F000672DC80178DE2C01009709F046C040C061
:102A0000C8013983D1DD398197FD43C03F3651F18B
:102A100028F4343619F1393661F128C0333769F0BA
:102A20003537E1F023C0C114D10429F0F6018082CA
:102A3000C60101966C017A9459F0C8018CD04C0102
:102A400097FD06C058D0892B71F3B801C401F3D0AB
:102A5000C114D104D1F0F601108217C0FB2DF06231
:102A6000BF2E07C08B2D8061B82E03C09B2D9064B4
:102A7000B92E2B2DA601672DC801ACDD811105C033
:102A8000F8018381807329F406C0B0FC0ACFA394B7
:102A900008CFAA2019F08A2D90E002C08FEF9FEF97
:102AA0000F90DF91CF911F910F91FF90EF90DF90EA
:102AB000CF90BF90AF909F908F907F905F904F90FE
:102AC00008950F931F93CF93DF93869F8001879F75
:102AD000100D969F100D1124C8013ED9EC010097EE
:102AE00021F0A80160E070E024D0CE01DF91CF9109
:102AF0001F910F910895911115C1803219F08950DD
:102B00008550D0F70895FC010590061621F00020AD
:102B1000D9F7C00108953197CF010895FC010590C0
:102B2000615070400110D8F7809590958E0F9F1FCF
:102B30000895DC0101C06D9341505040E0F70895C5
:102B4000FC016150704001900110D8F7809590957C
:102B50008E0F9F1F0895CF93DF93EC012B8120FFF1
:102B600033C026FF0AC02F7B2B838E819F81019665
:102B70009F838E838A8190E029C022FF0FC0E88165
:102B8000F9818081992787FD9095009719F420623B
:102B90002B831AC03196F983E8830EC0EA85FB8542
:102BA000099597FF09C02B81019611F480E101C0BE
:102BB00080E2822B8B8308C02E813F812F5F3F4FA5
:102BC0003F832E83992702C08FEF9FEFDF91CF9134
:102BD00008950F931F93CF93DF93182F092FEB01C5
:102BE0008B8181FD03C08FEF9FEF20C082FF10C05B
:102BF0004E815F812C813D81421753077CF4E8812F
:102C0000F9819F012F5F3F4F39832883108306C0CE
:102C1000E885F985812F0995892B29F72E813F8138
:102C20002F5F3F4F3F832E83812F902FDF91CF91D6
:102C30001F910F910895FB01238120FF12C026FDF3
:102C400010C08F3F3FEF930761F082832F7D206498
:102C500023832681378121503109378326839927A1
:102C600008958FEF9FEF0895FA01AA27283051F1B8
:102C7000203181F1E8946F936E7F6E5F7F4F8F4FAD
:102C80009F4FAF4FB1E03ED0B4E03CD0670F781F0C
:102C9000891F9A1FA11D680F791F8A1F911DA11DF1
:102CA0006A0F711D811D911DA11D20D009F468942A
:102CB0003F912AE0269F11243019305D3193DEF6D2
:102CC000CF010895462F4770405D4193B3E00FD088
:102CD000C9F7F6CF462F4F70405D4A3318F0495D73
:102CE00031FD4052419302D0A9F7EACFB4E0A69556
:102CF0009795879577956795BA95C9F70097610578
:102D0000710508959B01AC010A2E069457954795CD
:102D100037952795BA95C9F7620F731F841F951FC2
:0E2D2000A01D0895992788270895F894FFCFE5
:102D2E0001000440000001002D3101010A000105DF
:102D3E00000500F401010210000000000000000078
:102D4E000000000000000000000000000100000074
:102D5E00000000000000FFFFFFFFFFFFFFFF00006D
:102D6E0018032000494E4954204C454473004361DA
:102D7E006E6E6F7420746F67676C65206E65676129
:102D8E0074697665206D732E00555342205365721B
:102D9E0069616C20496E697469616C697A65640D4C
:102DAE000A000D4D656E753A207B54505A7D207B7E
:102DBE00524759417D203C696E743E3A200025638E
:102DCE00202563202564004F703A256320433A2561
:102DDE006320563A25640D0A0042616420436F6CED
:102DEE006F722E20547279207B524759417D0D0A05
:102DFE00005220746F67676C65733A2025640D0A64
:102E0E00004720746F67676C65733A2025640D0A5E
:102E1E00005920746F67676C65733A2025640D0A3C
:102E2E0000546F67676C657320523A256420473AE9
:102E3E00256420593A25640D0A0044656661756C57
:102E4E007420696E207028636F6C6F72292E204873
:102E5E006F773F0D0A0044656661756C7420696E6C
:102E6E00207A28636F6C6F72292E20486F773F0D82
:102E7E000A00436F6D6D616E6420646F6573206E22
:102E8E006F7420636F6D707574652E0D0A00525845
:102E9E0020282564293A202573000A525820282517
:082EAE0064293A2025730A0093
:00000001FF
