:10000000CCC00000E9C00000E7C00000E5C000006F
:10001000E3C00000FCC00000DFC00000DDC0000045
:10002000DBC00000D9C00000D7C000000C946F11E5
:10003000D3C00000D8C00000CFC00000CDC0000079
:10004000CBC00000C9C00000C7C00000C5C0000090
:100050000C94210F0C941711BFC00000BDC000000C
:10006000BBC00000B9C00000B7C00000B5C00000B0
:100070000C944B0F0C943F11AFC00000ADC00000BA
:10008000ABC00000A9C00000A7C000006E616E00F8
:10009000696E660000407A10F35A00A0724E18098B
:1000A0000010A5D4E80000E87648170000E40B54DF
:1000B000020000CA9A3B000000E1F50500008096AE
:1000C0009800000040420F000000A08601000000E0
:1000D000102700000000E80300000000640000009A
:1000E00000000A00000000000100000000002C7663
:1000F000D888DC674F0823DFC1DFAE59E1B1B7967E
:10010000E5E3E453C63AE651997696E8E6C28426DA
:10011000EB898C9B62ED407C6FFCEFBC9C9F40F2B6
:10012000BAA56FA5F490055A2AF75C936B6CF96732
:100130006DC11BFCE0E40D47FEF520E6B500D0EDF7
:10014000902E0300943577050080841E080000205F
:100150004E0A000000C80C333333330F986E1283FD
:100160001141EF8D2114893BE65516CFFEE6DB18D1
:10017000D1844B381BF77C1D901DA4BBE424203296
:1001800084725E228100C9F124ECA1E53D276364FD
:10019000696E6F70737578585B0011241FBECFEFC6
:1001A000D0E4DEBFCDBF14E0A0E0B1E0EAE7FEE3BB
:1001B00000E00BBF02C007900D92A633B107D9F73C
:1001C00025E0A6E3B4E001C01D92AC3BB207E1F725
:1001D0000E947A0A0C943B1F13CF809101018F5F1C
:1001E0008093010108951F920F920FB60F92112470
:1001F0008F939F9381E090E090935B0480935A04E7
:100200009F918F910F900FBE0F901F9018951F9286
:100210000F920FB60F9211248F939F9381E0029B50
:1002200080E08093510581E0039B80E08093B604D9
:100230009091510580910C01981749F080914305E8
:1002400090914405019690934405809343059091C5
:10025000B60480910D01981749F080914305909163
:10026000440501979093440580934305909151056F
:1002700080910D01981761F09091B60480910C0166
:10028000981731F081E090E090935D0480935C04D6
:100290008091510580930D018091B60480930C01EB
:1002A0009F918F910F900FBE0F901F90189584B75C
:1002B000877F84BFE0E6F0E08081877F80830895B8
:1002C000CF92DF92EF92FF9260912C0170912D01FD
:1002D00080912E0190912F010E94AB162091260152
:1002E0003091270140912801509129010E945F1708
:1002F0006B017C0160912A0170912B01882777FDA9
:100300008095982F0E94AB169B01AC01C701B601E6
:100310000E94101620E030E040E85FE30E94A7153D
:100320000E9478166115710521E08207910524F07D
:100330006FEF7FEF80E090E0CB01FF90EF90DF90D8
:10034000CF900895CF93DF93C0E8D0E01882A1E862
:10035000B0E01C92E2E8F0E010821092850010926A
:1003600084008881836488838C918D618C938081E3
:100370008083EFE6F0E0808182608083A1DF90934C
:1003800089008093880081E090E090938B008093B7
:100390008A0020910401309105014091060150919D
:1003A00007016091260170912701809128019091A9
:1003B00029010E945F176093B2047093B304809385
:1003C000B4049093B504DF91CF9108950A98129ADE
:1003D0000B98139AE8E6F0E0808182608083ECE677
:1003E000F0E08081846080838081886080830895CC
:1003F00083E28093B00082E08093B1001092B3005A
:100400001092B4005E984698569A3E9A089590933A
:100410007F0480937E0497FD06C090937D048093B3
:100420007C0440E008C091958195910990937D04EA
:1004300080937C0441E080912401909125012091DA
:100440007C0430917D048217930724F490937D04FB
:1004500080937C0480917C048093B400442311F049
:10046000469A089546980895A4E0B0E0EAE3F2E0E1
:100470000C9448180E94A7156B017C0160938004BE
:1004800070938104809382049093830420912601C9
:100490003091270140912801509129010115110542
:1004A00039F10E945F172091AE043091AF04409162
:1004B000B0045091B1040E94A8154B015C016093F7
:1004C000AE047093AF048093B0049093B104409055
:1004D0004D0550904E0560904F0570905005C092AC
:1004E0004D05D0924E05E0924F05F092500526C082
:1004F0000E945F172091B7043091B8044091B9046D
:100500005091BA040E94A8154B015C016093B70496
:100510007093B8048093B9049093BA04409049054D
:1005200050904A0560904B0570904C05C09249056B
:10053000D0924A05E0924B05F0924C0520911C01A7
:1005400030911D0140911E0150911F01C701B6015C
:100550000E945F1769837A838B839C832091620456
:10056000309163044091640450916504C501B40165
:100570000E945F179B01AC0169817A818B819C810C
:100580000E94A8154B015C01A3019201C701B601AD
:100590000E94A71520912601309127014091280142
:1005A000509129010E94101620915E0430915F0441
:1005B00040916004509161040E945F179B01AC015F
:1005C000C501B4010E94A8152496E0E10C946418BA
:1005D000CF93DF93C0914305D09144058091580497
:1005E00090915904BE01681B790B882777FD80958F
:1005F000982F0E94AB16209126013091270140913F
:100600002801509129010E94101660933F057093B4
:1006100040058093410590934205D0935904C093BF
:100620005804DF91CF910895CF93DF93C091430594
:10063000D09144058091560490915704BE01681BE7
:10064000790B882777FD8095982F0E94AB166093D1
:100650003B0570933C0580933D0590933E05D093F8
:100660005704C0935604DF91CF91089580936C0492
:1006700090936D0460936A0470936B0440936804D4
:10068000509369049C0197FF03C03195219531096E
:10069000CB0177FF03C0919581959109280F391FF0
:1006A000CA0157FF03C0919581959109820F931F4D
:1006B000909349048093480410923C0410923D04A6
:1006C00010923E0410923F0410925504109254046C
:1006D00010925304109252041092750410927404F4
:1006E00010927304109272041092710410927004AC
:1006F00010926F0410926E04109240041092410404
:1007000010924204109243041092670410926604FF
:1007100081E090E0909377048093760410927904BE
:100720001092780410927B0410927A0408956091DC
:100730003B0570913C0580913D0590913E050895E3
:1007400060913F057091400580914105909142056F
:10075000089580915A0490915B04089521E030E05F
:10076000892B11F020E030E030935B0420935A0491
:100770000895BC01882777FD8095982F0E94AB16BD
:100780006093440470934504809346049093470417
:10079000109279041092780481E090E090937B04A9
:1007A00080937A0410927704109276040895BC0125
:1007B000882777FD8095982F0E94AB1660934004A0
:1007C00070934104809342049093430420E030E00E
:1007D000A9010E940C1687FF03C08FEF9FEF02C094
:1007E00081E090E0909303018093020110924E0407
:1007F00010924F041092500410925104109267040A
:10080000109266048091430590914405909357049B
:100810008093560481E090E090937904809378046B
:1008200010927B0410927A0410927704109276044E
:100830000895CF93DF938091740490917504892B70
:1008400029F580916C0490916D04B1DFC1E0D0E096
:10085000D0937704C093760480916E0490916F04D6
:10086000892B89F084EF91E00E94B611D093750432
:10087000C093740410926F0410926E0480916A0405
:1008800090916B0494DF81E090E044C08091720409
:1008900090917304892BC9F480916E0490916F0438
:1008A000892B89F384EF91E00E94B61181E090E0FA
:1008B000909373048093720410926F0410926E04EC
:1008C0008091680490916904DDCF809170049091CB
:1008D0007104892BA9F480916E0490916F04892B87
:1008E00091F281E090E090937104809370041092F3
:1008F00040041092410410924204109243040AC032
:100900001092770410927604109279041092780471
:1009100080E090E0DF91CF910895A4E0B0E0E3E9BA
:10092000F4E00C94461880917A0490917B04892B12
:1009300009F487C04DDE20913F053091400540917C
:1009400041055091420560914404709145048091A5
:1009500046049091470401E010E086DD20913F05B8
:100960003091400540914105509142050E94A815E3
:100970000E94C2170E9478166B017C01882777FDC0
:100980008095982F0E94AB162091040130910501AB
:1009900040910601509107010E9410164B015C0125
:1009A0006091240170912501882777FD8095982F0B
:1009B0000E94AB169B01AC01C501B4010E945F17F8
:1009C0000E94C2170E947816CB0121DDB09044042A
:1009D000A0904504109146040091470420E030E0C7
:1009E000A901F501D8016F2F7E2F8B2F9A2F0E941E
:1009F0000C16882309F44FC2809136049091370475
:100A0000181619060CF047C2DF92CF92809142056A
:100A10008F93809141058F93809140058F938091B2
:100A20003F058F930F931F93AF92BF928CE991E094
:100A30009F938F930BEB14E01F930F930E94461B21
:100A400014C28091780490917904892BB9F4809133
:100A5000760490917704892B09F41DC220E030E0E0
:100A6000A9016091400470914104809142049091E9
:100A700043040E940C16882309F408C2D5DDC090F7
:100A80003B05D0903C05E0903D05F0903E0520915F
:100A90004E0430914F044091500450915104C701CD
:100AA000B6010E94A8159B01AC0160934E0470939F
:100AB0004F048093500490935104609140047091CE
:100AC000410480914204909143040E94A7158B0138
:100AD0003C018090B2049090B304A090B404B09014
:100AE000B504A50194010E945B17181684F0B7FAAB
:100AF000B094B7F8B094A5019401B801C3010E9465
:100B00000C1687FD04C0C801D3014C015D0100E053
:100B100010E0A7019601C501B401A6DC2091B20442
:100B20003091B3044091B4045091B5040E94101662
:100B30006B017C016091240170912501882777FD6C
:100B40008095982F0E94AB169B01AC01C701B6019E
:100B50000E945F170E94C2170E947816362E272E19
:100B6000062F172F8091400490914104A0914204D8
:100B7000B091430489839A83AB83BC83C0904E04B5
:100B8000D0904F04E0905004F0905104A7019601DA
:100B9000BC01CD010E94A7152B013C0120E030E0F3
:100BA000A9010E940C1618163CF080910201909148
:100BB00003011816190614F120E030E0A901C30161
:100BC000B2010E945B1787FD06C0809102019091DF
:100BD000030197FD13C020E030E0A90160913B05BF
:100BE00070913C0580913D0590913E050E940C1648
:100BF0008111E9C00115110509F4E5C070903B05AC
:100C000060903C0550903D0540903E0520E030E06E
:100C1000A901D301F2016B2F7A2F8F2F9E2F0E94F3
:100C20000C1681110DC00115110551F0809166045B
:100C300090916704019690936704809366040EC0B8
:100C400060912001709121018091220190912301F6
:100C50000E9478167093670460936604609166043E
:100C600070916704882777FD8095982F0E94AB16B6
:100C700020912001309121014091220150912301C6
:100C80000E940C168111A3C029813A814B815C819D
:100C9000C701B6010E94A715F62EE72ED82EC92E41
:100CA000809183048F93809182048F93809181043B
:100CB0008F93809180048F93BF92AF929F928F9277
:100CC000209126013091270140912801509129015E
:100CD000D301F2016B2F762D8F2F942D0E941016C9
:100CE0009F938F937F936F934F925F926F927F92B8
:100CF00082EC91E09F938F930BEB14E01F930F9383
:100D00000E94461BD8010D900020E9F7BD016150FB
:100D100071096B5B7440C8013DD2CF92DF92EF92B4
:100D2000FF92809143048F93809142048F9380912E
:100D300041048F93809140048F93809151048F934D
:100D4000809150048F9380914F048F9380914E0433
:100D50008F9382EF91E09F938F931F930F930E9445
:100D6000461BF80101900020E9F7BF0161507109AD
:100D70006B5B74400FB6F894DEBF0FBECDBFC801E9
:100D800009D281E090E090936F0480936E041092FA
:100D900040041092410410924204109243041092B5
:100DA0004E0410924F04109250041092510410926D
:100DB00079041092780480E090E029DB10926704B7
:100DC0001092660407C01092670410926604832D87
:100DD000922D1DDB8091780490917904892B09F480
:100DE0005AC08091360490913704181619060CF0F9
:100DF00052C010913B0500913C05F0903D05E090FC
:100E00003E052F923F92809183048F9380918204BC
:100E10008F93809181048F93809180048F93BF92F0
:100E2000AF929F928F92209126013091270140919D
:100E3000280150912901D801F7016B2F7A2F8F2FAC
:100E40009E2F0E9410169F938F937F936F93EF9224
:100E5000FF920F931F9389E192E09F938F930BEB87
:100E600014E01F930F930E94461BD8010D900020A1
:100E7000E9F7BD01615071096B5B7440C8018AD10B
:100E80000FB6F894DEBF0FBECDBF05C0D2DC909385
:100E900077048093760410925B0410925A0424968F
:100EA000E2E10C94621860914404709145048091D1
:100EB0004604909147040895609140047091410464
:100EC0008091420490914304089560911C017091B7
:100ED0001D0180911E0190911F010895609162048F
:100EE0007091630480916404909165040895609109
:100EF0005E0470915F048091600490916104089594
:100F000060931C0170931D0180931E0190931F013B
:100F100008956093620470936304809364049093D3
:100F20006504089560935E0470935F048093600489
:100F300090936104089597FF2AC020911801309181
:100F4000190140911A0150911B0160911C0170918F
:100F50001D0180911E0190911F010E94A7156093B1
:100F60001C0170931D0180931E0190931F0120E0CE
:100F700030E0A9010E940C1687FF25C010921C01C9
:100F800010921D0110921E0110921F010895892BCD
:100F9000D1F0209118013091190140911A0150911E
:100FA0001B0160911C0170911D0180911E019091A7
:100FB0001F010E94A81560931C0170931D0180936E
:100FC0001E0190931F01089597FF2AC020911401DC
:100FD0003091150140911601509117016091620402
:100FE0007091630480916404909165040E94A71538
:100FF0006093620470936304809364049093650427
:1010000020E030E0A9010E940C1687FF25C0109255
:1010100062041092630410926404109265040895AF
:10102000892BD1F0209114013091150140911601C6
:10103000509117016091620470916304809164047F
:10104000909165040E94A8156093620470936304F4
:101050008093640490936504089597FF2AC02091BB
:1010600010013091110140911201509113016091D2
:101070005E0470915F0480916004909161040E940D
:10108000A71560935E0470935F048093600490934F
:10109000610420E030E0A9010E940C1687FF25C002
:1010A00010925E0410925F0410926004109261042A
:1010B0000895892BD1F020911001309111014091B8
:1010C00012015091130160915E0470915F04809150
:1010D0006004909161040E94A81560935E0470936F
:1010E0005F048093600490936104089580917E046E
:1010F00090917F04089590937F0480937E040895D7
:1011000080910E0190910F01089560910E017091F0
:101110000F010C94961A81E090E09093370480932D
:10112000360408951092370410923604089590936F
:101130007B0480937A0408959093790480937804D3
:1011400008959093770480937604089580915C04C9
:1011500090915D04089580915105992787FD9095A0
:1011600008958091B604992787FD90950895809100
:101170004305909144050895809130018F5F8093DD
:101180003001089582E067D4811103C00E94E1100C
:10119000F9CF0895A1E0B0E0E0EDF8E00C94541828
:1011A0008C01462F60E080E04983F2D24981B8018A
:1011B00082E00E941511E6DF2196E4E00C9470189D
:1011C00040E855E260E070E082E04DD76AE170E00F
:1011D00086E692E0DFDF8091390190913A01FC01CF
:1011E00001900020E9F7BF0161507109681B790B7C
:1011F000D1DF8091370190913801FC0101900020EE
:10120000E9F7BF0161507109681B790BC3DF809159
:10121000350190913601FC0101900020E9F7BF01F2
:1012200061507109681B790BB5DF80913301909192
:101230003401FC0101900020E9F7BF016150710900
:10124000681B790BA7DF8091310190913201FC017D
:1012500001900020E9F7BF0161507109681B790B0B
:1012600099DF40E262E975E082E0E9C5ADE6B0E011
:10127000ECE3F9E00C9446188E010B591F4F1F93B5
:101280000F937E0127E6E20EF11CFF92EF9221E818
:1012900032E03F932F939F938F930E94751B0FB65D
:1012A000F894DEBF0FBECDBFF7018081863509F40B
:1012B00044C0CCF4803509F4BBC05CF4893409F433
:1012C000C0C08C3469F1843409F0C9C081E090E079
:1012D000B6C0833509F4A7C0843509F4B9C0823596
:1012E00009F0BDC09BC0803709F4A5C05CF4893605
:1012F00009F4AAC08C36D1F0843609F0B0C08FEF63
:101300009FEF9DC0833709F48EC024F4823709F41F
:1013100085C0A5C0843709F49BC0863771F09FC093
:10132000FADE6CE070E088E892E005C0FBDE6DE07C
:1013300070E085E992E02EDF92C0D9DD362E272EAF
:101340009C01AD968FAFAD97AE963FAFAE97C6DD21
:10135000762E672E582E492EB8DDB62EA72E982E43
:10136000892ECEDED82EC92EEBD9162F072FF82EB8
:10137000E92E99DDAC01AB968FAFAB97AC965FAF22
:10138000AC97A9966FAFA997AA967FAFAA97AEDE42
:10139000AE963FADAE973F93AD962FADAD972F93E1
:1013A0002F923F924F925F926F927F928F929F9275
:1013B000AF92BF92CF92DF92EF92FF920F931F9363
:1013C000AC965FADAC975F93AB964FADAB974F9339
:1013D000AA967FADAA977F93A9966FADA9976F93B1
:1013E0009F938F9383EA92E09F938F938E010F5F79
:1013F0001F4F1F930F930E94461BF801019000207E
:10140000E9F7BF0161507109601B710BC801C2DEB1
:101410000FB6F894DEBF0FBECDBF21C0F8018081AA
:101420009181C5D91CC0F80180819181A2D917C0D2
:1014300081E090E002C08FEF9FEF7DDD10C00DDEF8
:101440000EC081E090E002C08FEF9FEFBDDD07C0CE
:101450004FE150E067E377EF82E392E007D96FE076
:1014600070E08BEE92E096DEC359DF4FE2E10C9420
:1014700062181F93CF93DF9382E0DDD290E010914A
:101480009004612F70E086179707D9F020918E04A1
:1014900030918F04EC01C21BD30B90938F04809387
:1014A0008E046E567A4FAE0182E595E00E949D1A39
:1014B000C10FC03218F4C0939004DECF1092900494
:1014C000DBCFE2E5F5E001900020E9F7329780817B
:1014D0008A3011F08D3051F482E595E0C7DE80E26C
:1014E000E2E5F5E0DF011D928A95E9F7DF91CF9102
:1014F0001F910895CF93DF931F92CDB7DEB799D296
:1015000026D1F8940E9457015BDE0E94F8010E94E8
:10151000A2010E94E601789481E9E82E81E0F82E8C
:1015200026DE182F60E080E0998332D199819F9365
:101530001F93FF92EF920E94341B0BD90F900F90D4
:101540000F900F90892B09F0E8D93BD692DFE8CFB6
:1015500080E090E0089581E090E06F9364E06A9508
:10156000F1F76F910197C9F708950F931F93CF93E8
:10157000DF9317B13D982898299AC0E0D0E0EBDFBF
:101580002A9AE9DF06B12A98E6DF2A9AE4DF2A9848
:10159000249605FF10C09E0140E050E08091950424
:1015A00090919604A0919704B09198042817390758
:1015B0004A075B0720F39E0140E050E080919504CC
:1015C00090919604A0919704B09198042817390738
:1015D0004A075B0728F082E390E0A0E0B0E004C097
:1015E00080E395E7A0E0B0E08093950490939604A3
:1015F000A0939704B093980417B9DF91CF911F91EE
:101600000F91089528B190E08F709070880F991F06
:10161000880F991F237C282B28B92A9A9CDF2A98A7
:101620009ACFA2E0B0E0E7E1FBE00C945318182F4A
:101630004A83698358D099DFF7B008B12998698146
:101640004A81662311F0289A01C0289887B18C63DB
:1016500087B9413021F0812F82958F70D3DF812FA0
:101660008F70D0DFF7B808B92296E5E00C946F18B8
:1016700060E042E0D6CF61E042E0D3CF60E041E0FD
:10168000D0CF3D98459A80E395E7A0E0B0E0809305
:10169000950490939604A0939704B0939804209A8D
:1016A000219A229A8EE190E061D683E0E7DF86E01E
:1016B00090E05CD683E0E2DF82E090E057D683E002
:1016C000DDDF82E090E052D682E0D8DF82E090E079
:1016D0004DD688E2CDDF88E0CBDF81E0C9DF86E050
:1016E000C7DF8CE0C5CF80919904882321F481E085
:1016F00080939904C6CF089581E0BADF8091910468
:1017000090919204009711F1A0E0B0E208C0E0913E
:101710009104F0919204E20FF31FB083AF5F2A2F80
:1017200030E08091630190E001976091640170E086
:10173000869FA001879F500D969F500D112424175E
:1017400035072CF310929404109293040895D4CF8B
:101750000895A5E0B0E0EFEAFBE00C945518182FCF
:1017600080E8898380EC8A8384E98B8384ED8C8391
:10177000FE01E60FF11D8181810F6D8379DF1093EA
:1017800094046D81609393042596E3E00C947118A2
:10179000E0CF0895A0E0B0E0E0EDFBE00C9450183D
:1017A000D82E8091910490919204009709F4F2C090
:1017B0002D2D2A3009F442C02830C9F480919404B8
:1017C0008150809394048F3F51F480919304815011
:1017D000809393048091640181508093940480915C
:1017E00093048F3F09F0D1C010929304CCC08D2D8B
:1017F00042DF809193048823B9F090E001974091F3
:10180000640150E0849F9001859F300D949F300DBE
:10181000112480919404E0919104F0919204E20FDC
:10182000F31FE80FF11DD082809194048F5F8093A5
:10183000940490916401891709F0ACC0409193041D
:10184000242F30E08091630190E001972817390739
:1018500009F096C0C0E0D0E03FC080E06C2F79DF97
:10186000CC248E010F5F1F4F32C0EC2CFF2430E0E0
:10187000C29FC001C39F900DD29F900D1124E09193
:101880009104F0919204EE0DFF1DE80FF91F808185
:10189000F2DE80919104909192042091640130E0F5
:1018A000C29FF001C39FF00DD29FF00D11248E0D49
:1018B0009F1DE80FF91F029FD001039FB00D129FDB
:1018C000B00D1124A80FB91F8C918083C39420916F
:1018D0006401C21650F2E80160916301862F90E026
:1018E0000297C817D9070CF4B8CF6230D0F1625014
:1018F00080E02FDF00E010E230C0C02FD0E0809108
:10190000630190E0029750E0849F9001859F300D25
:10191000949F300D1124E0919104F0919204EC0F0A
:10192000FD1FE20FF31F8081A6DE8091630190E02E
:1019300002974091640150E0849F9001859F300D93
:10194000949F300D1124E0919104F0919204EC0FDA
:10195000FD1FE20FF31F10830F5F40916401041716
:1019600060F260916301615080E0F3DE10E003C03B
:1019700080E281DE1F5F809164011817C8F303C005
:101980004F5F40939304109294048091940460916B
:101990009304DFDE2D2D332727FD3095C901CDB708
:1019A000DEB7E8E00C946C18809191049091920459
:1019B000009711F00E9424192091630130E021501A
:1019C00030408091640190E0AC01249FC001259FCC
:1019D000900D349F900D11240E948C1890939204C6
:1019E00080939104009721F1A0E0B0E208C0E0915B
:1019F0009104F0919204E20FF31FB083AF5F2A2F9E
:101A000030E08091630190E001976091640170E0A3
:101A1000869FA001879F500D969F500D112424177B
:101A200035072CF38AEC9BE068EA7AE00C94B81A4C
:101A30000895BACF0895282F30E0F901EE0FFF1F67
:101A400043E0220F331F4A95E1F7E20FF31FEB59F2
:101A5000FE4F82810895282F30E0F901EE0FFF1F1D
:101A600073E0220F331F7A95E1F7E20FF31FEB5972
:101A7000FE4F4181282F30E0F901EE0FFF1F53E0A8
:101A8000220F331F5A95E1F7E20FF31FEB59FE4F78
:101A900081E09381491380E00895282F30E0F90117
:101AA000EE0FFF1FB3E0220F331FBA95E1F7E20FED
:101AB000F31FEB59FE4F408551854115510509F43F
:101AC00052C0282F30E0F901EE0FFF1F73E0220F04
:101AD000331F7A95E1F7E20FF31FEB59FE4F728146
:101AE000282F30E0F901EE0FFF1FB3E0220F331F64
:101AF000BA95E1F7E20FF31FEB59FE4F9481791786
:101B000090F5282F30E0F901EE0FFF1F73E0220F50
:101B1000331F7A95E1F7E20FF31FEB59FE4F9281E5
:101B2000490F511DFA016083282F30E0F901EE0FB3
:101B3000FF1F53E0220F331F5A95E1F7E20FF31F07
:101B4000EB59FE4F92819F5F282F30E0F901EE0F95
:101B5000FF1FB3E0220F331FBA95E1F7E20FF31F27
:101B6000EB59FE4F9283282F30E0F901EE0FFF1F53
:101B700073E0220F331F7A95E1F7E20FF31FEB5961
:101B8000FE4F4281282F30E0F901EE0FFF1F53E096
:101B9000220F331F5A95E1F7E20FF31FEB59FE4F67
:101BA0009481491701F5282F30E0F901EE0FFF1F4E
:101BB00093E0220F331F9A95E1F7E20FF31FEB59E1
:101BC000FE4F9581992379F0282F30E0F901EE0F2F
:101BD000FF1FB3E0220F331FBA95E1F7E20FF31FA7
:101BE000EB59FE4F128208950F931F93182F8230E6
:101BF00009F474C0882319F4E1ECF0E002C0E9ECC8
:101C0000F0E080818F778083812F90E0FC01EE0FE0
:101C1000FF1F03E0880F991F0A95E1F7E80FF91FEE
:101C2000EB59FE4F808591850097A1F1212F30E07F
:101C3000F901EE0FFF1FA3E0220F331FAA95E1F772
:101C4000E20FF31FEB59FE4F9281212F30E0F90193
:101C5000EE0FFF1F63E0220F331F6A95E1F7E20FDB
:101C6000F31FEB59FE4F84819817A0F4112319F448
:101C7000E0ECF0E002C0E8ECF0E0808187FF0AC011
:101C8000112319F4E6ECF0E002C0EEECF0E0608124
:101C9000812F03DF212F30E0F901EE0FFF1F43E01A
:101CA000220F331F4A95E1F7E20FF31FEB59FE4F66
:101CB0008081882309F057C0112319F4E1ECF0E08A
:101CC00002C0E9ECF0E08081806880834CC08091A4
:101CD0007E01882319F010927B0145C0809181011B
:101CE00090918201009709F43EC090917B01809110
:101CF0007D019817C0F580919A04882399F43BD30D
:101D000080939A0410E00AC033D3E02FF0E03197BB
:101D1000E11BF109E556FB4F80831F5F00919A0498
:101D2000101790F3A0919A04AA23E9F080917B0107
:101D3000E0918101F0918201E80FF11DA150A09383
:101D40009A04B0E0A556BB4F8C91808380917B01B3
:101D50008F5F80937B0190917B0180917D0198172B
:101D600009F0BCCFB4CF1F910F910895823051F08C
:101D7000882319F4E1ECF0E002C0E9ECF0E0908196
:101D80009F779083A82FB0E0FD01EE0FFF1F53E077
:101D9000AA0FBB1F5A95E1F7EA0FFB1FEB59FE4F45
:101DA00071876087682F70E0FB01EE0FFF1F93E0E3
:101DB000660F771F9A95E1F7E60FF71FEB59FE4F75
:101DC0001282682F70E0FB01EE0FFF1FA3E0660F89
:101DD000771FAA95E1F7E60FF71FEB59FE4F4483F3
:101DE000482F50E0FA01EE0FFF1F63E0440F551F2C
:101DF0006A95E1F7E40FF51FEB59FE4F258382301A
:101E0000D9F0282F30E0F901EE0FFF1F43E0220F39
:101E1000331F4A95E1F7E20FF31FEB59FE4F908114
:101E2000992351F4882319F4E1ECF0E002C0E9ECC5
:101E3000F0E0808180688083089521E097CFFDCF16
:101E400008951F920F920FB60F920BB60F921124A6
:101E50002F933F934F935F936F937F938F939F93B2
:101E6000AF93BF93EF93FF936091C60080E015DEC0
:101E7000FF91EF91BF91AF919F918F917F916F9162
:101E80005F914F913F912F910F900BBE0F900FBE1E
:101E90000F901F9018951F920F920FB60F920BB6CE
:101EA0000F9211242F933F934F935F936F937F93E0
:101EB0008F939F93AF93BF93EF93FF936091CE0067
:101EC00081E0EBDDFF91EF91BF91AF919F918F91F9
:101ED0007F916F915F914F913F912F910F900BBE2A
:101EE0000F900FBE0F901F901895882319F4E1EC06
:101EF000F0E002C0E9ECF0E0808180628083089528
:101F0000882319F4E1ECF0E002C0E9ECF0E0808114
:101F10008F7D80830895282F30E0F901EE0FFF1F99
:101F200093E0220F331F9A95E1F7E20FF31FEB596D
:101F3000FE4F268137812115310591F1282F30E0A0
:101F4000F901EE0FFF1FA3E0220F331FAA95E1F75F
:101F5000E20FF31FEB59FE4F4181282F30E0F901CA
:101F6000EE0FFF1F63E0220F331F6A95E1F7E20FC8
:101F7000F31FEB59FE4F9381491790F4282F30E05F
:101F8000F901EE0FFF1F43E0220F331F4A95E1F7DF
:101F9000E20FF31FEB59FE4F9081992309F4A5CF6F
:101FA000AFCF823029F1282F30E0F901EE0FFF1F6B
:101FB00053E0220F331F5A95E1F7E20FF31FEB595D
:101FC000FE4F9081992349F4882319F4E1ECF0E065
:101FD00002C0E9ECF0E098E908C0882319F4E1ECCC
:101FE000F0E002C0E9ECF0E098E1908394DF7894AF
:101FF0000895882319F0813029F402C080E0D1CF00
:1020000081E0CFCF0895A0E0B0E0E9E0F0E10C94EA
:102010005118D82E7A018B01ECDF8D2D8230F1F032
:10202000DD2019F4C4ECD0E002C0CCECD0E0C80153
:10203000B70128EF3FEF4FEF5FEFEDD76050734DE3
:102040008E4C9E4FA8019701E4E0220F331F441FDE
:10205000551FEA95D1F7EED739832883CDB7DEB780
:10206000E7E00C946D18CFCF0895282F30E0F901E8
:10207000EE0FFF1F73E0220F331F7A95E1F7E20F97
:10208000F31FEB59FE4F468157814115510509F465
:1020900065C0282F30E0F901EE0FFF1F93E0220FFB
:1020A000331F9A95E1F7E20FF31FEB59FE4F618161
:1020B000282F30E0F901EE0FFF1FA3E0220F331F9E
:1020C000AA95E1F7E20FF31FEB59FE4F93816917D1
:1020D00008F044C0882319F4E0ECF0E002C0E8EC1A
:1020E000F0E0908195FF3AC0882319F4A6ECB0E0A7
:1020F00002C0AEECB0E0282F30E0F901EE0FFF1F78
:1021000063E0220F331F6A95E1F7E20FF31FEB59EB
:10211000FE4F9181490F511DFA0190819C93282F08
:1021200030E0F901EE0FFF1F93E0220F331F9A9565
:10213000E1F7E20FF31FEB59FE4F91819F5F282FCC
:1021400030E0F901EE0FFF1FA3E0220F331FAA9525
:10215000E1F7E20FF31FEB59FE4F9183DCCE1F93A3
:10216000182F823021F0CCDE812F7FDF1CC08091C0
:102170007F01909180010097B1F030917A01209118
:102180007C01321780F406C080917A018F5F8093C2
:102190007A01EDCF20917A01820F911DFC0180819F
:1021A000EED0882389F71F91089580E0D8DF81E081
:1021B000D6DF82E0D4DF80E017DD81E015DD82E04C
:1021C00013CDF3CF0895282F30E0F901EE0FFF1F54
:1021D00093E0220F331F9A95E1F7E20FF31FEB59BB
:1021E000FE4F77836683282F30E0F901EE0FFF1F43
:1021F000A3E0220F331FAA95E1F7E20FF31FEB597B
:10220000FE4F1182282F30E0F901EE0FFF1F63E02F
:10221000220F331F6A95E1F7E20FF31FEB59FE4FD0
:102220004383823009F077CE0895CDCF08951F9271
:102230000F920FB60F920BB60F9211242F933F936C
:102240004F935F936F937F938F939F93AF93BF93BE
:10225000EF93FF9380E009DFFF91EF91BF91AF9182
:102260009F918F917F916F915F914F913F912F91AE
:102270000F900BBE0F900FBE0F901F9018951F92DE
:102280000F920FB60F920BB60F9211242F933F931C
:102290004F935F936F937F938F939F93AF93BF936E
:1022A000EF93FF9381E0E1DEFF91EF91BF91AF915A
:1022B0009F918F917F916F915F914F913F912F915E
:1022C0000F900BBE0F900FBE0F901F9018956F933D
:1022D00064E06A95F1F76F910197C9F708952F921D
:1022E0008F939F932FB68091A4049091A50401969B
:1022F0008093A4049093A50490E08091A604891F84
:102300008093A6049091AC049C5F9093AC04809160
:10231000AB0480519742C0F09093AC048093AB041F
:102320008091A7049091A80401968093A7049093AC
:10233000A80490E08091A904891F8093A90480914A
:10234000AA04891F8093AA042FBE9F918F912F907A
:102350001895CF93DF93EC0104C088EE93E0B7DFCC
:1023600021972097D1F7DF91CF910895F2CF08956B
:102370008FEF64E041C083E867E03ED0F9CF1F9360
:10238000182F982F9095991F9927991F85E8891BD9
:1023900065E032D0812F8F7765E02ED01F910895B0
:1023A0006F9364E06A95F1F76F910197C9F708950B
:1023B000A1E0B0E0EDEDF1E178C6182F249908C056
:1023C0002C9906C02C9A8EE190E06983E9DF69813F
:1023D00084B1806A84B92698812F837080656C7A75
:1023E000862B8CBD81E012FF80E08DBD81E090E006
:1023F000B0DF2196E3E075C60F931F93082F162FC9
:102400000CB406FC03C080E064E0D2DF0CB404FC32
:1024100003C08CB580618CBD0EBD03C00CB404FE3E
:102420000AC00DB407FEFACF112319F0812F90E0F6
:10243000B7DF8EB501C080E01F910F9108952F92F4
:102440003F924F925F926F927F928F929F92AF9244
:10245000BF92CF92DF92EF92FF920F931F93CF9391
:10246000DF93CDB7DEB763970FB6F894DEBF0FBE2C
:10247000CDBF7C011B016A01FC011782168283819A
:1024800081FF4AC3BE016F5F7F4F4B01F70193810C
:10249000F10193FD859193FF81911F01882309F438
:1024A00037C3853239F493FD859193FF81911F01E4
:1024B000853239F4B70190E00E94021B5601650194
:1024C000E5CF10E0512C20E02032A0F48B3269F0EF
:1024D00030F4803259F0833269F420612CC08D329F
:1024E00039F0803339F4216026C02260246023C093
:1024F000286021C027FD27C030ED380F3A3078F42E
:1025000026FF06C0FAE01F9F300D1124132F13C0C1
:102510006AE0569E300D1124532E20620CC08E327C
:1025200021F426FDF5C2206406C08C3611F4206823
:1025300002C0883641F4F10193FD859193FF8191AA
:102540001F018111C1CF9BEB980F933018F42061CC
:10255000805E06C09BE9980F933008F09AC12F7EE9
:1025600026FF16E02F73722E853621F4F22FF064C9
:102570007F2E08C0863621F4622F6068762E02C056
:102580001111115077FE07C01C3348F444244394C2
:10259000410E27E00BC0183030F4212F06C027E091
:1025A0004CE3442E03C027E017E0412C560174E0B1
:1025B000A70EB11CF6016081718182819381042D87
:1025C000A401D1D66C01098100FF02C003FF06C03F
:1025D00071FC07C072FC08C0612C08C03DE2632E8C
:1025E00005C02BE2622E02C090E2692E802F8C7013
:1025F00081F1662011F084E001C083E0851510F0C0
:10260000512C0AC0581A73FC07C0B70180E290E051
:10261000F9D75A94D1F7F4CF662021F0B701862D6F
:1026200090E0F0D703FD03C000E910E002C00CE821
:1026300010E0F72DF0717F2EF8018491882309F4C2
:102640005EC271108052B70190E0DCD70F5F1F4F60
:10265000F3CF77FE0FC04C0C04FF04C08A81813396
:1026600009F44A94141474F5F8E0F41578F588E048
:10267000482E2CC076FC2AC0812F90E08C159D0539
:102680009CF06CEFC6166FEFD60674F0772D70686D
:10269000772E0AC0E2E0F0E0EC0FFD1FE10FF11D24
:1026A0008081803319F411501111F4CF77FE0EC0E0
:1026B00044244394410E812F90E0C816D9062CF48F
:1026C0001C1904C04424439401C010E077FE07C0E5
:1026D0001C141D043CF496012F5F3F4F05C025E0FC
:1026E00030E002C021E030E0662011F02F5F3F4F64
:1026F000112331F0412F50E04F5F5F4F240F351F02
:10270000452D50E02417350714F4521A01C0512CFE
:10271000872D897041F4552031F0B70180E290E0B7
:1027200071D75A94F8CF662021F0B701862D90E03A
:1027300069D773FC08C0552031F0B70180E390E001
:1027400061D75A94F8CF77FE5DC09C2D8D2DD7FEB2
:1027500002C090E080E0692E782E40E050E0C60193
:10276000841991099D878C87960126193709280DB0
:10277000391D812F90E0EE27FF27E81BF90BFF871B
:10278000EE87FFEF6F167F0661F4B7018EE290E0EF
:102790002B8B3A8B488B598B35D7598948893A8985
:1027A0002B89C614D70454F06C857D856615770592
:1027B0002CF4F901E40FF51F818101C080E371E081
:1027C000671A71084F5F5F4FEE85FF856E167F06B3
:1027D00064F0B70190E02B8B3A8B488B598B12D762
:1027E0002B893A8948895989CCCF6C147D0439F4F6
:1027F0009A81963318F4953311F404FF81E3B701FD
:1028000090E045C08A81813309F00F7EB70190E0E6
:10281000F9D6111105C074FE16C085E490E015C00C
:10282000B7018EE290E0EED682E066246394680EF3
:10283000F401E80FF11D8081B70190E0E3D611505B
:1028400051F3862DF2CF85E690E0B701DBD6D7FCB9
:1028500005C0C114D10439F404FF05C0D194C1945A
:10286000D1088DE201C08BE2B70190E0CBD680E3C6
:102870006AE0C616D1042CF08F5FFAE0CF1AD108B7
:10288000F7CFB70190E0BED6B701C601C096BAD661
:1028900036C1833631F0833779F0833509F054C07F
:1028A00020C0560172E0A70EB11CF6018081898319
:1028B00001E010E0640113C05601F2E0AF0EB11C5C
:1028C000F601C080D18026FF03C0612F70E002C0F6
:1028D0006FEF7FEFC6012B8B40D68C012B892F77B2
:1028E00014C05601F2E0AF0EB11CF601C080D180D9
:1028F00026FF03C0612F70E002C06FEF7FEFC601BB
:102900002B8B09D68C012B892068722E23FD18C0D1
:10291000852D90E00817190798F4B70180E290E040
:1029200071D65A94F5CFF60177FC859177FE8191A7
:102930006F01B70190E066D651105A940150110909
:102940000115110581F7DBC0843611F0893649F590
:10295000560127FF09C0F4E0AF0EB11CF6016081FB
:102960007181828193810AC0F2E0AF0EB11CF60141
:1029700060817181882777FD8095982F022F0F76CF
:1029800097FF08C090958095709561957F4F8F4F08
:102990009F4F00682AE030E0A401C8D6C82EC818AE
:1029A0003DC0022F853721F40F7E2AE030E01DC0A4
:1029B000097F8F3691F018F4883559F0A9C0803717
:1029C00019F0883711F0A4C0006104FF09C0046049
:1029D00007C024FF08C0066006C028E030E005C03C
:1029E00020E130E002C020E132E0560107FF09C0DB
:1029F000F4E0AF0EB11CF601608171818281938198
:102A000008C0F2E0AF0EB11CF6016081718180E078
:102A100090E0A4018BD6C82EC8180F7706FF0BC014
:102A2000202F2E7FC11650F404FF0AC002FD08C0FB
:102A3000202F2E7E05C0DC2C202F03C0DC2C01C0F3
:102A4000D12E24FF0DC0FE01EC0DF11D80818033DD
:102A500011F4297E09C022FF06C0D394D39404C088
:102A6000822F867809F0D39423FD12C020FF06C080
:102A70001C2DD51418F4150D1D19D52CD51460F482
:102A8000B70180E290E02B8BBDD5D3942B89F6CF94
:102A9000D51410F45D1801C0512C24FF11C0B701EA
:102AA00080E390E02B8BAED52B8922FF16C021FF4F
:102AB00003C088E590E002C088E790E0B7010CC051
:102AC000822F867851F021FD02C080E201C08BE2A6
:102AD00027FD8DE2B70190E095D5C11630F4B7011E
:102AE00080E390E08FD51150F8CFCA94F401EC0D3B
:102AF000F11D8081B70190E085D5C110F6CF55203A
:102B000009F4DDCCB70180E290E07CD55A94F7CF90
:102B1000F7018681978102C08FEF9FEF63960FB612
:102B2000F894DEBF0FBECDBFDF91CF911F910F9103
:102B3000FF90EF90DF90CF90BF90AF909F908F90DD
:102B40007F906F905F904F903F902F9008955058D6
:102B5000BB27AA270ED075C166D130F06BD120F00B
:102B600031F49F3F11F41EF45BC10EF4E095E7FBD6
:102B700051C1E92F77D180F3BA1762077307840731
:102B8000950718F071F49EF58FC10EF4E0950B2EA9
:102B9000BA2FA02D0B01B90190010C01CA01A001AF
:102BA0001124FF27591B99F0593F50F4503E68F10A
:102BB0001A16F040A22F232F342F4427585FF3CF4B
:102BC000469537952795A795F0405395C9F77EF41C
:102BD0001F16BA0B620B730B840BBAF09150A1F065
:102BE000FF0FBB1F661F771F881FC2F70EC0BA0FEB
:102BF000621F731F841F48F4879577956795B79573
:102C0000F7959E3F08F0B3CF9395880F08F099276A
:102C1000EE0F979587950895D9D008F481E008952F
:102C20000CD00FC107D140F0FED030F021F45F3F4F
:102C300019F0F0C0511139C1F3C014D198F39923A0
:102C4000C9F35523B1F3951B550BBB27AA27621770
:102C50007307840738F09F5F5F4F220F331F441FB5
:102C6000AA1FA9F333D00E2E3AF0E0E830D09150ED
:102C70005040E695001CCAF729D0FE2F27D0660FDA
:102C8000771F881FBB1F261737074807AB07B0E819
:102C900009F0BB0B802DBF01FF2793585F4F2AF02F
:102CA0009E3F510568F0B6C000C15F3FECF3983E0F
:102CB000DCF3869577956795B795F7959F5FC9F78C
:102CC000880F911D9695879597F90895E1E0660F15
:102CD000771F881FBB1F621773078407BA0720F08E
:102CE000621B730B840BBA0BEE1F88F7E0950895F7
:102CF00004D06894B111D9C00895BCD088F09F5712
:102D000090F0B92F9927B751A0F0D1F0660F771F37
:102D1000881F991F1AF0BA95C9F712C0B13081F017
:102D2000C3D0B1E00895C0C0672F782F8827B85F5F
:102D300039F0B93FCCF3869577956795B395D9F778
:102D40003EF490958095709561957F4F8F4F9F4F82
:102D50000895E89409C097FB3EF49095809570958E
:102D600061957F4F8F4F9F4F9923A9F0F92F96E9D7
:102D7000BB279395F695879577956795B795F1114C
:102D8000F8CFFAF4BB0F11F460FF1BC06F5F7F4FE9
:102D90008F4F9F4F16C0882311F096E911C07723FB
:102DA00021F09EE8872F762F05C0662371F096E804
:102DB000862F70E060E02AF09A95660F771F881FD3
:102DC000DAF7880F9695879597F90895990F000877
:102DD000550FAA0BE0E8FEEF16161706E807F907ED
:102DE000C0F012161306E407F50798F0621B730B88
:102DF000840B950B39F40A2661F0232B242B252B09
:102E000021F408950A2609F4A140A6958FEF811DAB
:102E1000811D089597F99F6780E870E060E008954C
:102E20009FEF80EC089500240A94161617061806E2
:102E30000906089500240A941216130614060506BE
:102E40000895092E0394000C11F4882352F0BB0F4F
:102E500040F4BF2B11F460FF04C06F5F7F4F8F4FB2
:102E60009F4F089557FD9058440F551F59F05F3FED
:102E700071F04795880F97FB991F61F09F3F79F09C
:102E800087950895121613061406551FF2CF46951E
:102E9000F1DF08C0161617061806991FF1CF8695A0
:102EA0007105610508940895E894BB276627772784
:102EB000CB0197F908958ADF08F48FEF08950BD0BE
:102EC000C0CFB1DF28F0B6DF18F0952309F0A2CF0C
:102ED000A7CF1124EACFC6DFA0F3959FD1F3950FBA
:102EE00050E0551F629FF001729FBB27F00DB11D8E
:102EF000639FAA27F00DB11DAA1F649F6627B00D1E
:102F0000A11D661F829F2227B00DA11D621F739F06
:102F1000B00DA11D621F839FA00D611D221F749F14
:102F20003327A00D611D231F849F600D211D822F5B
:102F3000762F6A2F11249F5750408AF0E1F08823A2
:102F40004AF0EE0FFF1FBB1F661F771F881F9150AF
:102F50005040A9F79E3F510570F05CCFA6CF5F3F70
:102F6000ECF3983EDCF3869577956795B795F795E2
:102F7000E7959F5FC1F7FE2B880F911D969587956A
:102F800097F9089577DFE0F09E37D8F09639B8F4D6
:102F90009E3848F4672F782F8827985FF9CF869559
:102FA0007795679593959539D0F3B62FB1706B0FE0
:102FB000711D811D20F4879577956795939502C0C3
:102FC0001CC073CF882371F4772321F09850872B8E
:102FD000762F07C0662311F499270DC09051862BD8
:102FE00070E060E02AF09A95660F771F881FDAF785
:102FF000880F9695879597F908959F3F31F09150E6
:1030000020F4879577956795B795880F911D9695CC
:10301000879597F90895DB018F939F932DD0BF91EA
:10302000AF91A29F800D911DA39F900DB29F900D17
:1030300011240895A1E21A2EAA1BBB1BFD010DC08D
:10304000AA1FBB1FEE1FFF1FA217B307E407F50758
:1030500020F0A21BB30BE40BF50B661F771F881F34
:10306000991F1A9469F760957095809590959B01CA
:10307000AC01BD01CF01089540D0A59F900DB49F34
:10308000900DA49F800D911D112408952F923F92C1
:103090004F925F926F927F928F929F92AF92BF9268
:1030A000CF92DF92EF92FF920F931F93CF93DF9314
:1030B000CDB7DEB7CA1BDB0B0FB6F894DEBF0FBE71
:1030C000CDBF09942A88398848885F846E847D84BE
:1030D0008C849B84AA84B984C884DF80EE80FD80C0
:1030E0000C811B81AA81B981CE0FD11D0FB6F89436
:1030F000DEBF0FBECDBFED010895A29FB001B39F0B
:10310000C001A39F700D811D1124911DB29F700DF0
:10311000811D1124911D0895CF93DF938230910575
:1031200010F482E090E0E091B405F091B50520E064
:1031300030E0A0E0B0E0309739F14081518148178C
:103140005907B8F04817590771F482819381109795
:1031500029F013969C938E9312972CC09093B505EB
:103160008093B40527C02115310531F0421753076C
:1031700018F0A901DB0101C0EF019A01BD01DF01D7
:103180000280F381E02DD7CF21153105F9F0281BFE
:10319000390B2430310580F48A819B8161157105DA
:1031A00021F0FB019383828304C09093B505809343
:1031B000B405FE01329644C0FE01E20FF31F819375
:1031C000919322503109398328833AC02091B20566
:1031D0003091B305232B41F420918D0130918E0164
:1031E0003093B3052093B20520918B0130918C016F
:1031F0002115310541F42DB73EB740918F01509113
:103200009001241B350BE091B205F091B305E21754
:10321000F307A0F42E1B3F0B2817390778F0AC01F9
:103220004E5F5F4F2417350748F04E0F5F1F5093D6
:10323000B3054093B2058193919302C0E0E0F0E0C2
:10324000CF01DF91CF910895CF93DF93009709F4D9
:1032500087C0FC01329713821282C091B405D091CD
:10326000B505209781F420813181280F391F809185
:10327000B2059091B3058217930779F5F093B305E2
:10328000E093B2056DC0DE0120E030E0AE17BF076D
:1032900050F412964D915C9113979D014115510583
:1032A00009F1DA01F3CFB383A28340815181840F06
:1032B000951F8A179B0771F48D919C911197840F2C
:1032C000951F02969183808312968D919C911397FE
:1032D000938382832115310529F4F093B505E0939A
:1032E000B4053EC0D9011396FC93EE9312974D910D
:1032F0005D91A40FB51FEA17FB0779F480819181D6
:10330000840F951F0296D90111969C938E9382810A
:10331000938113969C938E931297E0E0F0E08A815C
:103320009B81009719F0FE01EC01F9CFCE010296C6
:1033300028813981820F931F2091B2053091B30506
:103340002817390769F4309729F41092B5051092BF
:10335000B40502C013821282D093B305C093B205A4
:10336000DF91CF910895283008F027E03327DA0164
:10337000990F311D87FD916000966105710539F443
:1033800032602E5F3D9330E32A95E1F708959F3F29
:1033900030F080387105610509F03C5F3C5F3D937A
:1033A000913008F08068911DDF93CF931F930F93A6
:1033B000FF92EF92192F987F9695E92F9695969503
:1033C000E90FFF27E251FF4F99273327EE24FF240F
:1033D000A701E70105900894079428F4360FE71E2B
:1033E000F81E491F511D660F771F881F991F0694ED
:1033F000A1F70590079428F4E70EF81E491F561F01
:10340000C11D770F881F991F661F0694A1F70590AD
:10341000079428F4F80E491F561FC71FD11D880FA7
:10342000991F661F771F0694A1F70590079420F453
:10343000490F561FC71FD81F990F661F771F881F78
:103440000694A9F784911095177041F0D695C79509
:1034500057954795F794E7941A95C1F7E4E9F0E09A
:1034600068941590159135916591959105907FE23D
:103470007395E118F10A430B560BC90BD009C0F73D
:10348000E10CF11E431F561FC91FD01D7EF470337F
:1034900011F48A95E6CFE894015030F0080F0AF451
:1034A0000027021708F4202F2395022F7A3328F0E3
:1034B00079E37D932A95E9F710C07D932A9589F6E3
:1034C000069497956795379517951794E118F10A23
:1034D000430B560BC90BD00998F023957E91739539
:1034E0007A3308F070E37C932013B8F77E91706113
:1034F0007D9330F0839571E37D9370E32A95E1F736
:103500001124EF90FF900F911F91CF91DF91992798
:1035100087FD90950895FC01059061507040011061
:10352000D8F7809590958E0F9F1F0895FB01DC01C1
:1035300001900D920020E1F70895FB01DC010D9050
:103540000020E9F711974150504028F001900020E9
:103550000D92C9F708951C920895FC0161507040C6
:1035600001900110D8F7809590958E0F9F1F0895B8
:103570000F931F93CF93DF93EC018B01009731F4EE
:103580006115710519F480E090E037C06EE070E0DD
:1035900081E090E0E2D3FC010097A9F380E8838307
:1035A0000115110571F01387028781E883838091EB
:1035B000B6059091B705892B21F4F093B705E093F8
:1035C000B6052097C9F0D187C08783818260838345
:1035D0008091B8059091B905892B71F4F093B905E4
:1035E000E093B8058091BA059091BB05892B21F431
:1035F000F093BB05E093BA05CF01DF91CF911F9106
:103600000F9108950F931F93CF93DF93182F092FD6
:10361000EB018B8181FD03C08FEF9FEF20C082FF04
:1036200010C04E815F812C813D81421753077CF48D
:10363000E881F9819F012F5F3F4F398328831083F1
:1036400006C0E885F985812F0995892B29F72E81F8
:103650003F812F5F3F4F3F832E83812F902FDF913C
:10366000CF911F910F910895CF93DF93CDB7DEB720
:10367000FE01359661917191AF018091B8059091ED
:10368000B9050E941F12DF91CF9108950F931F93E8
:10369000CF93DF93CDB7DEB72E970FB6F894DEBF8A
:1036A0000FBECDBF0D891E8986E08C831A830983E6
:1036B0008FEF9FE79E838D83AE01475E5F4F6F89DB
:1036C000788DCE0101960E941F12EF81F885E00FE0
:1036D000F11F10822E960FB6F894DEBF0FBECDBF3D
:1036E000DF91CF911F910F910895CF93DF93CDB7C5
:1036F000DEB72E970FB6F894DEBF0FBECDBF85E0C4
:103700008C838B899C899A838983AE01495E5F4F44
:103710006D897E89CE010196F7D12E960FB6F89469
:10372000DEBF0FBECDBFDF91CF910895FA01AA276A
:10373000283051F1203181F1E8946F936E7F6E5FF4
:103740007F4F8F4F9F4FAF4FB1E03ED0B4E03CD0A2
:10375000670F781F891F9A1FA11D680F791F8A1F85
:10376000911DA11D6A0F711D811D911DA11D20D0EC
:1037700009F468943F912AE0269F11243019305DA6
:103780003193DEF6CF010895462F4770405D419397
:10379000B3E00FD0C9F7F6CF462F4F70405D4A33E4
:1037A00018F0495D31FD4052419302D0A9F7EACFAC
:1037B000B4E0A6959795879577956795BA95C9F7DB
:1037C00000976105710508959B01AC010A2E0694CE
:1037D0005795479537952795BA95C9F7620F731F87
:1037E000841F951FA01D089520FD09C0FC0123FD25
:1037F00005C022FF02C07383628351834083089512
:1038000044FD10C046FD10C0DB01FC01AA0FBB1F28
:10381000EE1FFF1F1094D1F76A0F7B1F8E1F9F1F93
:1038200031E003C033E001C034E0660F771F881F2A
:10383000991F3150D1F7620F711D811D911D08959F
:103840000F931F93CF93DF938C01C801BAD2EC0181
:1038500097FD06C09CD2892BC1F7B801CE01EFD2EB
:10386000CE01DF91CF911F910F9108958F929F927A
:10387000AF92CF92DF92EF92FF920F931F93CF936D
:10388000DF93EC01A62E4A01022F9BD2AC015527F3
:103890004B32510521F04D32510549F40068AA948C
:1038A00011F480E060C0CE018CD297FDFACF102FCA
:1038B0001D7F302F3073F1F48033E1F4FF24FA944C
:1038C000FA0C09F43DC0CE017CD297FD39C0382FE7
:1038D0003F7D383549F41264AA94AA9489F1CE0147
:1038E00070D297FF07C02CC006FF02C0126001C053
:1038F0001261AF2CC12CD12C760120ED280F28307D
:1039000078F014FF03C0BE019AD217C02A3040F0ED
:1039100016FFF9CF2F7D3FEE320F3630A0F727503C
:10392000412FC701B6016CDF6B017C011260AA94C4
:1039300051F0CE0146D297FFE0CF11FD04C0B1CFC8
:10394000C12CD12C760117FF08C0F094E094D094DC
:10395000C094C11CD11CE11CF11C212FB701A60190
:10396000C40142DF81E0DF91CF911F910F91FF9061
:10397000EF90DF90CF90AF909F908F9008957F92BF
:103980008F929F92AF92BF92CF92DF92EF92FF926F
:103990000F931F93CF93DF93CDB7DEB7A1970FB6E9
:1039A000F894DEBF0FBECDBF5C017A018E010F5FC0
:1039B0001F4F680180E2D8011D928A95E9F7F50151
:1039C000738040E050E0812CB0E0912C81E090E0E9
:1039D000F90173FCA59173FEA1918F017A2F9F01CC
:1039E000A11103C080E090E07BC0AE3519F4411511
:1039F000510559F1E92DF0E0E417F5073CF4AD3538
:103A000069F1AD3219F4BB2319F103C0B11101C042
:103A10008A2EE72FE695E695E69586010E0F111D95
:103A2000F801A72FA7708C0102C0000F111FAA95E3
:103A3000E2F7D801B081BA2BB083781559F0781528
:103A400010F47F5FE6CF7150E4CF9924939403C0C4
:103A5000B1E001C0B0E04F5F5F4FBACFBB2319F0B8
:103A60008E8180628E83911003C09924939415C037
:103A7000F601CE018196208120952193E817F90760
:103A8000D1F7F3CFE114F10429F0D7018C93F701BA
:103A900031967F016150F1F0912CC50169A391D15C
:103AA00069A197FD15C0282F269526952695F60124
:103AB000E20FF11D208130E0AC014770552702C0B4
:103AC000359527954A95E2F720FDDCCFB501B7D1B2
:103AD000911088CFE114F10411F0D7011C92C801B4
:103AE000A1960FB6F894DEBF0FBECDBFDF91CF9188
:103AF0001F910F91FF90EF90DF90CF90BF90AF900C
:103B00009F908F907F9008954F925F927F928F92B7
:103B10009F92AF92BF92CF92DF92EF92FF920F935C
:103B20001F93CF93DF931F92CDB7DEB78C012B018C
:103B30007A01FC0117821682A12CF801D380F201D0
:103B4000D3FC8591D3FE8191382F2F01882309F46E
:103B5000EEC090E039831BD13981892B19F0C8015F
:103B60006FDEEBCF353241F4F201D3FC3591D3FE59
:103B700031912F01353259F4C801398322D139816D
:103B800097FDD3C03817C9F2B80159D1D0C03A3225
:103B900041F4D3FC3591D3FE31912F01BB24B39472
:103BA00001C0B12C712C20ED230F2A3088F4FB2D9D
:103BB000F260BF2E672D70E080E090E040E220DEF2
:103BC000762EF201D3FC3591D3FE31912F01EBCF4C
:103BD000B1FE03C0711003C0AAC077247A943836AE
:103BE00019F03C3661F014C0F201D3FC3591D3FEDC
:103BF00031912F01383661F4FB2DF860BF2E8B2DEB
:103C00008460B82EF201D3FC3591D3FE31912F019F
:103C1000332309F48CC0632F70E08EE891E0398380
:103C2000BED03981892B09F482C0B0FC07C0F701EE
:103C3000C080D180C70102967C0102C0C12CD12C6A
:103C40003E3649F4F8014681578160E070E02B2D43
:103C5000C601CADD72CF333699F4B1FC02C07724B5
:103C60007394C801AED097FD60C0C114D10429F08F
:103C7000F6018083C60101966C017A9491F751C0D8
:103C80003B3551F49201A601672DC80178DE2C0165
:103C9000009709F046C040C0C8013983D1DD3981A1
:103CA00097FD43C03F3651F128F4343619F13936C7
:103CB00061F128C0333769F03537E1F023C0C11412
:103CC000D10429F0F6018082C60101966C017A9434
:103CD00059F0C80176D04C0197FD06C058D0892B09
:103CE00071F3B801C401ABD0C114D104D1F0F60115
:103CF000108217C0FB2DF062BF2E07C08B2D806194
:103D0000B82E03C09B2D9064B92E2B2DA601672DD4
:103D1000C801ACDD811105C0F8018381807329F4ED
:103D200006C0B0FC0ACFA39408CFAA2019F08A2DB0
:103D300090E002C08FEF9FEF0F90DF91CF911F9126
:103D40000F91FF90EF90DF90CF90BF90AF909F903A
:103D50008F907F905F904F9008950F931F93CF9314
:103D6000DF93869F8001879F100D969F100D112471
:103D7000C801D2D9EC01009721F0A80160E070E001
:103D800019D0CE01DF91CF911F910F91089591111C
:103D90006FC0803219F089508550D0F70895FC012A
:103DA0000590061621F00020D9F7C001089531973B
:103DB000CF010895DC0101C06D9341505040E0F700
:103DC0000895CF93DF93EC012B8120FF33C026FFB2
:103DD0000AC02F7B2B838E819F8101969F838E83C8
:103DE0008A8190E029C022FF0FC0E881F98180819B
:103DF000992787FD9095009719F420622B831AC0AC
:103E00003196F983E8830EC0EA85FB85099597FF13
:103E100009C02B81019611F480E101C080E2822B60
:103E20008B8308C02E813F812F5F3F4F3F832E83BE
:103E3000992702C08FEF9FEFDF91CF910895FB018B
:103E4000238120FF12C026FD10C08F3F3FEF930754
:103E500061F082832F7D2064238326813781215066
:103E6000310937832683992708958FEF9FEF0895AF
:0A3E7000992788270895F894FFCFE2
:103E7A000101010000A8F24500900C45FFFF520223
:103E8A0017B7D1380AD7233CCDCC4C3D3333933FB7
:103E9A0000002041FF000AD7A33C0004002D310195
:103EAA0001EB02FA023F039603E403456E7465725E
:103EBA00204F7074696F6E3A200000000000000005
:103ECA0000000000000000000000000000000000E8
:103EDA0000000002100000000000000000000000C6
:103EEA0000000000000000000001000000000000C7
:103EFA00000000FFFFFFFFFFFFFFFF0000BC0520DF
:103F0A0000454E433A20252D313664005245463A43
:103F1A0020252E326620202043414C433A20252E6C
:103F2A00326620202020544F525155453A202564AC
:103F3A000A00504F533A20252E3266202020535033
:103F4A00443A20252E32662020205245463A202522
:103F5A002E326620204552523A20252E32662020E3
:103F6A000A00544F543A20252E326620202052450A
:103F7A00463A20252E3266204F56455253484F4F17
:103F8A00543A20252E32660A00504F533A20252EE5
:103F9A0032662020205350443A20252E32662020B3
:103FAA00205245463A20252E326620204552523A62
:103FBA0020252E32662020544F523A202564202094
:103FCA000A0046393020482E352042333630204800
:103FDA002E35204635000D0A555342205365726925
:103FEA00616C20496E697469616C697A65640D0A4D
:103FFA0000253163202564004C6F6767696E67206E
:10400A004F6E0D0A004C6F6767696E67204F6666D0
:10401A000D0A000D0A566D3A2025642020205072A0
:10402A003A20252E3166202020506D3A20252E3147
:10403A00660D0A4A3A2025730D0A4B703A20252E3E
:10404A0032662020204B693A20252E346620202013
:10405A004B643A20252E34660D0A00456E7465724B
:10406A00204F7074696F6E3A2000492F6920496E9B
:10407A006372656173652F44656372617365204B72
:10408A0069206279206761696E20696E746572764B
:10409A00616C0D0A542F742020204578656375746D
:1040AA0065207472616A6563746F72790D0A0050D3
:1040BA002F7020496E6372656173652F4465637260
:1040CA0065617365204B70206279206761696E2093
:1040DA00696E74657276616C0D0A442F6420496EAC
:1040EA006372656173652F446563726561736520E8
:1040FA004B64206279206761696E20696E7465720B
:10410A0076616C0D0A007220202053657420726556
:10411A00666572656E636520706F736974696F6E28
:10412A0020696E20636F756E74730D0A73202020E8
:10413A00536574207265666572656E636520737077
:10414A0065656420696E20636F756E74732F73657D
:10415A00630D0A000D0A4D656E75204F7074696F04
:10416A006E730D0A4C2F6C2053746172742F737422
:10417A006F70206C6F6767696E672050722C2050D1
:10418A006D2C20616E6420540D0A76202020566919
:10419A0065772063757272656E74207365747469CD
:0641AA006E67730D0A00B0
:00000001FF
